:020000040800F2
:100000007006002065010008111100082110000889
:1000100000000000000000000000000000000000E0
:1000200000000000000000000000000017110008A0
:100030000000000000000000151100081911000860
:100040009501000895010008950100089501000838
:100050009501000895010008950100089501000828
:1000600000000000950100089501000895010008B6
:1000700095010008950100080000000095010008A6
:100080000000000000000000000000000000000070
:100090009501000800000000000000009501000824
:1000A00000000000950100080000000000000000B2
:1000B0009501000895010008000000000000000004
:1000C00000F002F800F03EF80CA030C80838241800
:1000D0002D18A246671EAB4654465D46AC4201D180
:1000E00000F030F87E460F3E0FCCB6460126334274
:1000F00000D0FB1AA246AB46334318477C110000E0
:100100009C110000103A02D378C878C1FAD852077F
:1001100001D330C830C101D504680C6070470000BD
:100120000023002400250026103A01D378C1FBD813
:10013000520700D330C100D50B6070471FB51FBDFB
:1001400010B510BD00F018F91146FFF7F7FF01F0E8
:100150005FF800F030F903B4FFF7F2FF03BC00F0E2
:1001600037F900000F4880F308880F480168090E2E
:100170000E4A914205D10E480E4901600E480F49C2
:1001800001600F4880470F480047FEE7FEE7FEE7A3
:10019000FEE7FEE7FEE700000B480C490C4A0D4B5A
:1001A0007047000070060020040000001F000000DF
:1001B0003410024001000000000001400000000077
:1001C00095110008C1000008700000207006002092
:1001D000700200207002002001E004C0091F042901
:1001E000FBD28B0701D50280801CC90700D00270AA
:1001F000704700290BD0C30702D00270401C491E73
:10020000022904D3830702D50280801C891EE3E7FC
:100210000022EEE70022DFE7002203098B422CD305
:10022000030A8B4211D300239C464EE003460B4346
:100230003CD4002243088B4231D303098B421CD3A8
:10024000030A8B4201D394463FE0C3098B4201D39A
:10025000CB01C01A524183098B4201D38B01C01AD2
:10026000524143098B4201D34B01C01A5241030949
:100270008B4201D30B01C01A5241C3088B4201D3F8
:10028000CB00C01A524183088B4201D38B00C01AA5
:10029000524143088B4201D34B00C01A5241411ACC
:1002A00000D201465241104670475DE0CA0F00D0AF
:1002B0004942031000D34042534000229C460309A8
:1002C0008B422DD3030A8B4212D3FC22890112BA2E
:1002D000030A8B420CD3890192118B4208D3890106
:1002E00092118B4204D389013AD0921100E089091E
:1002F000C3098B4201D3CB01C01A524183098B42FF
:1003000001D38B01C01A524143098B4201D34B01E7
:10031000C01A524103098B4201D30B01C01A52414A
:10032000C3088B4201D3CB00C01A524183088B42D1
:1003300001D38B00C01A5241D9D243088B4201D35A
:100340004B00C01A5241411A00D201466346524145
:100350005B10104601D34042002B00D54942704744
:1003600063465B1000D3404201B50020C046C04642
:1003700002BD704770477047754600F025F8AE46DD
:10038000050069465346C008C000854618B020B530
:10039000FFF702FF60BC00274908B6460026C0C52B
:1003A000C0C5C0C5C0C5C0C5C0C5C0C5C0C5403D2D
:1003B00049008D46704710B50446C046C0462046E9
:1003C000FFF7C9FE10BD0000004870471000002074
:1003D00001491820ABBEFEE726000200704772B646
:1003E00000BFFEE770B503460A4600210024002046
:1003F000D2E001268E40156835402C46002C79D07D
:100400001579AD07AD0F012D04D01579AD07AD0FEE
:10041000022D18D198684E000325B5400646AE431C
:1004200030464E00D568B54028439860586801258D
:100430008D400646AE4330461026556835402D099E
:100440008D40284358601579AD07AD0F032D0BD0B3
:10045000D8684E000325B5400646AE4330464E00F0
:100460009568B5402843D8601579AD07AD0F022DCA
:1004700015D1CD08AE001D462035A8594D07EE0E0A
:100480000F25B5400646AE4330464E07F60E1569B9
:10049000B5402843CD08AD001E462036705118687F
:1004A0004E000325B5400646AE4330461579AD07EC
:1004B000AD0F4E00B540284318600326360455683A
:1004C0003540002D67D0374D6D6B01263543354ED5
:1004D0007563354D8E08B600A8598D072E0F0F2570
:1004E000B5400646AE43304605252D07AB4202D146
:1004F00000250BE04FE02D4DAB4201D1012505E079
:100500002B4DAB4201D1022500E006258E07360FA8
:10051000B5402843244D8E08B600A851254DA86843
:100520000546A54328460126360555683540002D69
:1005300002D00546254328461E4DA860E8680546BA
:10054000A54328460126760555683540002D02D082
:10055000054625432846174DE86068680546A543CB
:1005600028460126760455683540002D02D0054600
:10057000254328460F4D686028680546A543284650
:100580000126360455683540002D02D00546254326
:100590002846084D2860491C1568CD40002D00D024
:1005A00027E770BD00100240080001400004005021
:1005B0000008005000040140002A01D0816100E0E1
:1005C0008162704701480068704700000000002009
:1005D00003480068034909784018014908607047DA
:1005E000000000200800002010B500240848006822
:1005F0004021084306490860032000F00BF800285A
:1006000001D0012401E000F02FF8204610BD0000C9
:100610000020024070B50446104801787D20C000DB
:10062000FFF7FAFD064631460D480068FFF7F4FD76
:10063000054600F0D9FC002801D0012070BD042C33
:1006400007D200222146501E00F01EF80548046023
:1006500001E00120F2E70020F0E7000008000020A0
:100660000C000020040000200648406B01210843D4
:10067000044948630846806B0904084301498863BC
:10068000704700000010024070B504460D46164643
:100690002946204600F080FD70BD0000F8B50446F4
:1006A0000E46002C01D10120F8BD83480068C00728
:1006B000C00FB04218D28048006840084000304364
:1006C0007D490860FFF77EFF054607E0FFF77AFFE8
:1006D000401B7A49884201D90320E5E77648006843
:1006E000C007C00FB042F1D10221206808400228A3
:1006F00007D17348C068F0218843A1680843704956
:10070000C8602078C007C00F00284CD0606802285D
:1007100009D16B480068012149040840400C0028B9
:1007200024D10120C0E76068032809D1644800682B
:10073000012149060840400E002817D10120B3E7E7
:100740006068012808D15E480068042108408008DC
:1007500000280BD10120A7E7594800680121490270
:100760000840400A002801D101209DE75448C06894
:1007700080088000616808435149C860FFF722FF84
:100780000546606802280FD107E0FFF71BFF401BFA
:100790004A49884201D9032086E74948C0680C21AC
:1007A00008400828F1D134E0606803280FD107E041
:1007B000FFF708FF401B4149884201D9032073E736
:1007C0003F48C0680C2108400C28F1D121E0606846
:1007D00001280FD107E0FFF7F5FE401B374988429B
:1007E00001D9032060E73648C0680C21084004287E
:1007F000F1D10EE007E0FFF7E5FE401B2F498842EC
:1008000001D9032050E72E48C0680C210840002879
:10081000F1D129480068C007C00FB04218D9264856
:10082000006840084000304323490860FFF7CAFED3
:10083000054607E0FFF7C6FE401B2049884201D964
:10084000032031E71C480068C007C00FB042F1D157
:10085000042120680840042808D11948C0680721ED
:1008600009028843E16808431549C86008212068E7
:100870000840082809D11248C0680721C9028843E6
:100880002169C90008430E49C86000F021F80C49ED
:10089000C968F022114009090A4A515CC8400A4956
:1008A00008600A480068FFF7B5FE0746002F01D030
:1008B0003846F9E60020F7E60020024088130000E1
:1008C00000100240541200080C0000200400002018
:1008D000FEB52E48C7680C203840002845D00428B3
:1008E00004D008280CD00C283ED10BE02748006823
:1008F00010210840002801D0254C00E0254C41E0A3
:10090000254C3FE00F2080043840800C23490E5CCA
:10091000032080053840800D401C01901B48C068B2
:10092000012109040840002807D01B4971430846EB
:100930000199FFF771FC054614E014480068102186
:100940000840002807D01249714308460199FFF773
:1009500063FC054606E00F49714308460199FFF71D
:100960005BFC05462C460DE000BF084840680721A7
:1009700049030840400B00900098401C0121814031
:10098000CC0300BF00BF2046FEBD000000100240A7
:1009900000093D000024F40000127A006C120008E7
:1009A000FEB50446002C01D10120FEBDFB48C768FE
:1009B0000C210F40C06801210904084001902078F3
:1009C000C007C00F002872D0082F04D00C2F0FD101
:1009D000019888420CD1F14800680121490408407F
:1009E000400C002863D06068002860D10120DCE75B
:1009F00000BF012109046068884205D1E74800680A
:100A00000843E649086027E0052109046068884238
:100A10000ED1E2480068012189040843DF490860DB
:100A200008460068012109040843DC49086013E016
:100A3000DA480068012109048843D849086008465B
:100A40000068012109040840009000BFD3480068F5
:100A500089008843D149086000BF6068002813D02E
:100A6000FFF7B0FD054606E0FFF7ACFD401B64282C
:100A700001D9032099E7C9480068012149040840C9
:100A8000400C0028F0D012E0FFF79CFD054606E080
:100A9000FFF798FD401B642801D9032085E7BF4874
:100AA0000068012149040840400C0028F0D10221CF
:100AB0002068084002286CD1E668202030400028D9
:100AC00009D0B648006820210843B44908602021B5
:100AD000304688430646042F04D00C2F34D10198A9
:100AE000002831D1AD480068042108408008002862
:100AF00003D0002E01D1012057E7A84840681F21EC
:100B000009028843216909020843A449486008464C
:100B10000068092188433043A0490860FFF7D8FEE8
:100B20009E49C968F022114009099D4A515CC8409C
:100B30009C4908609C480068FFF76CFD0290029891
:100B400000283FD0029830E7002E23D09348006859
:100B500009218843304391490860FFF733FD05467A
:100B600006E0FFF72FFD401B022801D903201CE7F8
:100B70008A4800680421084080080028F1D087488E
:100B800040681F21090288432169090208438349FB
:100B9000486017E081480068400840007F490860CD
:100BA000FFF710FD054606E0FFF70CFD401B02288D
:100BB00001D90320F9E6794800680421084080083B
:100BC0000028F1D1102120680840102868D1002F9A
:100BD00037D17248006849010840400A002804D013
:100BE000A069002801D10120DFE66C484068072198
:100BF00049038843216A08436849486008464068B9
:100C00000002000A217F0906084364494860206AFF
:100C1000400B401C01218140C8036049C968F02293
:100C2000114009095E4A515CC8405E4908605E484F
:100C30000068FFF7EFFC0290029800284BD0029862
:100C4000B3E6A06900282CD054480068FF21013188
:100C5000084352490860FFF7B5FC054606E0FFF778
:100C6000B1FC401B022801D903209EE64B480068D6
:100C7000012149020840400A0028F0D04748406856
:100C8000072149038843216A0843444948600846CC
:100C900040680002000A217F090608433F49486076
:100CA00019E03E480068FF21013188433B49086054
:100CB000FFF788FC054606E0FFF784FC401B02288E
:100CC00001D9032071E63548006801214902084036
:100CD000400A0028F0D1082120680840082839D1AE
:100CE000606900281BD02D4840300069012108436D
:100CF0002A4940310861FFF765FC054606E0FFF729
:100D000061FC401B022801D903204EE623484030F5
:100D100000690221084040080028F0D01AE01F486E
:100D200040300069400840001C4940310861FFF72D
:100D300049FC054606E0FFF745FC401B022801D9A7
:100D4000032032E61548403000690221084040087F
:100D50000028F0D104212068084004287BD100201D
:100D600000900E48806B89060840002806D10B4889
:100D7000806B084309498863012000900B48006894
:100D8000FF2101310840002820D1084800680843AD
:100D900006490860FFF716FC054610E00010024007
:100DA000541200080C0000200400002000700040D5
:100DB000FFF708FC401B642801D90320F5E58748AC
:100DC0000068FF21013108400028F1D000BFFF2159
:100DD0000131A068884205D18148006908438049F3
:100DE000086130E0A06800280DD17D480069FF212E
:100DF000013188437A49086108460069091588432A
:100E0000774908611FE005210902A06888420DD1D9
:100E10007348006901218902084371490861084645
:100E20000069891508436E4908610CE06C48006947
:100E3000FF21013188436A490861084600690915A4
:100E400088436749086100BFA068002815D0FFF7F4
:100E5000B9FB054608E031E0FFF7B4FB401B6149F0
:100E6000884201D90320A0E55D48006901214902BB
:100E70000840400A0028EFD013E0FFF7A3FB054627
:100E800007E0FFF79FFB401B5649884201D903202A
:100E90008BE553480069012149020840400A0028B7
:100EA000EFD10098012808D14D484038806B0121CE
:100EB000090788434A494039886300BF606A0028AF
:100EC0004CD00C2F69D0606A022848D14448403881
:100ED0000068012109068843414940390860FFF74D
:100EE00071FB054606E0FFF76DFB401B022801D9A8
:100EF00003205AE53A484038006801214906084075
:100F0000400E0028EFD1E16AA06A0843216B084334
:100F100033494039C968FD221204914308433049DE
:100F20004039C860084600680121090608432C4979
:100F300040390860FFF746FB054606E0FFF742FB35
:100F4000401B022801D903202FE5254840380068BE
:100F5000012149060840400E0028EFD03CE020481F
:100F6000403800680121090688431D49403908605E
:100F7000FFF728FB054606E0FFF724FB401B02288D
:100F800001D9032011E516484038006801214906BF
:100F90000840400E0028EFD11EE0606A012800D111
:100FA00003E50F484038C068019001210904019809
:100FB0000840A16A88420DD10F2189040198084098
:100FC000E16A884206D10321890501980840216B16
:100FD000884201D00120E8E40020E6E400700040EF
:100FE000401002408813000070B504462546681E74
:100FF0000949884201D901200CE0681E074948616F
:101000000321081F00F0C8F8002004498861072068
:101010000861002070BD0000FFFFFF0000E000E05D
:1010200000BFFEE700B587B0142102A8FFF7F2F871
:1010300000BF3548C06A042108433349C8620846E6
:10104000C06A04210840019000BF00BF00BF2E48C5
:10105000C06A012108432C49C8620846C06AC0071B
:10106000C00F019000BF00BF002201218903274863
:10107000FFF7A2FA0122D1032448FFF79DFA0022CC
:10108000122105200007FFF797FA01208003029044
:101090000120039004900020059002A91B48FFF74F
:1010A000A1F90120C00302901120039001200490B7
:1010B0000020059002A91548FFF794F9022002903C
:1010C00001200390022004900020059002A9052031
:1010D0000007FFF787F910200290012003900020FD
:1010E0000490059002A905200007FFF77BF90D2069
:1010F000C001029000200390049002A9052000077F
:10110000FFF770F907B000BD001002400008005062
:1011100000BFFEE77047704710B5FFF759FA10BDE2
:1011200000B593B0342106A8FFF774F8142101A884
:10113000FFF770F8164800680321C90288430121AF
:10114000C9024018124908601020069001200C9036
:1011500000200D90032080030E9000200F9006A821
:10116000FFF71EFC002801D0FFF739F90F2001908E
:1011700000200290039004900590002101A8FFF741
:101180008DFA002801D0FFF72AF913B000BD000046
:10119000007000407047000010B5002819DB1A4AA3
:1011A00003231B02D21883089B00D2588307DC0E4E
:1011B000FF23A3409A438B071B0E8407E40EA34032
:1011C0001A43114B032424021B198408A4001A514A
:1011D00018E00E4A03071B0F083B9B089B00D258E0
:1011E0008307DC0EFF23A3409A438B071B0E840763
:1011F000E40EA3401A43054B0407240F083CA4083F
:10120000A4001A5110BD000000E100E01CED00E058
:1012100008B500200090012291030D48FFF7CCF99A
:10122000FFF7E2F9FFF77CFFFFF7FCFE0EE06846F0
:101230000078012805D10022C1030548FFF7BCF959
:1012400004E00122D1030248FFF7B6F9EFE70000FE
:10125000000800500000000000000000010203042C
:101260000607080900000000010203040304060841
:101270000C10182030000000981200080000002018
:101280001000000004010008A8120008100000204F
:1012900060060000200100080000000004000000BB
:0812A000010000000000200025
:04000005080000C12E
:00000001FF
