:020000040800F2
:1000000088670020E5020008D99700085D7F000896
:10001000D597000891080008E1E9000800000000F9
:10002000000000000000000000000000CDA3000858
:10003000350B000800000000999E00085DA4000830
:10004000FF020008FF020008FF020008FF0200088C
:10005000FF020008FF020008390B0008590B0008D6
:10006000FF020008FF020008650B00086509000890
:10007000750900088509000895090008A509000808
:10008000B509000800000000950500088DE800088B
:100090009DE80008FF020008FF020008FF020008B8
:1000A000FF020008FF020008FF020008FF0200082C
:1000B00015A50008FF020008FF020008FF02000863
:1000C000FF020008617F0008FF02000879A0000815
:1000D000FF020008FF020008FF02000819B3000831
:1000E000450B0008FF020008FF020008FF0200089D
:1000F000FF020008FF020008FF02000800000000E5
:1001000000000000FF0200080000000089A00008B5
:10011000FF02000800000000FF020008FF020008C4
:10012000C5090008D5090008E5090008FF02000814
:10013000F50900080000000000000000FF020008B0
:10014000FF020008FF02000800000000000000009D
:10015000000000000000000000000000000000009F
:10016000000000000000000000000000FF02000886
:10017000FF02000800000000000000000000000076
:1001800000000000FF020008000000000000000066
:10019000000000000000000000000000000000005F
:1001A0000000000000000000FF020008FD8D0008B4
:1001B000717F0008FF020008FF0200080000000035
:1001C00000000000050A0008000000000000000018
:1001D000FF020008FF02000800F002F800F072F8C9
:1001E00014A696E8000CB244B344DA4501D100F0FD
:1001F00069F8BAE80F000FA696E83000A5EB0405F1
:1002000004EB0607AAEB0704A7F101074FEA15154F
:100210004FEA3414A4F10104AC4201D300F052F8C7
:1002200013F0010F18BFFB1A43F0010300F001F8AF
:10023000DBE7184750040100700401000A444FF046
:10024000000C10F8013B13F0070408BF10F8014B35
:100250001D1108BF10F8015B641E05D010F8016B7A
:10026000641E01F8016BF9D113F0080F1EBF10F8DE
:10027000014BAD1C0C1B09D16D1E58BF01F801CB01
:10028000FAD505E014F8016B01F8016B6D1EF9D584
:100290009142D6D37047000070470000002300242D
:1002A00000250026103A28BF78C1FBD8520728BF86
:1002B00030C148BF0B6070471FB50FF04AFC1FBD2F
:1002C00010B510BD00F02CF91146FFF7F5FF0EF048
:1002D00063FD00F04AF903B4FFF7F2FF03BC00F03E
:1002E00051F900000948804709480047FEE7FEE74A
:1002F000FEE7FEE7FEE7FEE7FEE7FEE7FEE7FEE7D6
:1003000004480549054A064B7047000001A500084E
:10031000D90100088837002088670020885700200E
:100320008857002053EA020C00F069802DE9F04B59
:100330004FF00006002B1FBFB3FA83F503FA05F454
:1003400024FA05F65E4012BF1643B2FA82F502FAAD
:1003500005F4C5F120051EBF22FA05FC44EA0C0491
:10036000203556EA044C4FEA144418BF641C4FF081
:1003700000084FF00009904271EB030C39D30029BB
:1003800019BFB1FA81F701FA07F6B0FA80F700FA5F
:1003900007F6C7F120071EBF20FA07FC46EA0C0645
:1003A0002037B6FBF4FCA7EB0507103F07F01F0B47
:1003B000CBF120062CFA06F60CFA0BFB44BFB34631
:1003C0000026202FA4BF5E464FF0000B5BEA060C10
:1003D00008BF4FF0010B19EB0B0948EB0608ABFB0C
:1003E000027C06FB02CC0BFB03CCC01B71EB0C01A7
:1003F000C1E70B46024641464846BDE8F08B13B5BF
:10040000084318BF4FF0FF300146AFF30080BDE84E
:100410001C40704710B5203AC0F00B80B1E818506E
:10042000A0E81850B1E81850A0E81850203ABFF4DE
:10043000F5AF5FEA027C24BFB1E81850A0E818507D
:1004400044BF18C918C0BDE810405FEA827C24BFD1
:1004500051F8043B40F8043B08BF7047D20728BF5F
:1004600031F8023B48BF11F8012B28BF20F8023BAE
:1004700048BF00F8012B704702F0FF0343EA032254
:1004800042EA024200F02CB84FF0000200B51346D9
:1004900094469646203922BFA0E80C50A0E80C50A4
:1004A000B1F12001BFF4F7AF090728BFA0E80C5055
:1004B00048BF0CC05DF804EB890028BF40F8042B4E
:1004C00008BF704748BF20F8022B11F0804F18BFBB
:1004D00000F8012B70477047704770474FF00002DB
:1004E0000429C0F0128010F0030C3FF4CFAFCCF120
:1004F000040CBCF1020F18BF00F8012BA8BF20F8B4
:10050000022BA1EB0C01FFF7C1BF5FEAC17C24BF46
:1005100000F8012B00F8012B48BF00F8012B7047B1
:10052000754600F02BF8AE4605006946534620F0AC
:100530000700854618B020B5FFF7E2FEBDE8204071
:100540004FF000064FF000074FF000084FF0000B8F
:10055000AC46ACE8C009ACE8C009ACE8C009ACE8FE
:10056000C00921F007018D46704710B50446AFF36E
:1005700000802046BDE81040FFF7ADBE0048704740
:100580008801002001491820ABBEFEE726000200CA
:100590007047000080B541F29410C2F2000001F0F3
:1005A00057F980BD80B582B001900198806A0090B3
:1005B0000098C06D10F0500F4BD1FFE70099C86D47
:1005C00040F40070C86500980068006800070028C3
:1005D00021D5FFE70098006808F00AFBD0B1FFE7DB
:1005E00000980068C0688004002812D4FFE70099D2
:1005F000C86D20F48070C8650098C06DC0040028E4
:1006000006D4FFE70099C86D40F00100C865FFE718
:10061000FFE7FFE719E000980068C068800700283E
:1006200012D4FFE70099C86D20F48070C865009867
:10063000C06DC004002806D4FFE70099C86D40F0E3
:100640000100C865FFE7FFE7FFE7009800F0FCFF47
:1006500010E00098C06DC006002804D5FFE70098A0
:1006600001F0F2F805E00098406D416B0198884771
:10067000FFE7FFE702B080BD80B582B0019001982E
:10068000806A00900099C86D40F04000C8650099EC
:10069000086E40F004000866009801F0D5F802B03A
:1006A00080BD000080B582B001900198806A009002
:1006B000009801F0C5F802B080BD000080B584B09C
:1006C00002900298006808F063FA009002980068AF
:1006D00008F066FA00284BD0FFE70098002847D1C1
:1006E000FFE702980068806800F00D00012809D13A
:1006F000FFE70298006808F0C7F902980168032034
:1007000008600DE00299C86D40F01000C8650299BC
:10071000086E40F00100086601208DF80F002BE004
:1007200002F078FA0190FFE7029800688068C0073D
:10073000E8B1FFE702F06EFA0199401A032815D3D9
:10074000FFE7029800688068C00770B1FFE7029970
:10075000C86D40F01000C8650299086E40F00100B5
:10076000086601208DF80F0006E0FFE7DCE7FFE7F1
:1007700000208DF80F00FFE79DF80F0004B080BD4A
:1007800080B584B00290002000900298006808F0C4
:1007900007FA002874D1FFE70298006880683F21BB
:1007A000C8F2000108420ED0FFE70299C86D40F080
:1007B0001000C8650299086E40F00100086601202B
:1007C0008DF80F0060E00298006808F077F940F2B9
:1007D0000030C5F2000008F08FF9000200281CD597
:1007E000FFE740F22400C2F200000068800942F6F0
:1007F0006351C0F23E51A0FB0110800900EB4001A3
:100800000C2000EB81000090FFE7009820B1FFE78B
:10081000009801380090F8E7FFE702F0FBF901903B
:10082000FFE7029800680068C00740BBFFE7029836
:10083000006808F0B5F928B9FFE70298006808F0E9
:100840003DF9FFE702F0E6F90199401A032815D3B4
:10085000FFE7029800680068C00770B9FFE70299D7
:10086000C86D40F01000C8650299086E40F00100A4
:10087000086601208DF80F0006E0FFE7D1E7FFE7EB
:1008800000208DF80F00FFE79DF80F0004B080BD39
:10089000FFE7FEE784B08DF80F000291ADF8062067
:1008A0009DF80F000146009123281DD80099DFE82C
:1008B00001F012131415161B1B1B1B1B1B1B1B1BF0
:1008C0001B1B1B1B1B1B1B1B1B1B1B1B1B1B1B1B78
:1008D0001B1B1718191A08E007E006E005E004E002
:1008E00003E002E001E000E0FFE7002004B0704711
:1008F0000020704780B582B040F6C460C2F20000AC
:10090000009040F67821C2F20001002201920AF024
:10091000D1FF009840F27861C2F200010AF0B0FF06
:10092000019802B080BD000080B584B003900291B0
:10093000039940F6C460C2F2000001900AF0A0FFE3
:1009400001980AF047FF002004B080BD83B00290F8
:1009500001918DF8032000208DF802009DF902001E
:1009600003B0704780B541F26020C2F2000001F090
:1009700059FD80BD80B541F2C020C2F2000001F0F7
:1009800051FD80BD80B541F22030C2F2000001F07F
:1009900049FD80BD80B541F28030C2F2000001F017
:1009A00041FD80BD80B541F2A040C2F2000001F0DF
:1009B00039FD80BD80B541F20050C2F2000001F067
:1009C00031FD80BD80B541F26050C2F2000001F0FF
:1009D00029FD80BD80B541F2C050C2F2000001F097
:1009E00021FD80BD80B541F20020C2F2000001F07F
:1009F00019FD80BD80B541F2E030C2F2000001F087
:100A000011FD80BD80B541F24040C2F2000001F00E
:100A100009FD80BD84B003900398006840F207414F
:100A2000C4F20201884206D8FFE740F60000C4F293
:100A30000200009005E040F62000C4F202000090A1
:100A4000FFE7009802900398007808384CF6CD41F3
:100A5000CCF6CC41A0FB011000090190029803994B
:100A60004A6C22F0030210448864039940F6800027
:100A7000C4F20200C864019800F01F010120884000
:100A80000399086504B0704782B00190019800791D
:100A90000090009940F6FC00C4F2020000EB8100D7
:100AA00001994865019940F64010C4F2020088653A
:100AB0000098013800F01F01012088400199C865A5
:100AC00002B0704784B003900291019200930398A2
:100AD000C16C006D48600398406D28B1FFE7039832
:100AE000816DC06D4860FFE70398016C406C00F0B9
:100AF0001F020120904048600098039909684860EF
:100B000003988068102809D1FFE7019803990968C4
:100B10008860029803990968C86008E00298039900
:100B200009688860019803990968C860FFE704B004
:100B3000704700007047000080B5012001F070FE92
:100B400080BD000080B54FF4805001F069FE4FF485
:100B5000005001F065FE80BD80B5022001F060FE0E
:100B600080BD000080B5102001F05AFE80BD00005D
:100B700081B0EFF3108072B60090FFE7FEE700004F
:100B800080B584B047F29050C1F6FF7000680390C2
:100B900047F29450C1F6FF700068029047F29850F7
:100BA000C1F6FF7000680190019903980844039012
:100BB000039888B1FFE7039840F26411C2F2000184
:100BC00000910231082207F0E3FC009902981231EB
:100BD000042207F0DDFCFFE704B080BD80B586B0DD
:100BE0000490039100200190FFE7049890F85800CA
:100BF000012804D1FFE702208DF817005AE004997C
:100C0000012081F85800FFE7FFE70498FFF756FD41
:100C10008DF80B009DF80B00D8BBFFE70498C06D62
:100C200040F0020020F488500499C86504980068D8
:100C3000039908F0CFF8FFE70498006807F098FFE1
:100C4000F0B1FFE701980130019001984DF6026183
:100C5000C0F20401884212D3FFE70498C06D40F04F
:100C6000100020F002000499C865FFE704990020F5
:100C700081F85800FFE701208DF817001AE0DBE744
:100C80000498C06D40F0010020F002000499C8658E
:100C900005E00499C86D40F01000C865FFE7FFE764
:100CA0000499002081F85800FFE79DF80B008DF8AB
:100CB0001700FFE79DF8170006B080BD81B00090D7
:100CC00001B0704781B0009001B0704781B00090D2
:100CD00001B0704781B0009001B0704781B00090C2
:100CE00001B0704780B5A4B02290219100208DF80A
:100CF00083002198006808B1FFE7FFE7FFE722982B
:100D000090F85800012804D1FFE702208DF88F00E9
:100D10009FE02299012081F85800FFE7FFE70020BB
:100D20001B901C9022980068B0F1A04F06D1FFE7FD
:100D300040F20010C5F20000049002E00020049090
:100D4000FFE7049878B9FFE72299C86D40F02000CA
:100D5000C865FFE72299002081F85800FFE70120CD
:100D60008DF88F0075E0049807F03AFF0390229801
:100D7000006807F035FF002857D1FFE703980028E7
:100D800053D1FFE740F20030C5F200001F902198D8
:100D9000006860B3FFE71F98806820F460402199E5
:100DA0004968229A92F8382041EA423108431F9953
:100DB00088604FF0A04007F0FBFE029040F2001068
:100DC000C5F2000007F0F4FE01460298084368B936
:100DD000FFE71F98806840F61F718843219A1168C9
:100DE0009268114308431F998860FFE71CE01F9930
:100DF000886820F4604088604FF0A04007F0D8FE7B
:100E0000019040F20010C5F2000007F0D1FE01464B
:100E10000198084338B9FFE71F99886840F61F72A8
:100E200090438860FFE7FFE708E02299C86D40F033
:100E30002000C86501208DF88300FFE7FFE72299B5
:100E4000002081F85800FFE79DF883008DF88F009F
:100E5000FFE79DF88F0024B080BD000080B5C0B0D2
:100E600020901F9100208DF87B001B901F98C06878
:100E70000021C4F27F01884201D0FFE700E0FFE7D4
:100E8000FFE7209890F85800012804D1FFE70220DE
:100E90008DF88700D2E32099012081F85800FFE700
:100EA000FFE72098006807F093FE002840F0B28327
:100EB000FFE7209800681F990A68496807F0A4FEB8
:100EC0002098006807F084FE1A902098006807F0C8
:100ED0003BFE19901A98002840F0B881FFE7199856
:100EE000002840F0B381FFE71F988068B0F1004F01
:100EF0000ED1FFE7209800681F990968002207F0CB
:100F0000AFFE209800684FF0004107F055FF0CE05D
:100F1000209800681F9A1168926807F0A1FE209837
:100F20000068002107F048FFFFE71F9840692099FB
:100F30000968C96801F01801890888401D901F9848
:100F4000006904281CD0FFE7209800681F990A68F0
:100F500009691D9B07F0D6FE209800681F9A116949
:100F6000926907F001FF209800681F9A1169127FAB
:100F7000013AB2FA82F25209520607F0E1FE64E148
:100F800020980068002107F0CFFD400348B9FFE733
:100F900020980068002107F0C7FDC0F38460189016
:100FA00018E020980068002107F0BEFD90FAA0F03C
:100FB0003E903E9820B9FFE720208DF8FF0005E025
:100FC0003E98B0FA80F08DF8FF00FFE79DF8FF0033
:100FD0001890FFE7189817901F980068400330B9E1
:100FE000FFE71F980068C0F38460169015E01F9813
:100FF000006890FAA0F03C903C9820B9FFE72020D0
:101000008DF8F70005E03C98B0FA80F08DF8F70015
:10101000FFE79DF8F7001690FFE7179816998842AA
:1010200007D1FFE7209800680022114607F0B0FEC4
:10103000FFE720980068012107F076FD400348B9DA
:10104000FFE720980068012107F06EFDC0F384607F
:10105000159018E020980068012107F065FD90FACE
:10106000A0F03A903A9820B9FFE720208DF8EF00E1
:1010700005E03A98B0FA80F08DF8EF00FFE79DF8B0
:10108000EF001590FFE7159814901F980068400333
:1010900030B9FFE71F980068C0F38460139015E033
:1010A0001F98006890FAA0F03890389820B9FFE7B0
:1010B00020208DF8E70005E03898B0FA80F08DF830
:1010C000E700FFE79DF8E7001390FFE714981399F6
:1010D000884207D1FFE7209800680121002207F02D
:1010E00057FEFFE720980068022107F01DFD40032E
:1010F00048B9FFE720980068022107F015FDC0F30A
:101100008460129018E020980068022107F00CFD1E
:1011100090FAA0F03690369820B9FFE720208DF89D
:10112000DF0005E03698B0FA80F08DF8DF00FFE7C9
:101130009DF8DF001290FFE7129811901F98006849
:10114000400330B9FFE71F980068C0F38460109037
:1011500015E01F98006890FAA0F03490349820B9F8
:10116000FFE720208DF8D70005E03498B0FA80F032
:101170008DF8D700FFE79DF8D7001090FFE7119892
:101180001099884207D1FFE72098006802210022C9
:1011900007F0FEFDFFE720980068032107F0C4FC7C
:1011A000400348B9FFE720980068032107F0BCFC22
:1011B000C0F384600F9018E020980068032107F0C6
:1011C000B3FC90FAA0F03290329820B9FFE72020CB
:1011D0008DF8CF0005E03298B0FA80F08DF8CF009E
:1011E000FFE79DF8CF000F90FFE70F980E901F9834
:1011F0000068400330B9FFE71F980068C0F38460BF
:101200000D9015E01F98006890FAA0F0309030988B
:1012100020B9FFE720208DF8C70005E03098B0FA2C
:1012200080F08DF8C700FFE79DF8C7000D90FFE73D
:101230000E980D99884207D1FFE720980068032196
:10124000002207F0A5FDFFE7FFE7FFE72098006811
:1012500007F0A6FC002840F04481FFE720980068D2
:101260001F9A1168D26807F017FD1F98C068002107
:10127000C4F27F01884240F03381FFE72098006884
:101280000C901F980068400330B9FFE71F98006872
:10129000C0F384600B9015E01F98006890FAA0F0EE
:1012A0002E902E9820B9FFE720208DF8BF0005E092
:1012B0002E98B0FA80F08DF8BF00FFE79DF8BF00D0
:1012C0000B90FFE70B98013000F01F0009287DD834
:1012D000FFE71F980068400330B9FFE71F980068D8
:1012E000C0F384600A9015E01F98006890FAA0F09F
:1012F0002C902C9820B9FFE720208DF8B70005E04E
:101300002C98B0FA80F08DF8B700FFE79DF8B70091
:101310000A90FFE70A98013000F01F00800609904C
:101320001F980068400330B9FFE71F980068C0F3BA
:101330008460089015E01F98006890FAA0F02A9049
:101340002A9820B9FFE720208DF8AF0005E02A9801
:10135000B0FA80F08DF8AF00FFE79DF8AF0008907D
:10136000FFE709980899013101F01F02012191401E
:10137000084307901F980068400330B9FFE71F98A3
:101380000068C0F38460069015E01F98006890FA2A
:10139000A0F02890289820B9FFE720208DF8A7001A
:1013A00005E02898B0FA80F08DF8A700FFE79DF8D7
:1013B000A7000690FFE707980699013101F01F0189
:1013C00001EB410140EA0150059082E01F9800685E
:1013D000400330B9FFE71F980068C0F384600490B1
:1013E00015E01F98006890FAA0F02690269820B982
:1013F000FFE720208DF89F0005E02698B0FA80F0E6
:101400008DF89F00FFE79DF89F000490FFE7049888
:10141000013000F01F00800603901F980068400311
:1014200030B9FFE71F980068C0F38460029015E0B0
:101430001F98006890FAA0F02490249820B9FFE744
:1014400020208DF8970005E02498B0FA80F08DF800
:101450009700FFE79DF897000290FFE70398029935
:10146000013101F01F0201219140084301901F98B2
:101470000068400330B9FFE71F980068C0F384603C
:10148000009015E01F98006890FAA0F02290229832
:1014900020B9FFE720208DF88F0005E02298B0FAF0
:1014A00080F08DF88F00FFE79DF88F000090FFE738
:1014B00001990098013000F01F0000EB400200206D
:1014C000CFF6206000EB0250084340F0007005901A
:1014D000FFE70C9805991F9A926807F0C1FBFFE798
:1014E000FFE71F98408848F20801084200F0918009
:1014F000FFE740F20030C5F2000007F0FDFA1C9053
:101500001F9800680021CCF22131884208D0FFE703
:101510001F9800681021C9F2C001884232D1FFE74C
:101520009DF87200000600282CD4FFE72098006880
:10153000B0F1A04F25D1FFE71C9840F4000140F224
:101540000030C5F2000007F0CFFB40F22400C2F2E9
:1015500000000068800942F66351C0F23E51A0FBD2
:101560000110800900EB40010C2000EB81001B9072
:10157000FFE71B9820B1FFE71B9801381B90F8E7A5
:10158000FFE745E01F9800680021CCF252718842C5
:1015900019D1FFE79DF87300C007A0B9FFE72098B5
:1015A000006840F20011C5F2000188420AD0FFE74E
:1015B0001C9840F0807140F20030C5F2000007F046
:1015C00093FBFFE723E01F9800680021CCF68431ED
:1015D00088421AD1FFE79DF872004006002814D413
:1015E000FFE72098006840F20011C5F20001884230
:1015F0000AD0FFE71C9840F4800140F20030C5F2A9
:10160000000007F071FBFFE700E0FFE7FFE7FFE7FF
:10161000FFE708E02099C86D40F02000C865012070
:101620008DF87B00FFE7FFE72099002081F8580044
:10163000FFE79DF87B008DF88700FFE79DF88700A6
:1016400040B080BD0000000080B590B00F9047F220
:10165000AA50C1F6FF70008800EE100AB8EEC00A6A
:10166000B0EE081A20EE010A40F67A60C2F20000DD
:10167000808801EE100AB8EEC11A80EE010A8DEDE5
:101680000E0A47F2A850C1F6FF70008800EB400038
:1016900000EE100AB8EEC00A9DED0E1A80EE010AA7
:1016A0008DED0D0A47F2CA50C1F6FF70008800EBBD
:1016B000400000EE100AB8EEC00A9DED0E1A80EE52
:1016C000010A8DED0C0A0F9841F29411C2F200014B
:1016D000884240F0A480FFE740F67861C2F2000142
:1016E0000020087040F67A60C2F200000390008883
:1016F0006FF31F300DF0B8FF41EC100B8DED000BB8
:101700000E980EF0B5F99DED000B41EC110B53EC6A
:10171000112B51EC100B0DF0BFFF41EC100B51ECF5
:10172000100B9FED410B53EC102B0DF041FE41ECE3
:10173000100B53EC102B104619460DF091FD02468C
:10174000039804920A46049942EC101B40F2E811F7
:10175000C2F20001099181ED000B40886FF31F3048
:1017600000EE100AB8EEC00A9DED0D1A8DED051AB7
:1017700030EE410A10EE100A0EF07AF941EC100B2F
:1017800051EC100B9FED2A0B53EC102B0DF084FF46
:101790009DED051A41EC100B8DED060B9DED0C0A2D
:1017A00030EE410A10EE100A0EF062F99DED060BC4
:1017B00041EC110B53EC112B51EC100B0DF0F8FD1B
:1017C00041EC100B51EC100B9FED1B0B53EC102B4D
:1017D0000DF046FD024609980A920A460A9942EC23
:1017E000101B41F61851C2F2000181ED000B90ED83
:1017F000000B51EC100B0DF001FD00EE100A40F64D
:101800009C60C2F200000B900DF076FA0B9840F647
:10181000A461C2F20001886101200873FFE710B0E3
:1018200080BD00BF00BF00BF0000000000FEAF4051
:1018300000000000000059400000000000003E4091
:1018400081B0009001B0704781B0009001B0704746
:1018500080B58EB00D9000200C900D980068006847
:101860000B900D98006840680A9040F20030C5F275
:10187000000007F051F905909DF82C008007002822
:101880001AD5FFE79DF828008007002814D5FFE748
:101890000D98C06DC006002806D4FFE70D99C86DED
:1018A00040F40060C865FFE70D98FFF707FA0D9850
:1018B000016802200860FFE79DF82C00400700281F
:1018C00006D5FFE70A9800F0040004280ED0FFE7D1
:1018D0009DF82C000007002840F19B80FFE79DF851
:1018E00028000007002840F19480FFE70D98C06DA4
:1018F000C006002806D4FFE70D99C86D40F40070BB
:10190000C865FFE70D98006807F072F9002878D0E5
:10191000FFE70D98006840F20011C5F2000188420F
:1019200004D1FFE74FF0A040049003E00D98006859
:101930000490FFE704980D99096888420BD0FFE7EF
:10194000059840B1FFE70598052804D0FFE7059802
:10195000092805D1FFE70D980068C068079016E0D8
:101960000D98006840F20011C5F20001884204D1D0
:10197000FFE74FF0A040039003E00D98006803904C
:10198000FFE7039806900698C0680790FFE707985E
:1019900000F40050B0F5005F32D0FFE70D9800680A
:1019A0000068000700282AD5FFE70D98006807F0B7
:1019B0000FF9C0B9FFE70D980168486820F00C00E6
:1019C00048600D99C86D20F48070C8650D98C06D91
:1019D000C004002806D4FFE70D99C86D40F001004F
:1019E000C865FFE70AE00D99C86D40F01000C865B2
:1019F0000D99086E40F001000866FFE7FFE7FFE77A
:101A0000FFE70D98FFF720FE0D9801680C20086095
:101A1000FFE79DF82C008006002806D5FFE70A980E
:101A200000F0200020280ED0FFE79DF82C00400693
:101A3000002840F1B280FFE79DF82800400600280A
:101A400040F1AB80FFE70D98C06DC006002806D4BA
:101A5000FFE70D99C86D40F40050C865FFE70D9889
:101A6000006807F079F809900D98006807F0C0F851
:101A700008900D98006840F20011C5F200018842FC
:101A800004D1FFE74FF0A040029003E00D980068FA
:101A90000290FFE702980D99096888420BD0FFE792
:101AA000059840B1FFE70598062804D0FFE70598A0
:101AB000072805D1FFE70D980068C068079016E079
:101AC0000D98006840F20011C5F20001884204D16F
:101AD000FFE74FF0A040019003E00D9800680190EF
:101AE000FFE7019806900698C0680790FFE70998FD
:101AF00000284AD0FFE79DF81F00800700280AD57C
:101B0000FFE7089800283FD0FFE79DF81D008006FA
:101B1000002839D4FFE70D980068006840060028C7
:101B200031D5FFE79DF81E00800600282AD4FFE784
:101B30000D98006807F008F8C0B9FFE70D98016834
:101B4000486820F0600048600D99C86D20F480500E
:101B5000C8650D98C06DC005002806D4FFE70D9933
:101B6000C86D40F00100C865FFE70AE00D99C86D37
:101B700040F01000C8650D99086E40F0010008663D
:101B8000FFE7FFE7FFE7FFE7FFE70D98FFF79AF8AA
:101B90000D98016860200860FFE79DF82C000006A2
:101BA000002813D5FFE79DF82800000600280DD572
:101BB000FFE70D99C86D40F48030C8650D9800F0BE
:101BC00029FA0D98016880200860FFE79DF82D0034
:101BD000C00798B1FFE79DF82900C00770B1FFE783
:101BE0000D99C86D40F40030C8650D98FFF772F884
:101BF0000D9801684FF480700860FFE79DF82D0094
:101C00008007002814D5FFE79DF8290080070028E9
:101C10000ED5FFE70D99C86D40F48020C8650D987A
:101C2000FFF75CF80D9801684FF400700860FFE75B
:101C30009DF82C00C00600283ED5FFE79DF828003F
:101C4000C006002838D5FFE70D98C06B18B9FFE72C
:101C500001200C9019E0059860B1FFE740F20030D8
:101C6000C5F2000006F050FF18B1FFE701200C900C
:101C7000FFE709E00D980068C068C00718B1FFE7EA
:101C800001200C90FFE7FFE7FFE70C9801280ED139
:101C9000FFE70D99C86D40F48060C8650D99086E26
:101CA00040F0020008660D98FFF7CEFDFFE70D98A3
:101CB000016810200860FFE79DF82D00400700280C
:101CC00019D5FFE79DF829004007002813D5FFE745
:101CD0000D99C86D40F48040C8650D99086E40F0BC
:101CE000080008660D9801684FF4806008600D9840
:101CF000FEF7ECFFFFE70EB080BD000080B588B0B6
:101D0000069000208DF817000190069820B9FFE793
:101D100001208DF81F0079E10698406940B1FFE786
:101D2000069890F82400012801D1FFE7FFE7FFE7BC
:101D30000698C06D50B9FFE7069800F06FF9069954
:101D400000200866069981F85800FFE706980068A9
:101D500006F016FF28B1FFE70698006806F0A2FE1D
:101D6000FFE70698006806F02BFFF0B9FFE706983A
:101D7000006806F0B1FE40F22400C2F200000068E4
:101D8000800942F66351C0F23E51A0FB0110810967
:101D9000022000EB41000190FFE7019820B1FFE72E
:101DA000019801380190F8E7FFE70698006806F00F
:101DB00007FF70B9FFE70699C86D40F01000C865CD
:101DC0000699086E40F00100086601208DF81700A2
:101DD000FFE70698006806F0FBFE03900698C06DCA
:101DE000C006002800F10481FFE70398002840F0B6
:101DF000FF80FFE70698C06D40F0020020F480707D
:101E00000699C8650698006806F0CAFED0B9FFE7D3
:101E10004FF0A04006F0C4FE009040F20010C5F262
:101E2000000006F0BDFE01460098084348B9FFE7F0
:101E30000698416840F20030C5F2000006F046FF07
:101E4000FFE7FFE706994A7FC86B40EA42308A689D
:101E5000CB681843104391F8241040EA01400490E5
:101E6000069890F8240001280BD1FFE70698816AB4
:101E70000020CFF6FE7000EB414104980843049027
:101E8000FFE70698C06A50B1FFE70699C86A096B78
:101E900000F478700143049808430490FFE7069823
:101EA0000068C06844F20701CFF6F0710840049959
:101EB000084306990968C86006980068006920F020
:101EC0004060069A1168526B1043086106980068DA
:101ED00006F03AFE02900398002868D1FFE70298C6
:101EE000002864D1FFE70699087F91F83810800335
:101EF00040EA4100049006980068C06844F202017C
:101F000088430499084306990968C86006980069DF
:101F1000A0B1FFE706980168086940F480300861C5
:101F200006980068D0F8C00043F6FF718843069A0F
:101F3000116812691043C1F8C00011E006980168E9
:101F4000086920F48030086106980068D0F8C00065
:101F500043F6FF71884306990968C1F8C000FFE79E
:101F6000069890F84000012819D1FFE7069800680C
:101F7000006940F2FD7120EA0102069B1968586C65
:101F8000D3F848E0D3F84CC040EA0E0040EA0C0019
:101F90001B6D1843104340F00100086106E00698ED
:101FA0000168086920F001000861FFE7FFE7069873
:101FB000406901280CD1FFE706980068006B20F00B
:101FC0000F00069A1168126A013A1043086306E08E
:101FD00006980168086B20F00F000863FFE7069879
:101FE000C06D40F0010020F002000699C86508E0CD
:101FF0000699C86D40F01000C86501208DF81700E3
:10200000FFE79DF817008DF81F00FFE79DF81F0000
:1020100008B080BD81B0009001B0704780B59CB021
:102020001B9000201A90199018901790169005A8F0
:102030004421FEF729FA1B980068B0F1A04F70D137
:10204000FFE74FF4004005904FF00050149005A8B2
:1020500002F0B4FE18B1FFE7FEF78AFDFFE7FFE7E5
:1020600041F24C00C4F20200016841F400510160E9
:10207000006800F4005004900498FFE7FFE741F285
:102080004C00C4F20200016841F0020101600068E6
:1020900000F0020003900398FFE701201690032050
:1020A000179000200190189040F20040C4F6000004
:1020B00016A900F0D1FB019941F20020C2F2000004
:1020C000029040F23042C4F20202026005224260F5
:1020D0008160C160802202614FF4807242614FF4DE
:1020E00080628261C1614FF40051016200F046FAE2
:1020F00018B1FFE7FEF73CFDFFE7FFE71B9841F251
:102100000021C2F2000141651B988862FFE712209E
:1021100000900022114601F0D7FA009801F0CAFAA7
:10212000FFE71CB080BD000080B588B00690059127
:10213000049240F20030C5F2000006F0EDFC02907F
:102140000698006806F044FD002840F0AE80FFE7E6
:10215000FFE7069890F85800012804D1FFE7022015
:102160008DF81F00AAE00699012081F85800FFE7CA
:10217000FFE7029848B1FFE70298052805D0FFE77E
:102180000298092840F08680FFE70698FEF7F8FAE3
:102190008DF80F009DF80F00002873D1FFE7069817
:1021A000C06D40F4807040F6016188430699C865AF
:1021B0000698006840F20011C5F20001884204D17F
:1021C000FFE74FF0A040019003E0069800680190FF
:1021D000FFE7019806990968884203D0FFE7029853
:1021E00030B9FFE70699C86D20F48010C865FFE795
:1021F0000698C06DC004002806D5FFE70699086E52
:1022000020F00600086603E0069900200866FFE754
:102210000698416D40F2A550C0F60000C8620698CD
:10222000416D40F2A560C0F6000008630698416D5C
:1022300040F27960C0F600004863069801681C20EF
:102240000860FFE70699002081F85800FFE706982C
:102250000168486840F01000486006980168C86846
:1022600040F00100C86006980168406D4031059A51
:10227000049B00F02FFA8DF80F000698006806F016
:10228000E1FC06E0FFE70699002081F85800FFE72F
:10229000FFE709E001208DF80F00FFE70699002015
:1022A00081F85800FFE7FFE703E002208DF80F00F8
:1022B000FFE79DF80F008DF81F00FFE79DF81F0056
:1022C00008B080BD82B0019000208DF80300019815
:1022D00090F82500022807D0FFE701990420C86381
:1022E00001208DF803002DE001980168086820F0B6
:1022F0000E0008600198816C086820F48070086006
:1023000001980168086820F0010008600198016CDC
:10231000406C00F01F020120904048600198C16CA1
:10232000006D48600198406D58B1FFE70198416D1C
:10233000086820F4807008600198816DC06D486065
:10234000FFE7FFE70199012081F82500FFE70199E8
:10235000002081F82400FFE79DF8030002B07047D9
:1023600080B582B0019000208DF80300019890F8AC
:102370002500022811D0FFE701990420C8630199C4
:10238000012081F82500FFE70199002081F8240051
:10239000FFE701208DF803003FE00198016808681D
:1023A00020F00E00086001980168086820F0010024
:1023B00008600198816C086820F4807008600198BA
:1023C000016C406C00F01F020120904048600198B1
:1023D000C16C006D48600198406D58B1FFE70198ED
:1023E000416D086820F4807008600198816DC06DAF
:1023F0004860FFE70199012081F82500FFE7019976
:10240000002081F82400FFE70198806B20B1FFE7EE
:102410000198816B8847FFE7FFE79DF8030002B052
:1024200080BD000080B584B003900398006C006804
:102430000290039800680068019002980399496C23
:1024400001F01F01C8404007002825D5FFE79DF88F
:102450000400400700281FD5FFE7039800680068C4
:102460008006002807D4FFE703980168086820F079
:1024700004000860FFE70398016C406C00F01F0245
:102480000420904048600398006B20B1FFE7039858
:10249000016B8847FFE76EE002980399496C01F0F1
:1024A0001F01C840800700282FD5FFE79DF80400D2
:1024B0008007002829D5FFE7039800680068800698
:1024C00000280BD4FFE703980168086820F00A0091
:1024D00008600399012081F82500FFE70398016C4B
:1024E000406C00F01F02022090404860FFE7039913
:1024F000002081F82400FFE70398C06A20B1FFE7BD
:102500000398C16A8847FFE734E002980399496C51
:1025100001F01F01C8400007002829D5FFE79DF8FA
:1025200004000007002823D5FFE703980168086826
:1025300020F00E0008600398026C406C00F01F0150
:10254000012000FA01F151600399C863039981F8F1
:102550002500FFE70399002081F82400FFE7039896
:10256000406B20B1FFE70398416B8847FFE700E02D
:10257000FFE7FFE7FFE704B080BD000080B584B04F
:102580000290029820B9FFE701208DF80F009CE02F
:102590000298006840F20741C4F20201884218D84C
:1025A000FFE7029908684FF6F872CBF6FD72104407
:1025B0004CF6CD42CCF6CC42A0FB02026FF00300F9
:1025C00000EA9200486402990020C4F20200086404
:1025D00018E0029908684FF6F832CBF6FD72104405
:1025E0004CF6CD42CCF6CC42A0FB02026FF00300C9
:1025F00000EA92004864029940F20040C4F20200EE
:102600000864FFE70299022081F82500029800681B
:1026100000680190019847F6F07188430190029993
:102620008868D1F80CC00B694A6940EA0C0018436D
:1026300010438A691043CA691043096A014301982B
:102640000843019001980299096808600298FEF712
:10265000E1F902988068B0F5804F04D1FFE7029954
:1026600000204860FFE702990879896C08600298A9
:10267000C16C006D48600298406888B1FFE702981D
:10268000406804280CD8FFE70298FEF7FDF902988D
:10269000416D002008600298816DC06D486007E0C0
:1026A000029900204865029988650299C865FFE78C
:1026B00002990020C863029A012182F8251002992C
:1026C00081F824008DF80F00FFE79DF80F0004B09B
:1026D00080BD000080B586B0049003910292019302
:1026E00000208DF80300FFE7049890F824000128EB
:1026F00004D1FFE702208DF8170065E0049901205E
:1027000081F82400FFE7FFE7049890F825000128EE
:102710004BD1FFE70499022081F82500049900209D
:10272000C86304980168086820F0010008600498F4
:102730000399029A019BFEF7C5F90498006B38B122
:10274000FFE704980168086840F00E0008600CE09C
:1027500004980168086820F0040008600498016883
:10276000086840F00A000860FFE70498806C006881
:10277000C003002807D5FFE70498816C086840F47F
:1027800080700860FFE70498406D38B1FFE7049857
:10279000416D086840F480700860FFE704980168A4
:1027A000086840F00100086009E0FFE70499002094
:1027B00081F82400FFE702208DF80300FFE79DF871
:1027C00003008DF81700FFE79DF8170006B080BDE5
:1027D00080B584B0039000F01DFA02900398019038
:1027E0000198013048B1FFE740F28010C2F20000CA
:1027F0000168019808440190FFE7FFE700F00AFA3A
:102800000299401A0199884201D2FFE7F6E704B025
:1028100080BD000081B0ADF8020001B0704700003B
:1028200080B582B0ADF8060040F21440C4F2010059
:102830000068BDF8061008420CD0FFE7BDF806009E
:1028400040F21441C4F201010860BDF80600FFF730
:10285000E1FFFFE702B080BD8BB00A900991002034
:102860000890FFE7099800680899C840002800F020
:10287000A581FFE709980068089A01219140084066
:1028800007900798002800F09581FFE709984068B5
:1028900000F00300012807D0FFE70998406800F026
:1028A000030002282FD1FFE70A9880680690089855
:1028B0004100032000FA01F1069888430690099828
:1028C000C0680899490000FA01F10698084306908B
:1028D00006980A9988600A9840680690089901202D
:1028E00000FA01F106988843069009984068C0F301
:1028F0000010089900FA01F106980843069006981E
:102900000A994860FFE70998406800F0030003282F
:1029100018D0FFE70A98C068069008984100032085
:1029200000FA01F106988843069009988068089992
:10293000490000FA01F106980843069006980A99A2
:10294000C860FFE70998406800F00300022826D11C
:10295000FFE70A9808996FF0030202EA5101084460
:10296000006A0690089800F0070081000F2000FA26
:1029700001F106988843069009980069089901F0CA
:102980000701890000FA01F10698084306900698AD
:102990000A99089B02EA530211440862FFE70A9869
:1029A0000068069008984100032000FA01F106989B
:1029B000884306900998406800F003000899490090
:1029C00000FA01F106980843069006980A990860F3
:1029D000099880798007002800F0EB80FFE7FFE787
:1029E00041F26000C4F20200016841F0010101609F
:1029F000006800F0010005900598FFE7089820F0B6
:102A000003000821C4F2010140580690089800F024
:102A1000030081000F2000FA01F106988843069018
:102A20000A98B0F1904F03D1FFE70020049042E0F4
:102A30000A9840F20041C4F60001884203D1FFE742
:102A40000120039034E00A9840F60001C4F600012A
:102A5000884203D1FFE70220029026E00A9840F660
:102A60000041C4F60001884203D1FFE70320019032
:102A700018E00A9841F20001C4F60001884203D12F
:102A8000FFE7042000900AE00A9941F20042C4F6F0
:102A900000020620914208BF05200090FFE7009841
:102AA0000190FFE701980290FFE702980390FFE78B
:102AB00003980490FFE70498089901F00301890046
:102AC00000FA01F10698084306900698089921F04B
:102AD00003010822C4F20102885040F20840C4F207
:102AE00001000068069007990698884306900998A7
:102AF0008079C006002805D5FFE7079906980843A6
:102B00000690FFE7069840F20841C4F20101086010
:102B100040F20C40C4F20100006806900799069844
:102B200088430690099880798006002805D5FFE73C
:102B30000799069808430690FFE7069840F20C4173
:102B4000C4F20101086040F20440C4F201000068D0
:102B5000069007990698884306900998807980071F
:102B6000002805D5FFE70799069808430690FFE778
:102B7000069840F20441C4F20101086040F20040AE
:102B8000C4F20100006806900799069888430690F1
:102B900009988079C00728B1FFE70799069808438C
:102BA0000690FFE7069840F20041C4F20101086078
:102BB000FFE7FFE708980130089053E60BB0704735
:102BC00083B00290ADF80610029840690090009A18
:102BD000BDF8060002EA0001904340EA0140029974
:102BE000886103B07047000082B00190ADF8021018
:102BF0008DF801209DF8010028B1FFE7BDF8020023
:102C00000199886104E0BDF8020001998862FFE73C
:102C100002B0704741F62850C2F2000000687047C9
:102C200083B001900091019890F8410020283BD199
:102C3000FFE7FFE7019890F84000012804D1FFE783
:102C400002208DF80B0033E00199012081F840004B
:102C5000FFE7FFE70199242081F84100019801680E
:102C6000086820F00100086001980168086820F4F5
:102C700080500860009A0198016808681043086055
:102C800001980168086840F001000860019920205F
:102C900081F84100FFE70199002081F84000FFE73B
:102CA00000208DF80B0003E002208DF80B00FFE7F9
:102CB0009DF80B0003B0704784B002900191029818
:102CC00090F84100202840D1FFE7FFE7029890F8F4
:102CD0004000012804D1FFE702208DF80F0038E002
:102CE0000299012081F84000FFE7FFE702992420C4
:102CF00081F8410002980168086820F0010008602E
:102D00000298006800680090009820F470600090BD
:102D10000199009840EA0120009000980299096802
:102D2000086002980168086840F001000860029994
:102D3000202081F84100FFE70299002081F840003F
:102D4000FFE700208DF80F0003E002208DF80F0050
:102D5000FFE79DF80F0004B07047000080B584B015
:102D600003900398006880690290039800680068E7
:102D700001900398406B30B1FFE70398436B0299D1
:102D8000019A9847FFE704B080BD000080B582B08B
:102D90000090009820B9FFE701208DF807007BE044
:102DA000009890F8410040B9FFE70099002081F8B1
:102DB0004000009800F0ACFAFFE70099242081F869
:102DC000410000980168086820F001000860009840
:102DD0000168406820F070600861009801688868A8
:102DE00020F4004088600098C068012807D1FFE700
:102DF00000980168806840F40040886006E0009810
:102E00000168806840F404408860FFE70098C0686B
:102E1000022807D1FFE700980168486840F4006085
:102E2000486006E000980168486820F40060486047
:102E3000FFE700980168486848F20002C0F20022EB
:102E40001043486000980168C86820F40040C860DA
:102E5000009A1168106953699269184340EA022088
:102E6000C860009A1168D069126A1043086000981F
:102E70000168086840F0010008600099002048647B
:102E8000009A202182F8411000990863009981F886
:102E900042008DF80700FFE79DF8070002B080BDF3
:102EA00080B588B0DDF828C00690ADF81610049201
:102EB000ADF80E30069890F84100202840F0F680DA
:102EC000FFE7FFE7069890F84000012804D1FFE7EC
:102ED00002208DF81F00EDE00699012081F84000E6
:102EE000FFE7FFE7FFF796FE0290069802996A4611
:102EF00011604FF400410122192305F08BF920B134
:102F0000FFE701208DF81F00D4E00699222081F808
:102F100041000699102081F842000699002048647B
:102F20000499069A5162BDF80E10069A51850699C9
:102F300048630698408DB0F5807F14D3FFE706996B
:102F4000FF2008850698BDF8161090F82820EC465A
:102F500042F20043C8F20003CCF800304FF0807317
:102F600005F02EF914E00698408D0699088506981C
:102F7000BDF8161090F82820EC4642F20043C8F243
:102F80000003CCF800304FF0007305F019F9FFE7AB
:102F9000FFE70698408D00285FD0FFE706980A9962
:102FA000029A05F099F920B1FFE701208DF81F0082
:102FB00080E006980068406A0699496A0870069998
:102FC000486A013048620699088D013808850699DB
:102FD000488D013848850698408DE8B3FFE706988C
:102FE000008DC8BBFFE706980A9B02996A461160EC
:102FF0008021002205F00EF920B1FFE701208DF8B5
:103000001F0057E00698408DB0F5807F11D3FFE791
:103010000699FF2008850698BDF8161090F828201C
:10302000EC460023CCF800304FF0807305F0C8F870
:1030300011E00698408D069908850698BDF816108F
:1030400090F82820EC460023CCF800304FF00073B5
:1030500005F0B6F8FFE7FFE79BE706980A99029AA2
:1030600005F0EEF920B1FFE701208DF81F0021E007
:10307000069801682020C86106990A6851684EF6D2
:103080000003CFF6006319405160069981F84100B2
:103090000699002081F84200FFE70699002081F898
:1030A0004000FFE700208DF81F0003E002208DF8AC
:1030B0001F00FFE79DF81F0008B080BD80B588B0F5
:1030C000DDF828C00690ADF816100492ADF80E3069
:1030D000069890F84100202840F01181FFE7FFE7B3
:1030E000069890F84000012804D1FFE702208DF8EF
:1030F0001F0008E10699012081F84000FFE7FFE783
:10310000FFF788FD0290069802996A4611604FF415
:1031100000410122192305F07DF820B1FFE70120CD
:103120008DF81F00EFE00699212081F841000699F3
:10313000102081F842000699002048640499069AFC
:103140005162BDF80E10069A51850699486306989B
:10315000408DB0F5807F07D3FFE70699FF200885F3
:103160004FF08070019007E00698408D0699088521
:103170004FF000700190FFE70698008D10B3FFE755
:1031800006980168406A007888620699486A0130AA
:1031900048620699488D013848850699088D01389E
:1031A00008850698BDF81610028D0132019BEE4687
:1031B00042F2000CC8F2000CCEF800C0D2B204F00B
:1031C000FFFF0FE00698BDF8161090F82820019B2D
:1031D000EE4642F2000CC8F2000CCEF800C004F03B
:1031E000EFFFFFE7FFE70698408D00285ED0FFE77E
:1031F00006980A99029A05F075F920B1FFE70120B7
:103200008DF81F007FE006980168406A00788862A8
:103210000699486A013048620699488D0138488508
:103220000699088D013808850698408DE8B3FFE7B8
:103230000698008DC8BBFFE706980A9B02996A466C
:1032400011608021002204F0E5FF20B1FFE701209A
:103250008DF81F0057E00698408DB0F5807F11D3A0
:10326000FFE70699FF2008850698BDF8161090F82C
:103270002820EC460023CCF800304FF0807304F097
:103280009FFF11E00698408D069908850698BDF8C5
:10329000161090F82820EC460023CCF800304FF0B0
:1032A000007304F08DFFFFE7FFE79CE706980A999B
:1032B000029A05F0C5F820B1FFE701208DF81F0044
:1032C00021E0069801682020C86106990A685168C3
:1032D0004EF60003CFF6006319405160069981F85D
:1032E00041000699002081F84200FFE7069900207E
:1032F00081F84000FFE700208DF81F0003E0022066
:103300008DF81F00FFE79DF81F0008B080BD00008A
:1033100080B5A2B02190002020901F901E901D909B
:103320001C900BA84421FDF7AFF82198006845F6E2
:103330000001C4F20001884240F08F80FFE7802046
:103340000B90002012900BA801F038FD18B1FFE798
:10335000FDF70EFCFFE7FFE741F24C00C4F202006C
:10336000016841F001010160006800F001000A906D
:103370000A98FFE74FF440701C9012201D90002027
:103380001E901F90042020904FF090401CA9FFF742
:1033900063FAFFE741F25800C4F20200016841F409
:1033A00080010160006800F4800009900998FFE73F
:1033B00041F26020C2F2000006900821C4F202012E
:1033C00001601221416000218160C16080220261A0
:1033D00041618161C1610162FFF7D0F818B1FFE777
:1033E000FDF7C6FBFFE7FFE7219841F26021C2F23B
:1033F0000001C16321988862FFE741F2C020C2F258
:10340000000005901C21C4F20201016013214160FB
:10341000102181600021C1608022026141618161CF
:10342000C1610162FFF7AAF818B1FFE7FDF7A0FB41
:10343000FFE7FFE7219841F2C021C2F2000181635A
:1034400021988862FFE7212004900022114600F0B5
:103450003BF9049800F02EF99BE02198006847F6AC
:103460000001C4F20001884240F09280FFE74FF46F
:1034700080700B90002013900BA801F09FFC18B1F6
:10348000FFE7FDF775FBFFE7FFE741F24C00C4F2F1
:103490000200016841F004010160006800F00400CE
:1034A00008900898FFE74FF440701C9012201D9080
:1034B00000201E901F900820209040F60000C4F6C7
:1034C00000001CA9FFF7C8F9FFE741F25800C4F259
:1034D0000200016841F080410160006800F0804016
:1034E00007900798FFE741F22030C2F200000390F6
:1034F0003021C4F202010160142141600021816089
:10350000C1608022026141618161C1610162FFF796
:1035100035F818B1FFE7FDF72BFBFFE7FFE7219830
:1035200041F22031C2F20001C16321988862FFE7B5
:1035300041F28030C2F2000002904421C4F2020144
:10354000016015214160102181600021C16080224D
:10355000026141618161C1610162FFF70FF818B139
:10356000FFE7FDF705FBFFE7FFE7219841F2803118
:10357000C2F20001816321988862FFE75C2001901C
:103580000022114600F0A0F8019800F093F8FFE740
:10359000FFE722B080BD000040F28010C2F20000C0
:1035A000026841F62851C2F2000108681044086020
:1035B0007047000080B582B000208DF8070003201E
:1035C00000F09AF80F2000F00DF820B1FFE701207D
:1035D0008DF8070002E000F049F8FFE79DF80700CA
:1035E00002B080BD80B582B0019000208DF803004C
:1035F00040F28010C2F20000006878B3FFE740F2AA
:103600002400C2F20000006840F28011C2F2000102
:103610000A684FF47A71B1FBF2F1B0FBF1F003F0FC
:103620006DFAB0B9FFE701980F280DD8FFE70199AF
:103630004FF0FF30002200F047F8019840F284116B
:10364000C2F20001086003E001208DF80300FFE7EB
:1036500003E001208DF80300FFE703E001208DF86F
:103660000300FFE79DF8030002B080BD80B582B083
:10367000FFE741F26000C4F20200016841F001017D
:103680000160006800F0010001900198FFE7FFE78A
:1036900041F25800C4F20200016841F0805101601B
:1036A000006800F0805000900098FFE701F072FB86
:1036B00002B080BD80B582B08DF807009DF907008B
:1036C0000BF0ACF902B080BD80B586B08DF8170064
:1036D000049103920BF0BAF902909DF91700019042
:1036E00002980499039A06F079F8014601980BF0C4
:1036F000B5F906B080BD000080B582B00190019898
:103700000BF0CEF902B080BD82B001900198006844
:10371000009001990120C1F8D0020199002081F8A0
:10372000C802009AB2F8541041F00101A2F85410F6
:10373000009AB2F8541041F00201A2F8541002B0FD
:103740007047000080B584B003908DF80B109DF891
:103750000B000146019120B1FFE70198012815D027
:1037600027E00398407A58B1FFE706F07BFE4EF65B
:103770001051CEF20001086820F006000860FFE753
:103780000398D0F8D80208F07FFF12E00398D0F831
:10379000D80209F05FF80398407A48B1FFE74EF687
:1037A0001051CEF20001086840F006000860FFE703
:1037B000FFE704B080BD000084B00390ADF80A10AC
:1037C000ADF808200193BDF80A00000600280CD5CA
:1037D000FFE70398BDF80A1001F0070101EB810132
:1037E00000EBC100103000900AE00398BDF80A1009
:1037F00001EB810100EBC10000F5A8700090FFE72C
:10380000BDF8080038B9FFE7009900200873019857
:103810000099C8800AE00099012008730198009976
:103820000881BDF8060000994881FFE7002004B038
:103830007047000080B582B001908DF80310019AA6
:10384000D2F8D8029DF8031001EB810302EBC3020A
:10385000526A08F0D1FC02B080BD000080B582B091
:1038600001908DF80310019AD2F8D8029DF8031048
:1038700001EB810302EBC302D2F8642108F062FD80
:1038800002B080BD80B584B002908DF807109DF81D
:103890000700000600280FD5FFE702989DF80710E3
:1038A00001F0070101EB810100EBC1001030009035
:1038B0000099012048700FE002989DF8071001F070
:1038C000070101EB810100EBC10000F5A870009039
:1038D000009900204870FFE79DF8070000F00700FE
:1038E00000990870FFE7029890F89002012804D12F
:1038F000FFE702208DF80F0014E00299012081F803
:103900009002FFE7FFE702980068009909F0FEFFC8
:10391000FFE70299002081F89002FFE700208DF870
:103920000F00FFE79DF80F0004B080BD80B584B0A4
:1039300002908DF807109DF8070000F00F00029923
:103940000979884204D9FFE701208DF80F004DE086
:103950009DF80700000600280FD5FFE702989DF8A4
:10396000071001F0070101EB810100EBC1001030ED
:1039700000900099012048700FE002989DF8071010
:1039800001F0070101EB810100EBC10000F5A87017
:103990000090009900204870FFE70099002088708F
:1039A0009DF8070000F0070000990870FFE70298F3
:1039B00090F89002012804D1FFE702208DF80F0053
:1039C00014E00299012081F89002FFE7FFE70298D6
:1039D000006800990AF07AF9FFE70299002081F85F
:1039E0009002FFE700208DF80F00FFE79DF80F0021
:1039F00004B080BD80B586B005900491ADF80E206E
:103A0000BDF80E004004002876D5FFE70598006851
:103A1000B0F850000499097800EBC10005990968D5
:103A20000844B0F802046FF39F20ADF80C0004982E
:103A30008069BDF80C10884207D3FFE7BDF80C2061
:103A400004998869801A886103E0049900208861DC
:103A5000FFE704988069F8B9FFE7FFE70598006879
:103A60000499097830F821004BF68F710840ADF8C1
:103A70000A00BDF80A0080F40050ADF80A00BDF855
:103A80000A0048F28001084305990968049A1278EF
:103A900021F82200FFE7FFE7BDF80E0040060028EE
:103AA0001BD5FFE7FFE7FFE7059800680499097851
:103AB00030F8210048F68F710840ADF80800BDF8D5
:103AC000080048F2C001084305990968049A127871
:103AD00021F82200FFE7FFE7FFE7BDF80C0050B137
:103AE000FFE705980068049A51691289BDF80C3007
:103AF0000AF0E6FEFFE775E005980068B0F85000B0
:103B00000499097800EBC100059909680844B0F8E8
:103B100006046FF39F20ADF80C0004988069BDF88F
:103B20000C10884207D3FFE7BDF80C200499886980
:103B3000801A886103E0049900208861FFE70498F7
:103B40008069F8B9FFE7FFE70598006804990978EC
:103B500030F821004BF68F710840ADF80600BDF833
:103B6000060080F40050ADF80600BDF8060048F2EB
:103B70008001084305990968049A127821F8220007
:103B8000FFE7FFE7BDF80E00400600281BD4FFE763
:103B9000FFE7FFE7059800680499097830F82100ED
:103BA00048F68F710840ADF80400BDF8040048F2F3
:103BB000C001084305990968049A127821F8220087
:103BC000FFE7FFE7FFE7BDF80C0050B1FFE70598FE
:103BD0000068049A51695289BDF80C300AF070FEF1
:103BE000FFE7FFE7BDF80C0006B080BD80B5AAB0C6
:103BF00028902791ADF89A20BDF89A004006002839
:103C000040F1E181FFE728980068B0F8500027995B
:103C1000097800EBC100289909680844B0F802044B
:103C20006FF39F20ADF8920027988069BDF892103D
:103C3000884207D9FFE7BDF8922027998869801A42
:103C4000886103E0279900208861FFE72798806951
:103C5000002840F0D780FFE7FFE72798407808BBAF
:103C6000FFE7FFE728980068239028980068B0F8DD
:103C7000501023980844239023982799097800EB43
:103C8000C10000F202402290FFE7229908886FF3FA
:103C90009F2008802299088840F400400880FFE7B0
:103CA000FFE71DE027984078012818D1FFE7FFE7DC
:103CB00028980068209028980068B0F85010209844
:103CC0000844209020982799097800EBC10000F261
:103CD00002401F901F9900200880FFE7FFE7FFE7E1
:103CE000FFE7FFE7289800681E902798407808BBF8
:103CF000FFE7FFE7289800681C9028980068B0F854
:103D000050101C9808441C901C982799097800EBC7
:103D1000C10000F206401B90FFE71B9908886FF373
:103D20009F2008801B99088840F400400880FFE726
:103D3000FFE718E027984078012813D1FFE728987B
:103D40000068B0F850101E9808441E901E982799DD
:103D5000097800EBC10000F206401D901D9900207B
:103D60000880FFE7FFE7FFE72798C07802281FD108
:103D7000FFE7FFE7289800682799097830F82100C5
:103D800048F6BF710840ADF86600BDF8660080F0E7
:103D90002000ADF86600BDF8660048F280010843D7
:103DA00028990968279A127821F82200FFE7FFE78F
:103DB000289827990978FFF73DFDBDF89A0040043F
:103DC00000281BD5FFE7FFE7FFE728980068279941
:103DD000097830F8210048F68F710840ADF864008A
:103DE000BDF864004CF28001084328990968279ABD
:103DF000127821F82200FFE7FFE7FFE700208DF8A7
:103E0000A700E6E2BDF89A00400400281BD5FFE7B2
:103E1000FFE7FFE7289800682799097830F8210024
:103E200048F68F710840ADF86200BDF862004CF2B0
:103E30008001084328990968279A127821F82200FE
:103E4000FFE7FFE7FFE7279890F82400012840F0FC
:103E5000B880FFE7BDF8922027994869104448616F
:103E6000BDF892202799C8691044C8612798016954
:103E7000006A884209D3FFE7279800692590259AB0
:103E80002799086A801A086216E02798006A40B9E4
:103E9000FFE7BDF8920025902799002081F82400C3
:103EA00009E02799002081F824002799096A2591C3
:103EB00027990862FFE7FFE7FFE727984078002887
:103EC00056D1FFE7FFE72898006817902898006808
:103ED000B0F8501017980844179017982799097848
:103EE00000EBC10000F202401690FFE71699088827
:103EF0006FF39F200880259830B9FFE7169908884E
:103F000040F40040088030E025983E2815D8FFE7AF
:103F1000FFE72598400815909DF89400C00720B150
:103F2000FFE7159801301590FFE7159A1699088854
:103F300040EA82200880FFE716E0FFE72598400965
:103F400015909DF89400C00620B9FFE71598013838
:103F50001590FFE7159A1699088840EA822040F4E8
:103F600000400880FFE7FFE7FFE7FFE7FFE71DE00E
:103F700027984078012818D1FFE7FFE728980068C4
:103F8000149028980068B0F85010149808441490C1
:103F900014982799097800EBC10000F202401390B1
:103FA000259813990880FFE7FFE7FFE7FFE72898C8
:103FB0000068279A51691289BDF894300AF0D2FC42
:103FC000FFE7FFE7DDE128980068B0F85000279987
:103FD000097800EBC100289909680844B0F8060484
:103FE0006FF39F20ADF8920027988069BDF892107A
:103FF000884207D3FFE7BDF8922027998869801A85
:10400000886103E0279900208861FFE7279880698D
:10401000002840F0D780FFE7FFE72798407808BBEB
:10402000FFE7FFE728980068129028980068B0F82A
:10403000501012980844129012982799097800EBB2
:10404000C10000F202401190FFE7119908886FF358
:104050009F2008801199088840F400400880FFE7FD
:10406000FFE71DE027984078012818D1FFE7FFE718
:10407000289800680F9028980068B0F850100F98A2
:1040800008440F900F982799097800EBC10000F2BF
:1040900002400E900E9900200880FFE7FFE7FFE73F
:1040A000FFE7FFE7289800680D902798407808BB45
:1040B000FFE7FFE7289800680B9028980068B0F8A1
:1040C00050100B9808440B900B982799097800EB37
:1040D000C10000F206400A90FFE70A9908886FF3D2
:1040E0009F2008800A99088840F400400880FFE774
:1040F000FFE718E027984078012813D1FFE72898B8
:104100000068B0F850100D9808440D900D9827994C
:10411000097800EBC10000F206400C900C990020D9
:104120000880FFE7FFE7FFE72798C07802281FD144
:10413000FFE7FFE7289800682799097830F8210001
:1041400048F6BF710840ADF82200BDF8220080F0AB
:104150002000ADF82200BDF8220048F2800108439B
:1041600028990968279A127821F82200FFE7FFE7CB
:10417000289827990978FFF75DFBBDF89A0040045D
:1041800000281BD4FFE7FFE7FFE72898006827997E
:10419000097830F8210048F68F710840ADF820000A
:1041A000BDF820004CF28001084328990968279A3D
:1041B000127821F82200FFE7FFE7FFE700208DF8E3
:1041C000A70006E1BDF89A00400400281BD4FFE7D1
:1041D000FFE7FFE7289800682799097830F8210061
:1041E00048F68F710840ADF81E00BDF81E004CF275
:1041F0008001084328990968279A127821F822003B
:10420000FFE7FFE7FFE7279890F82400012840F038
:10421000B680FFE7BDF892202799486910444861AD
:10422000BDF892202799C8691044C8612798016990
:10423000006A884209D3FFE7279800692590259AEC
:104240002799086A801A086216E02798006A40B920
:10425000FFE7BDF8920025902799002081F82400FF
:1042600009E02798006A259027990020086227997D
:1042700081F82400FFE7FFE7FFE728980068069031
:1042800027984078002856D1FFE7FFE72898006874
:10429000049028980068B0F85010049808440490DE
:1042A00004982799097800EBC10000F206400390BA
:1042B000FFE7039908886FF39F200880259830B99D
:1042C000FFE70399088840F40040088030E0259813
:1042D0003E2815D8FFE7FFE72598400802909DF893
:1042E0009400C00720B1FFE7029801300290FFE779
:1042F000029A0399088840EA82200880FFE716E0C6
:10430000FFE72598400902909DF89400C00620B967
:10431000FFE7029801380290FFE7029A03990888A4
:1043200040EA822040F400400880FFE7FFE7FFE713
:10433000FFE7FFE718E027984078012813D1FFE74F
:1043400028980068B0F8501006980844069006981F
:104350002799097800EBC10000F2064005902598E6
:1043600005990880FFE7FFE7FFE728980068279A8C
:1043700051695289BDF894300AF0F4FAFFE7FFE77B
:10438000FFE7FFE7289800682799097830F82100AF
:1043900048F6BF710840ADF80600BDF8060080F091
:1043A0001000ADF80600BDF8060080F02000ADF862
:1043B0000600BDF8060048F2800108432899096804
:1043C000279A127821F82200FFE700208DF8A70035
:1043D000FFE79DF8A7002AB080BD000082B00190E1
:1043E0008DF8031001989DF8031001F0070101EB0F
:1043F000810100EBC100D0F86C0102B070470000F1
:1044000080B586B004908DF80F10ADF80C208DF8B3
:104410000B3000208DF80A009DF80F0000060028E0
:104420000FD5FFE704989DF80F1001F0070101EB8D
:10443000810100EBC100103001900199012048700A
:104440000FE004989DF80F1001F0070101EB8101C6
:1044500000EBC10000F5A8700190019900204870A0
:10446000FFE79DF80F0000F0070001990870BDF804
:104470000C006FF3DF20019908619DF80B00019992
:10448000C8709DF80B00022804D1FFE701990020B5
:104490000871FFE7FFE7049890F89002012804D123
:1044A000FFE702208DF8170015E00499012081F83C
:1044B0009002FFE7FFE704980068019908F0E2FD29
:1044C000FFE70499002081F89002FFE79DF80A00B9
:1044D0008DF81700FFE79DF8170006B080BD0000BB
:1044E00080B586B005908DF813100392029305985D
:1044F0009DF8131001F0070101EB810100EBC100F1
:1045000000F5A870019003980199486102980199FB
:104510008861019900200090C861019948709DF858
:10452000130000F0070001990870059800680199D0
:1045300009F0AEFC009806B080BD000080B584B0E4
:1045400002908DF807109DF8070000F0070002990F
:104550000979884204D9FFE701208DF80F004BE06C
:104560009DF80700000600280FD5FFE702989DF888
:10457000071001F0070101EB810100EBC1001030D1
:1045800000900099012048700DE002989DF80710F6
:1045900001EB810100EBC10000F5A87000900099CB
:1045A00000204870FFE70099012088709DF80700FF
:1045B00000F0070000990870FFE7029890F8900259
:1045C000012804D1FFE702208DF80F0014E00299C2
:1045D000012081F89002FFE7FFE702980068009948
:1045E00009F012FCFFE70299002081F89002FFE732
:1045F00000208DF80F00FFE79DF80F0004B080BD8C
:1046000080B586B005908DF813100392029305983B
:104610009DF8131001F0070101EB810100EBC100CF
:1046200010300190039801994861029801998861BE
:104630000199012081F824000299019A1162019ADE
:1046400000210091D161019948709DF8130000F09C
:1046500007000199087005980068019909F018FC95
:10466000009806B080BD000080B582B0019001982E
:1046700000680AF01BF900909DF801000006002870
:1046800004D5FFE7019805F0DFF8DFE09DF80100B1
:104690004007002810D5FFE701980168B1F84400F1
:1046A00020F48060A1F84400019800F0DDF9019841
:1046B000002100F019FAC9E09DF801004006002829
:1046C00009D5FFE701980168B1F8440020F4804063
:1046D000A1F84400BAE09DF801008006002809D541
:1046E000FFE701980168B1F8440020F40050A1F8F8
:1046F0004400ABE09DF80100C00600282AD5FFE782
:1047000001980168B1F8400020F00400A1F84000D1
:1047100001980168B1F8400020F00800A1F84000BD
:10472000019890F8C802012808D1FFE701980021FC
:1047300080F8C8120198FFF705F8FFE7019800F02C
:10474000AFF901980168B1F8440020F48050A1F855
:1047500044007BE09DF80100000700281CD5FFE71E
:1047600001980168B1F8400040F00800A1F840004D
:1047700001980168B1F8440020F40060A1F84400F9
:1047800001980168B1F8400040F00400A1F8400031
:10479000019800F00DFA59E09DF80000000600288D
:1047A00034D5FFE701980168B1F8440020F080009B
:1047B000A1F84400019890F8C80210BBFFE70198E7
:1047C0000168B1F8400040F00400A1F840000198F1
:1047D0000168B1F8400040F00800A1F840000198DD
:1047E000012180F8C81201980068B0F8540000F068
:1047F000F0008008019AC2F8CC020198FEF7A2FFEF
:1048000003E0019800F0D4F9FFE71FE09DF80100F4
:10481000800700280CD5FFE701980168B1F8440033
:1048200020F40070A1F84400019800F053F90DE065
:104830009DF80100C00748B1FFE701980168B1F891
:10484000440020F48070A1F84400FFE702B080BD6E
:1048500080B584B00290029820B9FFE701208DF85E
:104860000F00BBE0029890F8910240B9FFE702996F
:10487000002081F89002029800F0B4F8FFE7029956
:10488000032081F891020298006809F00FFA0020D5
:104890008DF80700FFE79DF8070002990979884223
:1048A00039DAFFE702989DF8071001EB810100EB70
:1048B000C101012048749DF80700029900EB8002B5
:1048C00001EBC201087402989DF8071001EB810109
:1048D00000EBC1010020C87402999DF8072002EB8B
:1048E000820201EBC201086202999DF8072002EBE7
:1048F000820201EBC201486202999DF8072002EB97
:10490000820201EBC2018862FFE79DF807000130D7
:104910008DF80700BFE700208DF80700FFE79DF83E
:1049200007000299097988423EDAFFE702989DF86C
:10493000071001EB810100EBC101002081F851015A
:104940009DF80710029A01EB810302EBC30282F883
:10495000501102999DF8072002EB820201EBC2017F
:1049600081F8530102999DF8072002EB820201EBC6
:10497000C201C1F8600102999DF8072002EB820292
:1049800001EBC201C1F8640102999DF8072002EB16
:10499000820201EBC201C1F86801FFE79DF8070040
:1049A00001308DF80700BAE7029A106851689268E2
:1049B00009F068F90299002008730299012081F832
:1049C00091020298807A012804D1FFE70298FEF74D
:1049D0009BFEFFE700208DF80F00FFE79DF80F001A
:1049E00004B080BD80B596B0159004A84421FBF7B3
:1049F0004BFD1598006845F60041C4F2000188425D
:104A000030D1FFE74FF4005004900020119004A82B
:104A100000F0D4F918B1FFE7FCF7AAF8FFE7FFE7C9
:104A200041F25800C4F20200016841F40001016043
:104A3000006800F4000003900398FFE71320009043
:104A4000002201921146FEF73FFE0098FEF732FE6B
:104A5000019A142002901146FEF736FE0298FEF7E6
:104A600029FEFFE716B080BD80B582B0019001201D
:104A70008DF8030001984079022803D0FFE7FCF786
:104A800077F8FFE70198D0F8D8029DF8031007F0F7
:104A900035FE0198D0F8D80207F0A6FD02B080BD1F
:104AA00080B582B001900198407A58B1FFE74EF688
:104AB0001051CEF20001086820F00600086005F0F1
:104AC000D1FCFFE70198D0F8D80207F0DDFD02B075
:104AD00080BD000080B582B001900198D0F8D80266
:104AE00007F0E4FD02B080BD80B584B002908DF87F
:104AF0000710FFE7029890F89002012804D1FFE721
:104B000002208DF80F0019E00299012081F890022F
:104B1000FFE7FFE79DF80700029908730298006815
:104B20009DF8071009F00EFFFFE70299002081F8B9
:104B30009002FFE700208DF80F00FFE79DF80F00BF
:104B400004B080BD80B582B001900199D1F8D8023F
:104B500001F5267107F0FCFD02B080BD80B582B082
:104B60000090FFE7009890F89002012804D1FFE739
:104B700002208DF8070017E00099012081F89002CB
:104B8000FFE7FFE70098006809F070FE00980068F2
:104B900009F06CF8FFE70099002081F89002FFE728
:104BA00000208DF80700FFE79DF8070002B080BDE8
:104BB00080B582B001900198D0F8D80207F04AFE83
:104BC0000198407A48B1FFE74EF61051CEF200014D
:104BD000086840F006000860FFE702B080BD0000F2
:104BE00085B00390039800285ED1FFE747F20000EC
:104BF000C4F20000006800F4C060B0F5806F49D1D5
:104C0000FFE747F28001C4F20001086820F48070D9
:104C1000086047F20002C4F200021168012060F34C
:104C20004A21116040F22401C2F2000109683222D7
:104C300051434DF68362C4F21B32A1FB022100EB0B
:104C400091400290FFE747F21400C4F200000168AF
:104C5000002049050029019006D5FFE702980028A9
:104C600018BF01200190FFE70198C00720B1FFE7BE
:104C7000029801380290E6E747F21400C4F20000FF
:104C800000684005002804D5FFE703208DF81300D5
:104C90007CE008E047F28001C4F20001086820F4DB
:104CA00080700860FFE76DE00398B0F5007F5ED18B
:104CB000FFE747F20000C4F20000006800F4C060A3
:104CC000B0F5806F49D1FFE747F28001C4F20001DF
:104CD000086840F48070086047F20002C4F20002E5
:104CE0001168012060F34A21116040F22401C2F2F0
:104CF00000010968322251434DF68362C4F21B322F
:104D0000A1FB022100EB91400290FFE747F2140063
:104D1000C4F200000168002049050029009006D572
:104D2000FFE70298002818BF01200090FFE70098D5
:104D3000C00720B1FFE7029801380290E6E747F28A
:104D40001400C4F2000000684005002804D5FFE705
:104D500003208DF8130019E008E047F28001C4F247
:104D60000001086840F480700860FFE709E047F23E
:104D70000001C4F200010868022262F34A200860C0
:104D8000FFE7FFE700208DF81300FFE79DF8130011
:104D900005B0704747F20801C4F20001086840F40A
:104DA000804008607047000047F20001C4F2000133
:104DB000086840F4807008607047000080B586B0D5
:104DC000059000208DF80B008DF80A00059880787A
:104DD0000007002840F1B580FFE700208DF80900AA
:104DE00041F25800C4F202000068C000002813D449
:104DF000FFE7FFE741F25800C4F20200016841F00A
:104E000080510160006800F0805001900198FFE738
:104E100001208DF80900FFE747F20001C4F200010C
:104E2000086840F480700860FDF7F4FE0390FFE727
:104E300047F20000C4F200000068C00500280CD44E
:104E4000FFE7FDF7E7FE0399401A032804D3FFE7C5
:104E500003208DF80B0000E0EAE79DF80B00002826
:104E60005BD1FFE741F29000C4F20200006800F459
:104E7000407004900498C8B1FFE704980599096C44
:104E8000884213D0FFE741F29001C4F202010868A2
:104E900020F440700490086840F48030086008688E
:104EA00020F48030086004980860FFE79DF8100047
:104EB000C007E0B1FFE7FDF7ADFE0390FFE741F269
:104EC0009000C4F202000068800700280ED4FFE7BB
:104ED000FDF7A0FE0399401A41F28931884204D3BC
:104EE000FFE703208DF80B0000E0E8E7FFE79DF8FF
:104EF0000B0060B9FFE741F29001C4F202010868BB
:104F000020F44070059A126C1043086004E09DF88C
:104F10000B008DF80A00FFE704E09DF80B008DF808
:104F20000A00FFE79DF80900012809D1FFE741F2D7
:104F30005801C4F20201086820F080500860FFE7C1
:104F4000FFE705980078C00760B1FFE741F28801EC
:104F5000C4F20201086820F00300059A5268104369
:104F60000860FFE705980078800700280CD5FFE768
:104F700041F28801C4F20201086820F00C00059A91
:104F8000926810430860FFE7059800784007002802
:104F90000CD5FFE741F28801C4F20201086820F055
:104FA0003000059AD26810430860FFE70598007842
:104FB000000700280CD5FFE741F28801C4F2020186
:104FC000086820F0C000059A126910430860FFE7E6
:104FD00005980078800600280CD5FFE741F288018B
:104FE000C4F20201086820F44060059A5269104337
:104FF0000860FFE705980078400600280CD5FFE719
:1050000041F28801C4F20201086820F44050059A78
:10501000926910430860FFE70598007800060028B1
:105020000CD5FFE741F28801C4F20201086820F4C0
:105030004040059AD26910430860FFE70598407820
:10504000C00760B1FFE741F28801C4F202010868BD
:1050500020F44030059A126A10430860FFE7059873
:105060004078800700280CD5FFE741F28801C4F2A0
:105070000201086820F44020059A526A1043086033
:10508000FFE705984078400700281BD5FFE741F26D
:105090008801C4F20201086820F44010059A926A5F
:1050A000104308600598806AB0F5801F09D1FFE7BA
:1050B00041F20C01C4F20201086840F4801008605B
:1050C000FFE7FFE705984078000700281BD5FFE7BA
:1050D00041F28801C4F20201086820F44000059AF8
:1050E000D26A104308600598C06AB0F5800F09D1F4
:1050F000FFE741F20C01C4F20201086840F480109D
:105100000860FFE7FFE705984078C00600281BD538
:10511000FFE741F28801C4F20201086820F0407004
:10512000059A126B104308600598006BB0F1807F00
:1051300009D1FFE741F20C01C4F20201086840F412
:1051400080100860FFE7FFE7059840788006002898
:105150001BD5FFE741F28801C4F20201086820F084
:105160004060059A526B104308600598406BB0F19F
:10517000006F09D1FFE741F20C01C4F20201086897
:1051800040F480100860FFE7FFE70598407840068C
:1051900000281BD5FFE741F28801C4F2020108682C
:1051A00020F04060059A926B104308600598806B70
:1051B000B0F1006F09D1FFE741F20C01C4F2020126
:1051C000086840F480100860FFE7FFE70598407822
:1051D000000600281BD5FFE741F28801C4F2020156
:1051E000086820F04050059AD26B1043086005987B
:1051F000C06BB0F1805F09D1FFE741F20C01C4F24E
:105200000201086840F480300860FFE7FFE79DF87E
:105210000A0006B080BD000080B586B004900391FE
:1052200000200090049820B9FFE701208DF81700B6
:1052300081E1039842F20001C4F20201096801F021
:105240000F01884216D9FFE742F20000C4F20200C3
:10525000016821F00F01039A11430160006800F01A
:105260000F000399884204D0FFE701208DF8170052
:1052700061E1FFE704980078C007002800F0A380F0
:10528000FFE704984068032839D1FFE741F20000A6
:10529000C4F2020000688001002804D4FFE7012066
:1052A0008DF8170047E104F0F9FD019001984BF2E9
:1052B0000141C0F2C441884220D3FFE741F2080017
:1052C000C4F20200006810F0F00F0AD0FFE7049863
:1052D00000788007002810D5FFE70498806860B93F
:1052E000FFE741F20801C4F202010868082262F3F4
:1052F0000710086080200090FFE7FFE738E004987F
:10530000406802280ED1FFE741F20000C4F202001B
:1053100000688003002804D4FFE701208DF81700FF
:1053200009E10DE041F20000C4F20200006840050E
:10533000002804D4FFE701208DF81700FBE0FFE709
:1053400000F02CF9019001984BF20141C0F2C441E8
:1053500088420CD3FFE741F20801C4F20201086859
:10536000082262F30710086080200090FFE7FFE743
:1053700041F20801C4F20201086820F00300049A17
:10538000526810430860FDF745FC0290FFE741F2C8
:105390000800C4F20200006800F00C00049949689B
:1053A000B0EB810F0ED0FFE7FDF734FC0299401AF5
:1053B00041F28931884204D3FFE703208DF81700BA
:1053C000B9E0E4E7FFE704980078800700282CD5CF
:1053D000FFE7049800784007002809D5FFE741F26D
:1053E0000801C4F20201086840F4E0600860FFE7C9
:1053F00004980078000700280BD5FFE741F2080168
:10540000C4F20201086840F4E06020F460500860D3
:10541000FFE741F20801C4F20201086820F0F00041
:10542000049A9268104308600DE00098802809D122
:10543000FFE741F20801C4F20201086820F0F00021
:105440000860FFE7FFE7039842F20001C4F202019F
:10545000096801F00F01884228D2FFE742F20001FB
:10546000C4F20201086820F00F00039A104308609C
:10547000FDF7D0FB0290FFE742F20000C4F2020009
:10548000006800F00F00039988420ED0FFE7FDF797
:10549000C1FB0299401A41F28931884204D3FFE7E7
:1054A00003208DF8170046E0E6E7FFE70498007850
:1054B000400700280CD5FFE741F20801C4F20201C1
:1054C000086820F4E060049AD26810430860FFE79F
:1054D00004980078000700280DD5FFE741F2080185
:1054E000C4F20201086820F46050049A126940EA8C
:1054F000C2000860FFE700F051F841F20801C4F271
:1055000002010968C9B20A094FF67631C0F60001F6
:10551000895C01F01F01C84040F22401C2F2000181
:10552000086040F28410C2F200000068FEF75AF8EA
:105530008DF81700FFE79DF8170006B080BD00004A
:1055400040F22400C2F200000068704780B5FFF707
:10555000F7FF41F20801C4F202010968C1F3022217
:105560004FF68631C0F60001895C01F01F01C8408A
:1055700080BD000080B5FFF7E3FF41F20801C4F2EF
:1055800002010968C1F3C2224FF68631C0F600015C
:10559000895C01F01F01C84080BD000086B041F267
:1055A0000800C4F20200006800F00C00042806D1D4
:1055B000FFE742F20040C0F2F400019069E041F2DE
:1055C0000800C4F20200006800F00C00082806D1B0
:1055D000FFE743F20060C0F26E10019058E041F224
:1055E0000800C4F20200006800F00C000C284BD147
:1055F000FFE741F20C00C4F20200016801F0030170
:1056000004910068C1B2012000EB111002900498CF
:105610000090022815D0FFE70098032812D1FFE779
:10562000029943F20060C0F26E10B0FBF1F041F25B
:105630000C01C4F202010968C1F306214843059038
:1056400011E0FFE7029942F20040C0F2F400B0FB23
:10565000F1F041F20C01C4F202010968C1F3062124
:1056600048430590FFE741F20C00C4F202000068D5
:1056700000F0C061022000EB1160039005980399CF
:10568000B0FBF1F0019002E000200190FFE7FFE79E
:10569000FFE7019806B07047B0B588B0069006984D
:1056A00020B9FFE701208DF81F00CCE306980078B1
:1056B000C007002800F09B80FFE741F20800C4F219
:1056C0000200006800F00C00049041F20C00C4F2EB
:1056D0000200006800F00300039004980C2804D135
:1056E000FFE70398032804D0FFE70498082812D1A5
:1056F000FFE741F20000C4F20200006880030028C6
:1057000008D5FFE70698406820B9FFE701208DF82B
:105710001F0098E36AE0FFE706984068B0F5803F15
:1057200009D1FFE741F20001C4F20201086840F428
:105730008030086020E006984068B0F5A02F0DD1B9
:10574000FFE741F20001C4F20201086840F4802042
:105750000860086840F4803008600CE041F2000105
:10576000C4F20201086820F480300860086820F460
:1057700080200860FFE7FFE7FFE706984068D0B1A8
:10578000FFE7FDF747FA0590FFE741F20000C4F29A
:1057900002000068800300280CD4FFE7FDF73AFA06
:1057A0000599401A652804D3FFE703208DF81F00F0
:1057B00049E3EAE719E0FDF72DFA0590FFE741F22A
:1057C0000000C4F202000068800300280CD5FFE747
:1057D000FDF720FA0599401A652804D3FFE7032056
:1057E0008DF81F002FE3EAE7FFE7FFE7FFE70698E2
:1057F00000788007002840F19F80FFE741F2080011
:10580000C4F20200006800F00C00049041F20C00A9
:10581000C4F20200006800F00300039004980C2812
:1058200004D1FFE70398022804D0FFE70498042876
:105830002CD1FFE741F20000C4F2020000684005ED
:10584000002808D5FFE70698C06820B9FFE70120C7
:105850008DF81F00F7E241F20401C4F2020108686A
:1058600020F0FE40069A126940EA0260086040F2A9
:105870008410C2F200000068FDF7B4FE20B1FFE71B
:1058800001208DF81F00DEE2FFE754E00698C068B3
:1058900070B3FFE741F20001C4F20201086840F46E
:1058A00080700860FDF7B6F90590FFE741F200004F
:1058B000C4F202000068400500280CD4FFE7FDF7A1
:1058C000A9F90599401A032804D3FFE703208DF8AE
:1058D0001F00B8E2EAE741F20401C4F202010868DD
:1058E00020F0FE40069A126940EA0260086021E05A
:1058F00041F20001C4F20201086820F480700860DF
:10590000FDF788F90590FFE741F20000C4F20200BC
:105910000068400500280CD5FFE7FDF77BF90599E5
:10592000401A032804D3FFE703208DF81F008AE202
:10593000EAE7FFE7FFE7FFE706980078000700289F
:1059400049D5FFE70698406910B3FFE741F294019B
:10595000C4F20201086840F001000860FDF75AF93E
:105960000590FFE741F29400C4F20200006880074E
:1059700000280CD4FFE7FDF74DF90599401A0328DC
:1059800004D3FFE703208DF81F005CE2EAE721E083
:1059900041F29401C4F20201086820F0010008609D
:1059A000FDF738F90590FFE741F29400C4F20200D8
:1059B0000068800700280CD5FFE7FDF72BF9059953
:1059C000401A032804D3FFE703208DF81F003AE2B2
:1059D000EAE7FFE7FFE7069800784007002840F174
:1059E000C680FFE700208DF80B0041F25800C4F29A
:1059F00002000068C000002813D4FFE7FFE741F26F
:105A00005800C4F20200016841F080510160006852
:105A100000F0805001900198FFE701208DF80B0005
:105A2000FFE747F20000C4F200000068C00500284C
:105A300022D4FFE747F20001C4F20001086840F4F5
:105A400080700860FDF7E6F80590FFE747F2000078
:105A5000C4F200000068C00500280CD4FFE7FDF781
:105A6000D9F80599401A032804D3FFE703208DF8DD
:105A70001F00E8E1EAE7FFE7FFE7069880680128F2
:105A800009D1FFE741F29001C4F20201086840F039
:105A9000010008601FE00698806805280DD1FFE727
:105AA00041F29001C4F20201086840F0040008606D
:105AB000086840F0010008600CE041F29001C4F277
:105AC0000201086820F001000860086820F0040066
:105AD0000860FFE7FFE7FFE706988068E0B1FFE7AF
