:020000040800F2
:1000000060670020E5020008897E0008996D0008FD
:10001000857E0008CD050008D5CF0008000000004F
:100020000000000000000000000000007D8A0008C1
:100030001108000800000000498500080D8B000829
:10004000FF020008FF020008FF020008FF0200088C
:10005000FF020008FF020008150800083508000824
:10006000FF020008FF02000841080008A10600087E
:10007000B1060008C1060008D1060008E106000824
:10008000F106000800000000FF02000881CE000811
:1000900091CE0008FF020008FF020008FF020008DE
:1000A000FF020008FF020008FF020008FF0200082C
:1000B000C58B0008FF020008FF020008FF020008CD
:1000C000FF0200089D6D0008FF0200082987000854
:1000D000FF020008FF020008FF0200080D99000857
:1000E00021080008FF020008FF020008FF020008C4
:1000F000FF020008FF020008FF02000800000000E5
:1001000000000000FF02000800000000398700081E
:10011000FF02000800000000FF020008FF020008C4
:10012000010700081107000821070008310700082F
:10013000410700080000000000000000FF02000866
:10014000FF020008FF02000800000000000000009D
:10015000000000000000000000000000000000009F
:10016000000000000000000000000000FF02000886
:10017000FF02000800000000000000000000000076
:1001800000000000FF020008000000000000000066
:10019000000000000000000000000000000000005F
:1001A0000000000000000000FF020008ED740008DD
:1001B000AD6D0008FF020008FF020008000000000B
:1001C00000000000510700080000000000000000CF
:1001D000FF020008FF02000800F002F800F072F8C9
:1001E00014A696E8000CB244B344DA4501D100F0FD
:1001F00069F8BAE80F000FA696E83000A5EB0405F1
:1002000004EB0607AAEB0704A7F101074FEA15154F
:100210004FEA3414A4F10104AC4201D300F052F8C7
:1002200013F0010F18BFFB1A43F0010300F001F8AF
:10023000DBE71847987C0100B87C01000A444FF0C6
:10024000000C10F8013B13F0070408BF10F8014B35
:100250001D1108BF10F8015B641E05D010F8016B7A
:10026000641E01F8016BF9D113F0080F1EBF10F8DE
:10027000014BAD1C0C1B09D16D1E58BF01F801CB01
:10028000FAD505E014F8016B01F8016B6D1EF9D584
:100290009142D6D37047000070470000002300242D
:1002A00000250026103A28BF78C1FBD8520728BF86
:1002B00030C148BF0B6070471FB50DF069F81FBD16
:1002C00010B510BD00F047F91146FFF7F5FF0CF02F
:1002D000E3FE00F065F903B4FFF7F2FF03BC00F0A2
:1002E0006DF900000948804709480047FEE7FEE72E
:1002F000FEE7FEE7FEE7FEE7FEE7FEE7FEE7FEE7D6
:1003000004480549054A064B70470000B18B0008B8
:10031000D901000860370020606700206057002086
:100320006057002053EA020C00F069802DE9F04B81
:100330004FF00006002B1FBFB3FA83F503FA05F454
:1003400024FA05F65E4012BF1643B2FA82F502FAAD
:1003500005F4C5F120051EBF22FA05FC44EA0C0491
:10036000203556EA044C4FEA144418BF641C4FF081
:1003700000084FF00009904271EB030C39D30029BB
:1003800019BFB1FA81F701FA07F6B0FA80F700FA5F
:1003900007F6C7F120071EBF20FA07FC46EA0C0645
:1003A0002037B6FBF4FCA7EB0507103F07F01F0B47
:1003B000CBF120062CFA06F60CFA0BFB44BFB34631
:1003C0000026202FA4BF5E464FF0000B5BEA060C10
:1003D00008BF4FF0010B19EB0B0948EB0608ABFB0C
:1003E000027C06FB02CC0BFB03CCC01B71EB0C01A7
:1003F000C1E70B46024641464846BDE8F08B13B5BF
:10040000084318BF4FF0FF300146AFF30080BDE84E
:100410001C407047032A40F2308010F0030C00F0BB
:10042000158011F8013BBCF1020F624498BF11F82E
:1004300001CB00F8013B38BF11F8013BA2F10402E7
:1004400098BF00F801CB38BF00F8013B11F003035F
:1004500000F02580083AC0F0088051F8043B083AC3
:1004600051F804CBA0E80810F5E7121D5CBF51F865
:10047000043B40F8043BAFF30080D20724BF11F8DF
:10048000013B11F801CB48BF11F8012B24BF00F844
:10049000013B00F801CB48BF00F8012B704710B5B5
:1004A000203AC0F00B80B1E81850A0E81850B1E82D
:1004B0001850A0E81850203ABFF4F5AF5FEA027C6C
:1004C00024BFB1E81850A0E8185044BF18C918C09C
:1004D000BDE810405FEA827C24BF51F8043B40F83D
:1004E000043B08BF7047D20728BF31F8023B48BF22
:1004F00011F8012B28BF20F8023B48BF00F8012B60
:1005000070474FF0000200B51346944696462039D6
:1005100022BFA0E80C50A0E80C50B1F12001BFF4BC
:10052000F7AF090728BFA0E80C5048BF0CC05DF822
:1005300004EB890028BF40F8042B08BF704748BF70
:1005400020F8022B11F0804F18BF00F8012B7047E4
:10055000704770477047754600F02CF8AE460500AE
:100560006946534620F00700854618B020B5FFF7CE
:10057000C7FEBDE820404FF000064FF000074FF0E7
:1005800000084FF0000BAC46ACE8C009ACE8C0096D
:10059000ACE8C009ACE8C00921F007018D467047FE
:1005A00010B50446AFF300802046BDE81040FFF7C9
:1005B00092BE0000004870478801002001491820C1
:1005C000ABBEFEE72600020070470000FFE7FEE733
:1005D00084B08DF80F000291ADF806209DF80F0051
:1005E0000146009123281DD80099DFE801F012137D
:1005F0001415161B1B1B1B1B1B1B1B1B1B1B1B1B5D
:100600001B1B1B1B1B1B1B1B1B1B1B1B1B1B171841
:10061000191A08E007E006E005E004E003E002E064
:1006200001E000E0FFE7002004B0704700207047C1
:1006300080B582B040F67460C2F20000009040F6CF
:100640007021C2F200010022019209F02DFC0098F5
:1006500040F27061C2F2000109F00CFC019802B096
:1006600080BD000080B584B003900291039940F6EC
:100670007460C2F20000019009F0FCFB019809F0DF
:10068000A3FB002004B080BD83B0029001918DF8DF
:10069000032000208DF802009DF9020003B070478E
:1006A00080B541F2B010C2F2000001F041F880BD07
:1006B00080B541F21020C2F2000001F039F880BD8F
:1006C00080B541F27020C2F2000001F031F880BD27
:1006D00080B541F2D020C2F2000001F029F880BDBF
:1006E00080B541F2B040C2F2000001F021F880BDB7
:1006F00080B541F21050C2F2000001F019F880BD3F
:1007000080B541F27050C2F2000001F011F880BDD6
:1007100080B541F2D050C2F2000001F009F880BD6E
:1007200080B541F23030C2F2000001F001F880BD26
:1007300080B541F29030C2F2000000F0F9FF80BDB8
:1007400080B541F2F030C2F2000000F0F1FF80BD50
:1007500080B541F25040C2F2000000F0E9FF80BDD8
:1007600084B003900398006840F20741C4F202018C
:10077000884206D8FFE740F60000C4F2020000906D
:1007800005E040F62000C4F202000090FFE7009868
:1007900002900398007808384CF6CD41CCF6CC4155
:1007A000A0FB011000090190029803994A6C22F005
:1007B000030210448864039940F68000C4F20200EA
:1007C000C864019800F01F01012088400399086562
:1007D00004B0704782B001900198007900900099B0
:1007E00040F6FC00C4F2020000EB8100019948656C
:1007F000019940F64010C4F2020088650098013863
:1008000000F01F01012088400199C86502B07047BF
:100810007047000080B5012001F00AF980BD00009A
:1008200080B54FF4805001F003F94FF4005001F00F
:10083000FFF880BD80B5022001F0FAF880BD00000D
:1008400080B5102001F0F4F880BD000081B0EFF316
:10085000108072B60090FFE7FEE7000080B584B01C
:1008600047F29050C1F6FF700068039047F2945031
:10087000C1F6FF700068029047F29850C1F6FF7011
:10088000006801900199039808440390039888B187
:10089000FFE7039840F26411C2F2000100910231B7
:1008A000082206F08BFA009902981231042206F011
:1008B00085FAFFE704B080BD80B5A4B022902191F5
:1008C00000208DF883002198006808B1FFE7FFE75A
:1008D000FFE7229890F85800012804D1FFE7022092
:1008E0008DF88F009FE02299012081F85800FFE7E2
:1008F000FFE700201B901C9022980068B0F1A04FE9
:1009000006D1FFE740F20010C5F20000049002E0BB
:1009100000200490FFE7049878B9FFE72299C86D9A
:1009200040F02000C865FFE72299002081F85800B8
:10093000FFE701208DF88F0075E0049806F0F6FCC3
:1009400003902298006806F0F1FC002857D1FFE7D9
:100950000398002853D1FFE740F20030C5F20000B1
:100960001F902198006860B3FFE71F98806820F40B
:10097000604021994968229A92F8382041EA423130
:1009800008431F9988604FF0A04006F0B7FC029022
:1009900040F20010C5F2000006F0B0FC01460298DB
:1009A000084368B9FFE71F98806840F61F718843C5
:1009B000219A11689268114308431F998860FFE7E4
:1009C0001CE01F99886820F4604088604FF0A040C8
:1009D00006F094FC019040F20010C5F2000006F011
:1009E0008DFC01460198084338B9FFE71F998868D4
:1009F00040F61F7290438860FFE7FFE708E0229906
:100A0000C86D40F02000C86501208DF88300FFE725
:100A1000FFE72299002081F85800FFE79DF8830046
:100A20008DF88F00FFE79DF88F0024B080BD000097
:100A300080B5C0B020901F9100208DF87B001B90E6
:100A40001F98C0680021C4F27F01884201D0FFE7EF
:100A500000E0FFE7FFE7209890F85800012804D154
:100A6000FFE702208DF88700D2E32099012081F86A
:100A70005800FFE7FFE72098006806F04FFC0028C9
:100A800040F0B283FFE7209800681F990A68496820
:100A900006F054FC2098006806F040FC1A9020985C
:100AA000006806F013FC19901A98002840F0B881ED
:100AB000FFE71998002840F0B381FFE71F9880688E
:100AC000B0F1004F0ED1FFE7209800681F99096828
:100AD000002206F051FC209800684FF0004106F01B
:100AE000F7FC0CE0209800681F9A1168926806F0E5
:100AF00043FC20980068002106F0EAFCFFE71F98FD
:100B0000406920990968C96801F01801890888407E
:100B10001D901F98006904281CD0FFE720980068EA
:100B20001F990A6809691D9B06F078FC20980068E7
:100B30001F9A1169926906F0A3FC209800681F9A19
:100B40001169127F013AB2FA82F25209520606F096
:100B500083FC64E120980068002106F0A7FB4003B5
:100B600048B9FFE720980068002106F09FFBC0F31A
:100B70008460189018E020980068002106F096FB29
:100B800090FAA0F03E903E9820B9FFE720208DF823
:100B9000FF0005E03E98B0FA80F08DF8FF00FFE717
:100BA0009DF8FF001890FFE7189817901F980068AD
:100BB000400330B9FFE71F980068C0F384601690C7
:100BC00015E01F98006890FAA0F03C903C9820B97E
:100BD000FFE720208DF8F70005E03C98B0FA80F0A0
:100BE0008DF8F700FFE79DF8F7001690FFE71798DC
:100BF0001699884207D1FFE7209800680022114625
:100C000006F052FCFFE720980068012106F04EFB39
:100C1000400348B9FFE720980068012106F046FB31
:100C2000C0F38460159018E020980068012106F058
:100C30003DFB90FAA0F03A903A9820B9FFE72020C7
:100C40008DF8EF0005E03A98B0FA80F08DF8EF00EB
:100C5000FFE79DF8EF001590FFE7159814901F9897
:100C60000068400330B9FFE71F980068C0F3846054
:100C7000139015E01F98006890FAA0F0389038980B
:100C800020B9FFE720208DF8E70005E03898B0FA9A
:100C900080F08DF8E700FFE79DF8E7001390FFE78D
:100CA00014981399884207D1FFE720980068012122
:100CB000002206F0F9FBFFE720980068022106F009
:100CC000F5FA400348B9FFE720980068022106F0D2
:100CD000EDFAC0F38460129018E0209800680221B9
:100CE00006F0E4FA90FAA0F03690369820B9FFE7C3
:100CF00020208DF8DF0005E03698B0FA80F08DF8FE
:100D0000DF00FFE79DF8DF001290FFE712981190D7
:100D10001F980068400330B9FFE71F980068C0F3D0
:100D20008460109015E01F98006890FAA0F034904D
:100D3000349820B9FFE720208DF8D70005E03498DB
:100D4000B0FA80F08DF8D700FFE79DF8D70010903B
:100D5000FFE711981099884207D1FFE720980068B3
:100D60000221002206F0A0FBFFE720980068032183
:100D700006F09CFA400348B9FFE720980068032179
:100D800006F094FAC0F384600F9018E02098006891
:100D9000032106F08BFA90FAA0F03290329820B935
:100DA000FFE720208DF8CF0005E03298B0FA80F000
:100DB0008DF8CF00FFE79DF8CF000F90FFE70F9869
:100DC0000E901F980068400330B9FFE71F98006835
:100DD000C0F384600D9015E01F98006890FAA0F0B1
:100DE0003090309820B9FFE720208DF8C70005E04B
:100DF0003098B0FA80F08DF8C700FFE79DF8C70083
:100E00000D90FFE70E980D99884207D1FFE72098D3
:100E100000680321002206F047FBFFE7FFE7FFE73A
:100E20002098006806F062FA002840F04481FFE74D
:100E3000209800681F9A1168D26806F0B9FA1F98C6
:100E4000C0680021C4F27F01884240F03381FFE78F
:100E5000209800680C901F980068400330B9FFE7A5
:100E60001F980068C0F384600B9015E01F9800681D
:100E700090FAA0F02E902E9820B9FFE720208DF850
:100E8000BF0005E02E98B0FA80F08DF8BF00FFE7B4
:100E90009DF8BF000B90FFE70B98013000F01F009A
:100EA00009287DD8FFE71F980068400330B9FFE7A5
:100EB0001F980068C0F384600A9015E01F980068CE
:100EC00090FAA0F02C902C9820B9FFE720208DF804
:100ED000B70005E02C98B0FA80F08DF8B700FFE776
:100EE0009DF8B7000A90FFE70A98013000F01F0054
:100EF000800609901F980068400330B9FFE71F98EB
:100F00000068C0F38460089015E01F98006890FAAC
:100F1000A0F02A902A9820B9FFE720208DF8AF0092
:100F200005E02A98B0FA80F08DF8AF00FFE79DF851
:100F3000AF000890FFE709980899013101F01F02FE
:100F400001219140084307901F980068400330B981
:100F5000FFE71F980068C0F38460069015E01F98B3
:100F6000006890FAA0F02890289820B9FFE7202088
:100F70008DF8A70005E02898B0FA80F08DF8A7005A
:100F8000FFE79DF8A7000690FFE707980699013153
:100F900001F01F0101EB410140EA0150059082E0A0
:100FA0001F980068400330B9FFE71F980068C0F33E
:100FB0008460049015E01F98006890FAA0F02690D5
:100FC000269820B9FFE720208DF89F0005E026989D
:100FD000B0FA80F08DF89F00FFE79DF89F00049025
:100FE000FFE70498013000F01F00800603901F986F
:100FF0000068400330B9FFE71F980068C0F38460C1
:10100000029015E01F98006890FAA0F024902498B0
:1010100020B9FFE720208DF8970005E02498B0FA6A
:1010200080F08DF89700FFE79DF897000290FFE7AA
:1010300003980299013101F01F02012191400843F8
:1010400001901F980068400330B9FFE71F980068BF
:10105000C0F38460009015E01F98006890FAA0F03B
:101060002290229820B9FFE720208DF88F0005E01C
:101070002298B0FA80F08DF88F00FFE79DF88F007E
:101080000090FFE701990098013000F01F0000EB8D
:1010900040020020CFF6206000EB0250084340F0F1
:1010A00000700590FFE70C9805991F9A926806F06A
:1010B00063F9FFE7FFE71F98408848F208010842FC
:1010C00000F09180FFE740F20030C5F2000006F02A
:1010D000E5F81C901F9800680021CCF2213188426D
:1010E00008D0FFE71F9800681021C9F2C0018842AC
:1010F00032D1FFE79DF87200000600282CD4FFE7EC
:1011000020980068B0F1A04F25D1FFE71C9840F46B
:10111000000140F20030C5F2000006F071F940F223
:101120002400C2F200000068800942F66351C0F258
:101130003E51A0FB0110800900EB40010C2000EBA8
:1011400081001B90FFE71B9820B1FFE71B98013837
:101150001B90F8E7FFE745E01F9800680021CCF2FC
:101160005271884219D1FFE79DF87300C007A0B9FA
:10117000FFE72098006840F20011C5F200018842A4
:101180000AD0FFE71C9840F0807140F20030C5F2B1
:10119000000006F035F9FFE723E01F980068002102
:1011A000CCF6843188421AD1FFE79DF872004006E0
:1011B000002814D4FFE72098006840F20011C5F21F
:1011C000000188420AD0FFE71C9840F4800140F2F9
:1011D0000030C5F2000006F013F9FFE700E0FFE77A
:1011E000FFE7FFE7FFE708E02099C86D40F0200027
:1011F000C86501208DF87B00FFE7FFE720990020FC
:1012000081F85800FFE79DF87B008DF88700FFE725
:101210009DF8870040B080BD80B588B00690002062
:101220008DF817000190069820B9FFE701208DF88E
:101230001F0079E10698406940B1FFE7069890F8F1
:101240002400012801D1FFE7FFE7FFE70698C06D02
:1012500050B9FFE7069800F06BF906990020086680
:10126000069981F85800FFE70698006806F036F8FE
:1012700028B1FFE70698006805F0F4FFFFE706983D
:10128000006806F043F8F0B9FFE70698006805F03B
:10129000F5FF40F22400C2F200000068800942F627
:1012A0006351C0F23E51A0FB01108109022000EB06
:1012B00041000190FFE7019820B1FFE70198013854
:1012C0000190F8E7FFE70698006806F01FF870B98C
:1012D000FFE70699C86D40F01000C8650699086ED2
:1012E00040F00100086601208DF81700FFE706981E
:1012F000006806F013F803900698C06DC006002839
:1013000000F10481FFE70398002840F0FF80FFE729
:101310000698C06D40F0020020F480700699C86500
:101320000698006805F0E2FFD0B9FFE74FF0A04053
:1013300005F0DCFF009040F20010C5F2000005F05F
:10134000D5FF01460098084348B9FFE70698416871
:1013500040F20030C5F2000006F044F8FFE7FFE776
:1013600006994A7FC86B40EA42308A68CB681843C6
:10137000104391F8241040EA01400490069890F838
:10138000240001280BD1FFE70698816A0020CFF6E0
:10139000FE7000EB4141049808430490FFE7069873
:1013A000C06A50B1FFE70699C86A096B00F478700B
:1013B0000143049808430490FFE706980068C0685A
:1013C00044F20701CFF6F0710840049908430699EA
:1013D0000968C86006980068006920F04060069AB5
:1013E0001168526B104308610698006805F06EFFA3
:1013F00002900398002868D1FFE70298002864D182
:10140000FFE70699087F91F83810800340EA410011
:10141000049006980068C06844F202018843049969
:10142000084306990968C86006980069A0B1FFE7FB
:1014300006980168086940F48030086106980068E1
:10144000D0F8C00043F6FF718843069A116812690C
:101450001043C1F8C00011E006980168086920F443
:101460008030086106980068D0F8C00043F6FF712C
:10147000884306990968C1F8C000FFE7069890F80C
:101480004000012819D1FFE706980068006940F282
:10149000FD7120EA0102069B1968586CD3F848E0F8
:1014A000D3F84CC040EA0E0040EA0C001B6D184314
:1014B000104340F00100086106E0069801680869E1
:1014C00020F001000861FFE7FFE706984069012866
:1014D0000CD1FFE706980068006B20F00F00069A19
:1014E0001168126A013A1043086306E00698016821
:1014F000086B20F00F000863FFE70698C06D40F00E
:10150000010020F002000699C86508E00699C86D40
:1015100040F01000C86501208DF81700FFE79DF826
:1015200017008DF81F00FFE79DF81F0008B080BD71
:1015300080B59AB0199000201890179016901590C9
:10154000149003A84421FEF7DCFF19980068B0F15D
:10155000A04F3AD1FFE74FF4004003904FF0005006
:10156000129003A802F0FAFA18B1FFE7FFF76EF93C
:10157000FFE7FFE741F24C00C4F20200016841F4CA
:1015800000510160006800F4005002900298FFE7EB
:10159000FFE741F24C00C4F20200016841F0020191
:1015A0000160006800F0020001900198FFE701204F
:1015B0001490032015900020169040F20040C4F6CD
:1015C000000014A900F050FAFFE71AB080BD000037
:1015D00082B0019000208DF80300019890F825005A
:1015E000022807D0FFE701990420C86301208DF885
:1015F00003002DE001980168086820F00E000860E3
:101600000198816C086820F4807008600198016876
:10161000086820F0010008600198016C406C00F03F
:101620001F020120904048600198C16C006D486025
:101630000198406D58B1FFE70198416D086820F4AA
:10164000807008600198816DC06D4860FFE7FFE71A
:101650000199012081F82500FFE70199002081F818
:101660002400FFE79DF8030002B0704780B582B008
:10167000019000208DF80300019890F825000228C1
:1016800011D0FFE701990420C8630199012081F876
:101690002500FFE70199002081F82400FFE70120E1
:1016A0008DF803003FE001980168086820F00E0003
:1016B000086001980168086820F00100086001983E
:1016C000816C086820F4807008600198016C406C9F
:1016D00000F01F020120904048600198C16C006D2D
:1016E00048600198406D58B1FFE70198416D086866
:1016F00020F4807008600198816DC06D4860FFE73C
:101700000199012081F82500FFE70199002081F867
:101710002400FFE70198806B20B1FFE70198816BFF
:101720008847FFE7FFE79DF8030002B080BD000097
:1017300080B584B003900398006C00680290039811
:1017400000680068019002980399496C01F01F013C
:10175000C8404007002825D5FFE79DF80400400752
:1017600000281FD5FFE7039800680068800600285E
:1017700007D4FFE703980168086820F004000860B8
:10178000FFE70398016C406C00F01F0204209040BA
:1017900048600398006B20B1FFE70398016B88470E
:1017A000FFE76EE002980399496C01F01F01C84001
:1017B000800700282FD5FFE79DF804008007002848
:1017C00029D5FFE7039800680068800600280BD43D
:1017D000FFE703980168086820F00A000860039991
:1017E000012081F82500FFE70398016C406C00F0B0
:1017F0001F02022090404860FFE70399002081F813
:101800002400FFE70398C06A20B1FFE70398C16A8C
:101810008847FFE734E002980399496C01F01F0103
:10182000C8400007002829D5FFE79DF804000007FD
:10183000002823D5FFE703980168086820F00E0010
:1018400008600398026C406C00F01F01012000FA50
:1018500001F151600399C863039981F82500FFE7FE
:101860000399002081F82400FFE70398406B20B122
:10187000FFE70398416B8847FFE700E0FFE7FFE7DA
:10188000FFE704B080BD000080B584B002900298EC
:1018900020B9FFE701208DF80F009CE00298006856
:1018A00040F20741C4F20201884218D8FFE70299CA
:1018B00008684FF6F872CBF6FD7210444CF6CD4234
:1018C000CCF6CC42A0FB02026FF0030000EA9200CB
:1018D000486402990020C4F20200086418E00299EA
:1018E00008684FF6F832CBF6FD7210444CF6CD4244
:1018F000CCF6CC42A0FB02026FF0030000EA92009B
:101900004864029940F20040C4F202000864FFE714
:101910000299022081F82500029800680068019071
:10192000019847F6F0718843019002998868D1F8D0
:101930000CC00B694A6940EA0C00184310438A69DD
:101940001043CA691043096A014301980843019092
:1019500001980299096808600298FEF701FF029851
:101960008068B0F5804F04D1FFE7029900204860FD
:10197000FFE702990879896C08600298C16C006DD4
:1019800048600298406888B1FFE7029840680428E0
:101990000CD8FFE70298FEF71DFF0298416D00206A
:1019A00008600298816DC06D486007E002990020D0
:1019B0004865029988650299C865FFE70299002089
:1019C000C863029A012182F82510029981F8240047
:1019D0008DF80F00FFE79DF80F0004B080BD0000F8
:1019E00080B584B0039000F01DFA02900398019036
:1019F0000198013048B1FFE740F28010C2F20000C8
:101A00000168019808440190FFE7FFE700F00AFA37
:101A10000299401A0199884201D2FFE7F6E704B023
:101A200080BD000081B0ADF8020001B07047000039
:101A300080B582B0ADF8060040F21440C4F2010057
:101A40000068BDF8061008420CD0FFE7BDF806009C
:101A500040F21441C4F201010860BDF80600FFF72E
:101A6000E1FFFFE702B080BD8BB00A900991002032
:101A70000890FFE7099800680899C840002800F01E
:101A8000A581FFE709980068089A01219140084064
:101A900007900798002800F09581FFE709984068B3
:101AA00000F00300012807D0FFE70998406800F024
:101AB000030002282FD1FFE70A9880680690089853
:101AC0004100032000FA01F1069888430690099826
:101AD000C0680899490000FA01F106980843069089
:101AE00006980A9988600A9840680690089901202B
:101AF00000FA01F106988843069009984068C0F3FF
:101B00000010089900FA01F106980843069006981B
:101B10000A994860FFE70998406800F0030003282D
:101B200018D0FFE70A98C068069008984100032083
:101B300000FA01F106988843069009988068089990
:101B4000490000FA01F106980843069006980A99A0
:101B5000C860FFE70998406800F00300022826D11A
:101B6000FFE70A9808996FF0030202EA510108445E
:101B7000006A0690089800F0070081000F2000FA24
:101B800001F106988843069009980069089901F0C8
:101B90000701890000FA01F10698084306900698AB
:101BA0000A99089B02EA530211440862FFE70A9867
:101BB0000068069008984100032000FA01F1069899
:101BC000884306900998406800F00300089949008E
:101BD00000FA01F106980843069006980A990860F1
:101BE000099880798007002800F0EB80FFE7FFE785
:101BF00041F26000C4F20200016841F0010101609D
:101C0000006800F0010005900598FFE7089820F0B3
:101C100003000821C4F2010140580690089800F022
:101C2000030081000F2000FA01F106988843069016
:101C30000A98B0F1904F03D1FFE70020049042E0F2
:101C40000A9840F20041C4F60001884203D1FFE740
:101C50000120039034E00A9840F60001C4F6000128
:101C6000884203D1FFE70220029026E00A9840F65E
:101C70000041C4F60001884203D1FFE70320019030
:101C800018E00A9841F20001C4F60001884203D12D
:101C9000FFE7042000900AE00A9941F20042C4F6EE
:101CA00000020620914208BF05200090FFE700983F
:101CB0000190FFE701980290FFE702980390FFE789
:101CC00003980490FFE70498089901F00301890044
:101CD00000FA01F10698084306900698089921F049
:101CE00003010822C4F20102885040F20840C4F205
:101CF00001000068069007990698884306900998A5
:101D00008079C006002805D5FFE7079906980843A3
:101D10000690FFE7069840F20841C4F2010108600E
:101D200040F20C40C4F20100006806900799069842
:101D300088430690099880798006002805D5FFE73A
:101D40000799069808430690FFE7069840F20C4171
:101D5000C4F20101086040F20440C4F201000068CE
:101D6000069007990698884306900998807980071D
:101D7000002805D5FFE70799069808430690FFE776
:101D8000069840F20441C4F20101086040F20040AC
:101D9000C4F20100006806900799069888430690EF
:101DA00009988079C00728B1FFE70799069808438A
:101DB0000690FFE7069840F20041C4F20101086076
:101DC000FFE7FFE708980130089053E60BB0704733
:101DD00083B00290ADF80610029840690090009A16
:101DE000BDF8060002EA0001904340EA0140029972
:101DF000886103B07047000082B00190ADF8021016
:101E00008DF801209DF8010028B1FFE7BDF8020020
:101E10000199886104E0BDF8020001998862FFE73A
:101E200002B0704741F61C50C2F2000000687047D3
:101E300083B001900091019890F8410020283BD197
:101E4000FFE7FFE7019890F84000012804D1FFE781
:101E500002208DF80B0033E00199012081F8400049
:101E6000FFE7FFE70199242081F84100019801680C
:101E7000086820F00100086001980168086820F4F3
:101E800080500860009A0198016808681043086053
:101E900001980168086840F001000860019920205D
:101EA00081F84100FFE70199002081F84000FFE739
:101EB00000208DF80B0003E002208DF80B00FFE7F7
:101EC0009DF80B0003B0704784B002900191029816
:101ED00090F84100202840D1FFE7FFE7029890F8F2
:101EE0004000012804D1FFE702208DF80F0038E000
:101EF0000299012081F84000FFE7FFE702992420C2
:101F000081F8410002980168086820F0010008602B
:101F10000298006800680090009820F470600090BB
:101F20000199009840EA0120009000980299096800
:101F3000086002980168086840F001000860029992
:101F4000202081F84100FFE70299002081F840003D
:101F5000FFE700208DF80F0003E002208DF80F004E
:101F6000FFE79DF80F0004B07047000080B584B013
:101F700003900398006880690290039800680068E5
:101F800001900398406B30B1FFE70398436B0299CF
:101F9000019A9847FFE704B080BD000080B582B089
:101FA0000090009820B9FFE701208DF807007BE042
:101FB000009890F8410040B9FFE70099002081F8AF
:101FC0004000009800F074F8FFE70099242081F8A1
:101FD000410000980168086820F00100086000983E
:101FE0000168406820F070600861009801688868A6
:101FF00020F4004088600098C068012807D1FFE7FE
:1020000000980168806840F40040886006E000980D
:102010000168806840F404408860FFE70098C06869
:10202000022807D1FFE700980168486840F4006083
:10203000486006E000980168486820F40060486045
:10204000FFE700980168486848F20002C0F20022E9
:102050001043486000980168C86820F40040C860D8
:10206000009A1168106953699269184340EA022086
:10207000C860009A1168D069126A1043086000981D
:102080000168086840F00100086000990020486479
:10209000009A202182F8411000990863009981F884
:1020A00042008DF80700FFE79DF8070002B080BDF1
:1020B00080B5A2B02190002020901F901E901D900E
:1020C0001C900BA84421FEF71CFA2198006845F6E5
:1020D0000001C4F20001884240F08F80FFE78020B9
:1020E0000B90002012900BA801F038FD18B1FFE70B
:1020F000FEF7ACFBFFE7FFE741F24C00C4F2020041
:10210000016841F001010160006800F001000A90DF
:102110000A98FFE74FF440701C9012201D90002099
:102120001E901F90042020904FF090401CA9FFF7B4
:102130009BFCFFE741F25800C4F20200016841F441
:1021400080010160006800F4800009900998FFE7B1
:1021500041F2B010C2F2000006900821C4F2020160
:1021600001601221416000218160C1608022026112
:1021700041618161C1610162FFF786FB18B1FFE730
:10218000FEF764FBFFE7FFE7219841F2B011C2F2CE
:102190000001C16321988862FFE741F21020C2F27A
:1021A000000005901C21C4F202010160132141606E
:1021B000102181600021C160802202614161816142
:1021C000C1610162FFF760FB18B1FFE7FEF73EFB5C
:1021D000FFE7FFE7219841F21021C2F2000181637D
:1021E00021988862FFE7212004900022114600F028
:1021F0003BF9049800F02EF99BE02198006847F61F
:102200000001C4F20001884240F09280FFE74FF4E1
:1022100080700B90002013900BA801F09FFC18B168
:10222000FFE7FEF713FBFFE7FFE741F24C00C4F2C4
:102230000200016841F004010160006800F0040040
:1022400008900898FFE74FF440701C9012201D90F2
:1022500000201E901F900820209040F60000C4F639
:1022600000001CA9FFF700FCFFE741F25800C4F290
:102270000200016841F080410160006800F0804088
:1022800007900798FFE741F27020C2F20000039028
:102290003021C4F2020101601421416000218160FB
:1022A000C1608022026141618161C1610162FFF709
:1022B000EBFA18B1FFE7FEF7C9FAFFE7FFE721984D
:1022C00041F27021C2F20001C16321988862FFE7E8
:1022D00041F2D020C2F2000002904421C4F2020177
:1022E000016015214160102181600021C1608022C0
:1022F000026141618161C1610162FFF7C5FA18B1F4
:10230000FFE7FEF7A3FAFFE7FFE7219841F2D021AC
:10231000C2F20001816321988862FFE75C2001908E
:102320000022114600F0A0F8019800F093F8FFE7B2
:10233000FFE722B080BD000040F28010C2F2000032
:10234000026841F61C51C2F200010868104408609E
:102350007047000080B582B000208DF80700032090
:1023600000F09AF80F2000F00DF820B1FFE70120EF
:102370008DF8070002E000F049F8FFE79DF807003C
:1023800002B080BD80B582B0019000208DF80300BE
:1023900040F28010C2F20000006878B3FFE740F21C
:1023A0002400C2F20000006840F28011C2F2000175
:1023B0000A684FF47A71B1FBF2F1B0FBF1F003F06F
:1023C000BBFAB0B9FFE701980F280DD8FFE70199D4
:1023D0004FF0FF30002200F047F8019840F28411DE
:1023E000C2F20001086003E001208DF80300FFE75E
:1023F00003E001208DF80300FFE703E001208DF8E2
:102400000300FFE79DF8030002B080BD80B582B0F5
:10241000FFE741F26000C4F20200016841F00101EF
:102420000160006800F0010001900198FFE7FFE7FC
:1024300041F25800C4F20200016841F0805101608D
:10244000006800F0805000900098FFE701F072FBF8
:1024500002B080BD80B582B08DF807009DF90700FD
:102460000AF0BAFD02B080BD80B586B08DF81700C5
:10247000049103920AF0C8FD02909DF917000190A3
:1024800002980499039A05F001FD014601980AF0AB
:10249000C3FD06B080BD000080B582B001900198F8
:1024A0000AF0DCFD02B080BD82B0019001980068A6
:1024B000009001990120C1F8D0020199002081F813
:1024C000C802009AB2F8541041F00101A2F8541069
:1024D000009AB2F8541041F00201A2F8541002B070
:1024E0007047000080B584B003908DF80B109DF804
:1024F0000B000146019120B1FFE70198012815D09A
:1025000027E00398407A58B1FFE706F003FB4EF648
:102510001051CEF20001086820F006000860FFE7C5
:102520000398D0F8D80208F0A9FB12E00398D0F87D
:10253000D80208F089FC0398407A48B1FFE74EF6CC
:102540001051CEF20001086840F006000860FFE775
:10255000FFE704B080BD000084B00390ADF80A101E
:10256000ADF808200193BDF80A00000600280CD53C
:10257000FFE70398BDF80A1001F0070101EB8101A4
:1025800000EBC100103000900AE00398BDF80A107B
:1025900001EB810100EBC10000F5A8700090FFE79E
:1025A000BDF8080038B9FFE70099002008730198CA
:1025B0000099C8800AE000990120087301980099E9
:1025C0000881BDF8060000994881FFE7002004B0AB
:1025D0007047000080B582B001908DF80310019A19
:1025E000D2F8D8029DF8031001EB810302EBC3027D
:1025F000526A08F0FBF802B080BD000080B582B0DE
:1026000001908DF80310019AD2F8D8029DF80310BA
:1026100001EB810302EBC302D2F8642108F08CF9CC
:1026200002B080BD80B584B002908DF807109DF88F
:102630000700000600280FD5FFE702989DF8071055
:1026400001F0070101EB810100EBC10010300090A7
:102650000099012048700FE002989DF8071001F0E2
:10266000070101EB810100EBC10000F5A8700090AB
:10267000009900204870FFE79DF8070000F0070070
:1026800000990870FFE7029890F89002012804D1A1
:10269000FFE702208DF80F0014E00299012081F875
:1026A0009002FFE7FFE702980068009909F028FC14
:1026B000FFE70299002081F89002FFE700208DF8E3
:1026C0000F00FFE79DF80F0004B080BD80B584B017
:1026D00002908DF807109DF8070000F00F00029996
:1026E0000979884204D9FFE701208DF80F004DE0F9
:1026F0009DF80700000600280FD5FFE702989DF817
:10270000071001F0070101EB810100EBC10010305F
:1027100000900099012048700FE002989DF8071082
:1027200001F0070101EB810100EBC10000F5A87089
:102730000090009900204870FFE700990020887001
:102740009DF8070000F0070000990870FFE7029865
:1027500090F89002012804D1FFE702208DF80F00C5
:1027600014E00299012081F89002FFE7FFE7029848
:102770000068009909F0A4FDFFE70299002081F8A4
:102780009002FFE700208DF80F00FFE79DF80F0093
:1027900004B080BD80B586B005900491ADF80E20E0
:1027A000BDF80E004004002876D5FFE705980068C4
:1027B000B0F850000499097800EBC1000599096848
:1027C0000844B0F802046FF39F20ADF80C000498A1
:1027D0008069BDF80C10884207D3FFE7BDF80C20D4
:1027E00004998869801A886103E00499002088614F
:1027F000FFE704988069F8B9FFE7FFE705980068EC
:102800000499097830F821004BF68F710840ADF833
:102810000A00BDF80A0080F40050ADF80A00BDF8C7
:102820000A0048F28001084305990968049A127861
:1028300021F82200FFE7FFE7BDF80E004006002860
:102840001BD5FFE7FFE7FFE70598006804990978C3
:1028500030F8210048F68F710840ADF80800BDF847
:10286000080048F2C001084305990968049A1278E3
:1028700021F82200FFE7FFE7FFE7BDF80C0050B1A9
:10288000FFE705980068049A51691289BDF80C3079
:102890000AF010FBFFE775E005980068B0F85000FB
:1028A0000499097800EBC100059909680844B0F85B
:1028B00006046FF39F20ADF80C0004988069BDF802
:1028C0000C10884207D3FFE7BDF80C2004998869F3
:1028D000801A886103E0049900208861FFE704986A
:1028E0008069F8B9FFE7FFE705980068049909785F
:1028F00030F821004BF68F710840ADF80600BDF8A6
:10290000060080F40050ADF80600BDF8060048F25D
:102910008001084305990968049A127821F8220079
:10292000FFE7FFE7BDF80E00400600281BD4FFE7D5
:10293000FFE7FFE7059800680499097830F821005F
:1029400048F68F710840ADF80400BDF8040048F265
:10295000C001084305990968049A127821F82200F9
:10296000FFE7FFE7FFE7BDF80C0050B1FFE7059870
:102970000068049A51695289BDF80C300AF09AFA3D
:10298000FFE7FFE7BDF80C0006B080BD80B5AAB038
:1029900028902791ADF89A20BDF89A0040060028AB
:1029A00040F1E181FFE728980068B0F850002799CE
:1029B000097800EBC100289909680844B0F80204BE
:1029C0006FF39F20ADF8920027988069BDF89210B0
:1029D000884207D9FFE7BDF8922027998869801AB5
:1029E000886103E0279900208861FFE727988069C4
:1029F000002840F0D780FFE7FFE72798407808BB22
:102A0000FFE7FFE728980068239028980068B0F84F
:102A1000501023980844239023982799097800EBB5
:102A2000C10000F202402290FFE7229908886FF36C
:102A30009F2008802299088840F400400880FFE722
:102A4000FFE71DE027984078012818D1FFE7FFE74E
:102A500028980068209028980068B0F850102098B6
:102A60000844209020982799097800EBC10000F2D3
:102A700002401F901F9900200880FFE7FFE7FFE753
:102A8000FFE7FFE7289800681E902798407808BB6A
:102A9000FFE7FFE7289800681C9028980068B0F8C6
:102AA00050101C9808441C901C982799097800EB3A
:102AB000C10000F206401B90FFE71B9908886FF3E6
:102AC0009F2008801B99088840F400400880FFE799
:102AD000FFE718E027984078012813D1FFE72898EE
:102AE0000068B0F850101E9808441E901E98279950
:102AF000097800EBC10000F206401D901D990020EE
:102B00000880FFE7FFE7FFE72798C07802281FD17A
:102B1000FFE7FFE7289800682799097830F8210037
:102B200048F6BF710840ADF86600BDF8660080F059
:102B30002000ADF86600BDF8660048F28001084349
:102B400028990968279A127821F82200FFE7FFE701
:102B5000289827990978FFF73DFDBDF89A004004B1
:102B600000281BD5FFE7FFE7FFE7289800682799B3
:102B7000097830F8210048F68F710840ADF86400FC
:102B8000BDF864004CF28001084328990968279A2F
:102B9000127821F82200FFE7FFE7FFE700208DF819
:102BA000A700E6E2BDF89A00400400281BD5FFE725
:102BB000FFE7FFE7289800682799097830F8210097
:102BC00048F68F710840ADF86200BDF862004CF223
:102BD0008001084328990968279A127821F8220071
:102BE000FFE7FFE7FFE7279890F82400012840F06F
:102BF000B880FFE7BDF892202799486910444861E2
:102C0000BDF892202799C8691044C86127980169C6
:102C1000006A884209D3FFE7279800692590259A22
:102C20002799086A801A086216E02798006A40B956
:102C3000FFE7BDF8920025902799002081F8240035
:102C400009E02799002081F824002799096A259135
:102C500027990862FFE7FFE7FFE7279840780028F9
:102C600056D1FFE7FFE7289800681790289800687A
:102C7000B0F85010179808441790179827990978BA
:102C800000EBC10000F202401690FFE71699088899
:102C90006FF39F200880259830B9FFE716990888C0
:102CA00040F40040088030E025983E2815D8FFE722
:102CB000FFE72598400815909DF89400C00720B1C3
:102CC000FFE7159801301590FFE7159A16990888C7
:102CD00040EA82200880FFE716E0FFE725984009D8
:102CE00015909DF89400C00620B9FFE715980138AB
:102CF0001590FFE7159A1699088840EA822040F45B
:102D000000400880FFE7FFE7FFE7FFE7FFE71DE080
:102D100027984078012818D1FFE7FFE72898006836
:102D2000149028980068B0F8501014980844149033
:102D300014982799097800EBC10000F20240139023
:102D4000259813990880FFE7FFE7FFE7FFE728983A
:102D50000068279A51691289BDF894300AF0FCF88E
:102D6000FFE7FFE7DDE128980068B0F850002799F9
:102D7000097800EBC100289909680844B0F80604F6
:102D80006FF39F20ADF8920027988069BDF89210EC
:102D9000884207D3FFE7BDF8922027998869801AF7
:102DA000886103E0279900208861FFE72798806900
:102DB000002840F0D780FFE7FFE72798407808BB5E
:102DC000FFE7FFE728980068129028980068B0F89D
:102DD000501012980844129012982799097800EB25
:102DE000C10000F202401190FFE7119908886FF3CB
:102DF0009F2008801199088840F400400880FFE770
:102E0000FFE71DE027984078012818D1FFE7FFE78A
:102E1000289800680F9028980068B0F850100F9814
:102E200008440F900F982799097800EBC10000F231
:102E300002400E900E9900200880FFE7FFE7FFE7B1
:102E4000FFE7FFE7289800680D902798407808BBB7
:102E5000FFE7FFE7289800680B9028980068B0F813
:102E600050100B9808440B900B982799097800EBA9
:102E7000C10000F206400A90FFE70A9908886FF344
:102E80009F2008800A99088840F400400880FFE7E6
:102E9000FFE718E027984078012813D1FFE728982A
:102EA0000068B0F850100D9808440D900D982799BF
:102EB000097800EBC10000F206400C900C9900204C
:102EC0000880FFE7FFE7FFE72798C07802281FD1B7
:102ED000FFE7FFE7289800682799097830F8210074
:102EE00048F6BF710840ADF82200BDF8220080F01E
:102EF0002000ADF82200BDF8220048F2800108430E
:102F000028990968279A127821F82200FFE7FFE73D
:102F1000289827990978FFF75DFBBDF89A004004CF
:102F200000281BD4FFE7FFE7FFE7289800682799F0
:102F3000097830F8210048F68F710840ADF820007C
:102F4000BDF820004CF28001084328990968279AAF
:102F5000127821F82200FFE7FFE7FFE700208DF855
:102F6000A70006E1BDF89A00400400281BD4FFE743
:102F7000FFE7FFE7289800682799097830F82100D3
:102F800048F68F710840ADF81E00BDF81E004CF2E7
:102F90008001084328990968279A127821F82200AD
:102FA000FFE7FFE7FFE7279890F82400012840F0AB
:102FB000B680FFE7BDF89220279948691044486120
:102FC000BDF892202799C8691044C8612798016903
:102FD000006A884209D3FFE7279800692590259A5F
:102FE0002799086A801A086216E02798006A40B993
:102FF000FFE7BDF8920025902799002081F8240072
:1030000009E02798006A25902799002008622799EF
:1030100081F82400FFE7FFE7FFE7289800680690A3
:1030200027984078002856D1FFE7FFE728980068E6
:10303000049028980068B0F8501004980844049050
:1030400004982799097800EBC10000F2064003902C
:10305000FFE7039908886FF39F200880259830B90F
:10306000FFE70399088840F40040088030E0259885
:103070003E2815D8FFE7FFE72598400802909DF805
:103080009400C00720B1FFE7029801300290FFE7EB
:10309000029A0399088840EA82200880FFE716E038
:1030A000FFE72598400902909DF89400C00620B9DA
:1030B000FFE7029801380290FFE7029A0399088817
:1030C00040EA822040F400400880FFE7FFE7FFE786
:1030D000FFE7FFE718E027984078012813D1FFE7C2
:1030E00028980068B0F85010069808440690069892
:1030F0002799097800EBC10000F206400590259859
:1031000005990880FFE7FFE7FFE728980068279AFE
:1031100051695289BDF8943009F01EFFFFE7FFE7BF
:10312000FFE7FFE7289800682799097830F8210021
:1031300048F6BF710840ADF80600BDF8060080F003
:103140001000ADF80600BDF8060080F02000ADF8D4
:103150000600BDF8060048F2800108432899096876
:10316000279A127821F82200FFE700208DF8A700A7
:10317000FFE79DF8A7002AB080BD000082B0019053
:103180008DF8031001989DF8031001F0070101EB81
:10319000810100EBC100D0F86C0102B07047000063
:1031A00080B586B004908DF80F10ADF80C208DF826
:1031B0000B3000208DF80A009DF80F000006002853
:1031C0000FD5FFE704989DF80F1001F0070101EB00
:1031D000810100EBC100103001900199012048707D
:1031E0000FE004989DF80F1001F0070101EB810139
:1031F00000EBC10000F5A870019001990020487013
:10320000FFE79DF80F0000F0070001990870BDF876
:103210000C006FF3DF20019908619DF80B00019904
:10322000C8709DF80B00022804D1FFE70199002027
:103230000871FFE7FFE7049890F89002012804D195
:10324000FFE702208DF8170015E00499012081F8AE
:103250009002FFE7FFE704980068019908F00CFA74
:10326000FFE70499002081F89002FFE79DF80A002B
:103270008DF81700FFE79DF8170006B080BD00002D
:1032800080B586B005908DF81310039202930598CF
:103290009DF8131001F0070101EB810100EBC10063
:1032A00000F5A8700190039801994861029801996E
:1032B0008861019900200090C861019948709DF8CB
:1032C000130000F007000199087005980068019943
:1032D00009F0D8F8009806B080BD000080B584B031
:1032E00002908DF807109DF8070000F00700029982
:1032F0000979884204D9FFE701208DF80F004BE0DF
:103300009DF80700000600280FD5FFE702989DF8FA
:10331000071001F0070101EB810100EBC100103043
:1033200000900099012048700DE002989DF8071068
:1033300001EB810100EBC10000F5A870009000993D
:1033400000204870FFE70099012088709DF8070071
:1033500000F0070000990870FFE7029890F89002CB
:10336000012804D1FFE702208DF80F0014E0029934
:10337000012081F89002FFE7FFE7029800680099BA
:1033800009F03CF8FFE70299002081F89002FFE77E
:1033900000208DF80F00FFE79DF80F0004B080BDFE
:1033A00080B586B005908DF81310039202930598AE
:1033B0009DF8131001F0070101EB810100EBC10042
:1033C0001030019003980199486102980199886131
:1033D0000199012081F824000299019A1162019A51
:1033E00000210091D161019948709DF8130000F00F
:1033F00007000199087005980068019909F042F8E2
:10340000009806B080BD000080B582B001900198A0
:10341000006809F045FD00909DF8010000060028B5
:1034200004D5FFE7019804F067FDDFE09DF8010097
:103430004007002810D5FFE701980168B1F8440063
:1034400020F48060A1F84400019800F0DDF90198B3
:10345000002100F019FAC9E09DF80100400600289B
:1034600009D5FFE701980168B1F8440020F48040D5
:10347000A1F84400BAE09DF801008006002809D5B3
:10348000FFE701980168B1F8440020F40050A1F86A
:103490004400ABE09DF80100C00600282AD5FFE7F4
:1034A00001980168B1F8400020F00400A1F8400044
:1034B00001980168B1F8400020F00800A1F8400030
:1034C000019890F8C802012808D1FFE7019800216F
:1034D00080F8C8120198FFF705F8FFE7019800F09F
:1034E000AFF901980168B1F8440020F48050A1F8C8
:1034F00044007BE09DF80100000700281CD5FFE791
:1035000001980168B1F8400040F00800A1F84000BF
:1035100001980168B1F8440020F40060A1F844006B
:1035200001980168B1F8400040F00400A1F84000A3
:10353000019800F00DFA59E09DF8000000060028FF
:1035400034D5FFE701980168B1F8440020F080000D
:10355000A1F84400019890F8C80210BBFFE7019859
:103560000168B1F8400040F00400A1F84000019863
:103570000168B1F8400040F00800A1F8400001984F
:10358000012180F8C81201980068B0F8540000F0DA
:10359000F0008008019AC2F8CC020198FEF7A2FF61
:1035A00003E0019800F0D4F9FFE71FE09DF8010067
:1035B000800700280CD5FFE701980168B1F84400A6
:1035C00020F40070A1F84400019800F053F90DE0D8
:1035D0009DF80100C00748B1FFE701980168B1F804
:1035E000440020F48070A1F84400FFE702B080BDE1
:1035F00080B584B00290029820B9FFE701208DF8D1
:103600000F00BBE0029890F8910240B9FFE70299E1
:10361000002081F89002029800F0B4F8FFE70299C8
:10362000032081F891020298006808F039FE00201A
:103630008DF80700FFE79DF8070002990979884295
:1036400039DAFFE702989DF8071001EB810100EBE2
:10365000C101012048749DF80700029900EB800227
:1036600001EBC201087402989DF8071001EB81017B
:1036700000EBC1010020C87402999DF8072002EBFD
:10368000820201EBC201086202999DF8072002EB59
:10369000820201EBC201486202999DF8072002EB09
:1036A000820201EBC2018862FFE79DF8070001304A
:1036B0008DF80700BFE700208DF80700FFE79DF8B1
:1036C00007000299097988423EDAFFE702989DF8DF
:1036D000071001EB810100EBC101002081F85101CD
:1036E0009DF80710029A01EB810302EBC30282F8F6
:1036F000501102999DF8072002EB820201EBC201F2
:1037000081F8530102999DF8072002EB820201EB38
:10371000C201C1F8600102999DF8072002EB820204
:1037200001EBC201C1F8640102999DF8072002EB88
:10373000820201EBC201C1F86801FFE79DF80700B2
:1037400001308DF80700BAE7029A10685168926854
:1037500008F092FD0299002008730299012081F877
:1037600091020298807A012804D1FFE70298FEF7BF
:103770009BFEFFE700208DF80F00FFE79DF80F008C
:1037800004B080BD80B596B0159004A84421FCF724
:10379000B8FE1598006845F60041C4F20001884261
:1037A00030D1FFE74FF4005004900020119004A89E
:1037B00000F0D4F918B1FFE7FDF748F8FFE7FFE79D
:1037C00041F25800C4F20200016841F400010160B6
:1037D000006800F4000003900398FFE713200090B6
:1037E000002201921146FEF73FFE0098FEF732FEDE
:1037F000019A142002901146FEF736FE0298FEF759
:1038000029FEFFE716B080BD80B582B0019001208F
:103810008DF8030001984079022803D0FFE7FDF7F7
:1038200015F8FFE70198D0F8D8029DF8031007F0CB
:103830005FFA0198D0F8D80207F0D0F902B080BD45
:1038400080B582B001900198407A58B1FFE74EF6FA
:103850001051CEF20001086820F00600086005F063
:1038600059F9FFE70198D0F8D80207F007FA02B03B
:1038700080BD000080B582B001900198D0F8D802D8
:1038800007F00EFA02B080BD80B584B002908DF8CA
:103890000710FFE7029890F89002012804D1FFE793
:1038A00002208DF80F0019E00299012081F89002A2
:1038B000FFE7FFE79DF80700029908730298006888
:1038C0009DF8071009F038FBFFE70299002081F806
:1038D0009002FFE700208DF80F00FFE79DF80F0032
:1038E00004B080BD80B582B001900199D1F8D802B2
:1038F00001F5267107F026FA02B080BD80B582B0CE
:103900000090FFE7009890F89002012804D1FFE7AB
:1039100002208DF8070017E00099012081F890023D
:10392000FFE7FFE70098006809F09AFA009800683E
:1039300008F096FCFFE70099002081F89002FFE76D
:1039400000208DF80700FFE79DF8070002B080BD5A
:1039500080B582B001900198D0F8D80207F074FACF
:103960000198407A48B1FFE74EF61051CEF20001BF
:10397000086840F006000860FFE702B080BD000064
:1039800085B00390039800285ED1FFE747F200005E
:10399000C4F20000006800F4C060B0F5806F49D147
:1039A000FFE747F28001C4F20001086820F480704C
:1039B000086047F20002C4F200021168012060F3BF
:1039C0004A21116040F22401C2F20001096832224A
:1039D00051434DF68362C4F21B32A1FB022100EB7E
:1039E00091400290FFE747F21400C4F20000016822
:1039F000002049050029019006D5FFE7029800281C
:103A000018BF01200190FFE70198C00720B1FFE730
:103A1000029801380290E6E747F21400C4F2000071
:103A200000684005002804D5FFE703208DF8130047
:103A30007CE008E047F28001C4F20001086820F44D
:103A400080700860FFE76DE00398B0F5007F5ED1FD
:103A5000FFE747F20000C4F20000006800F4C06015
:103A6000B0F5806F49D1FFE747F28001C4F2000151
:103A7000086840F48070086047F20002C4F2000257
:103A80001168012060F34A21116040F22401C2F262
:103A900000010968322251434DF68362C4F21B32A1
:103AA000A1FB022100EB91400290FFE747F21400D6
:103AB000C4F200000168002049050029009006D5E5
:103AC000FFE70298002818BF01200090FFE7009848
:103AD000C00720B1FFE7029801380290E6E747F2FD
:103AE0001400C4F2000000684005002804D5FFE778
:103AF00003208DF8130019E008E047F28001C4F2BA
:103B00000001086840F480700860FFE709E047F2B0
:103B10000001C4F200010868022262F34A20086032
:103B2000FFE7FFE700208DF81300FFE79DF8130083
:103B300005B0704747F20801C4F20001086840F47C
:103B4000804008607047000047F20001C4F20001A5
:103B5000086840F4807008607047000080B586B047
:103B6000059000208DF80B008DF80A0005988078EC
:103B70000007002840F1B580FFE700208DF809001C
:103B800041F25800C4F202000068C000002813D4BB
:103B9000FFE7FFE741F25800C4F20200016841F07C
:103BA00080510160006800F0805001900198FFE7AB
:103BB00001208DF80900FFE747F20001C4F200017F
:103BC000086840F480700860FEF72CF90390FFE766
:103BD00047F20000C4F200000068C00500280CD4C1
:103BE000FFE7FEF71FF90399401A032804D3FFE704
:103BF00003208DF80B0000E0EAE79DF80B00002899
:103C00005BD1FFE741F29000C4F20200006800F4CB
:103C1000407004900498C8B1FFE704980599096CB6
:103C2000884213D0FFE741F29001C4F20201086814
:103C300020F440700490086840F480300860086800
:103C400020F48030086004980860FFE79DF81000B9
:103C5000C007E0B1FFE7FEF7E5F80390FFE741F2A8
:103C60009000C4F202000068800700280ED4FFE72D
:103C7000FEF7D8F80399401A41F28931884204D3FB
:103C8000FFE703208DF80B0000E0E8E7FFE79DF871
:103C90000B0060B9FFE741F29001C4F2020108682D
:103CA00020F44070059A126C1043086004E09DF8FF
:103CB0000B008DF80A00FFE704E09DF80B008DF87B
:103CC0000A00FFE79DF80900012809D1FFE741F24A
:103CD0005801C4F20201086820F080500860FFE734
:103CE000FFE705980078C00760B1FFE741F288015F
:103CF000C4F20201086820F00300059A52681043DC
:103D00000860FFE705980078800700280CD5FFE7DA
:103D100041F28801C4F20201086820F00C00059A03
:103D2000926810430860FFE7059800784007002874
:103D30000CD5FFE741F28801C4F20201086820F0C7
:103D40003000059AD26810430860FFE705980078B4
:103D5000000700280CD5FFE741F28801C4F20201F8
:103D6000086820F0C000059A126910430860FFE758
:103D700005980078800600280CD5FFE741F28801FD
:103D8000C4F20201086820F44060059A52691043A9
:103D90000860FFE705980078400600280CD5FFE78B
:103DA00041F28801C4F20201086820F44050059AEB
:103DB000926910430860FFE7059800780006002824
:103DC0000CD5FFE741F28801C4F20201086820F433
:103DD0004040059AD26910430860FFE70598407893
:103DE000C00760B1FFE741F28801C4F20201086830
:103DF00020F44030059A126A10430860FFE70598E6
:103E00004078800700280CD5FFE741F28801C4F212
:103E10000201086820F44020059A526A10430860A5
:103E2000FFE705984078400700281BD5FFE741F2DF
:103E30008801C4F20201086820F44010059A926AD1
:103E4000104308600598806AB0F5801F09D1FFE72C
:103E500041F20C01C4F20201086840F480100860CD
:103E6000FFE7FFE705984078000700281BD5FFE72C
:103E700041F28801C4F20201086820F44000059A6A
:103E8000D26A104308600598C06AB0F5800F09D166
:103E9000FFE741F20C01C4F20201086840F480100F
:103EA0000860FFE7FFE705984078C00600281BD5AB
:103EB000FFE741F28801C4F20201086820F0407077
:103EC000059A126B104308600598006BB0F1807F73
:103ED00009D1FFE741F20C01C4F20201086840F485
:103EE00080100860FFE7FFE705984078800600280B
:103EF0001BD5FFE741F28801C4F20201086820F0F7
:103F00004060059A526B104308600598406BB0F111
:103F1000006F09D1FFE741F20C01C4F20201086809
:103F200040F480100860FFE7FFE7059840784006FE
:103F300000281BD5FFE741F28801C4F2020108689E
:103F400020F04060059A926B104308600598806BE2
:103F5000B0F1006F09D1FFE741F20C01C4F2020198
:103F6000086840F480100860FFE7FFE70598407894
:103F7000000600281BD5FFE741F28801C4F20201C8
:103F8000086820F04050059AD26B104308600598ED
:103F9000C06BB0F1805F09D1FFE741F20C01C4F2C0
:103FA0000201086840F480300860FFE7FFE79DF8F1
:103FB0000A0006B080BD000080B586B00490039171
:103FC00000200090049820B9FFE701208DF8170029
:103FD00081E1039842F20001C4F20201096801F094
:103FE0000F01884216D9FFE742F20000C4F2020036
:103FF000016821F00F01039A11430160006800F08D
:104000000F000399884204D0FFE701208DF81700C4
:1040100061E1FFE704980078C007002800F0A38062
:10402000FFE704984068032839D1FFE741F2000018
:10403000C4F2020000688001002804D4FFE70120D8
:104040008DF8170047E104F081FA019001984BF2D6
:104050000141C0F2C441884220D3FFE741F2080089
:10406000C4F20200006810F0F00F0AD0FFE70498D5
:1040700000788007002810D5FFE70498806860B9B1
:10408000FFE741F20801C4F202010868082262F366
:104090000710086080200090FFE7FFE738E00498F1
:1040A000406802280ED1FFE741F20000C4F202008E
:1040B00000688003002804D4FFE701208DF8170072
:1040C00009E10DE041F20000C4F202000068400581
:1040D000002804D4FFE701208DF81700FBE0FFE77C
:1040E00000F02CF9019001984BF20141C0F2C4415B
:1040F00088420CD3FFE741F20801C4F202010868CC
:10410000082262F30710086080200090FFE7FFE7B5
:1041100041F20801C4F20201086820F00300049A89
:10412000526810430860FDF77DFE0290FFE741F200
:104130000800C4F20200006800F00C00049949680D
:10414000B0EB810F0ED0FFE7FDF76CFE0299401A2D
:1041500041F28931884204D3FFE703208DF817002C
:10416000B9E0E4E7FFE704980078800700282CD541
:10417000FFE7049800784007002809D5FFE741F2DF
:104180000801C4F20201086840F4E0600860FFE73B
:1041900004980078000700280BD5FFE741F20801DA
:1041A000C4F20201086840F4E06020F46050086046
:1041B000FFE741F20801C4F20201086820F0F000B4
:1041C000049A9268104308600DE00098802809D195
:1041D000FFE741F20801C4F20201086820F0F00094
:1041E0000860FFE7FFE7039842F20001C4F2020112
:1041F000096801F00F01884228D2FFE742F200016E
:10420000C4F20201086820F00F00039A104308600E
:10421000FDF708FE0290FFE742F20000C4F2020040
:10422000006800F00F00039988420ED0FFE7FDF709
:10423000F9FD0299401A41F28931884204D3FFE71F
:1042400003208DF8170046E0E6E7FFE704980078C2
:10425000400700280CD5FFE741F20801C4F2020133
:10426000086820F4E060049AD26810430860FFE711
:1042700004980078000700280DD5FFE741F20801F7
:10428000C4F20201086820F46050049A126940EAFE
:10429000C2000860FFE700F051F841F20801C4F2E3
:1042A00002010968C9B20A094DF2AA31C0F600013B
:1042B000895C01F01F01C84040F22401C2F20001F4
:1042C000086040F28410C2F200000068FEF75AF85D
:1042D0008DF81700FFE79DF8170006B080BD0000BD
:1042E00040F22400C2F200000068704780B5FFF77A
:1042F000F7FF41F20801C4F202010968C1F302228A
:104300004DF2BA31C0F60001895C01F01F01C840CE
:1043100080BD000080B5FFF7E3FF41F20801C4F261
:1043200002010968C1F3C2224DF2BA31C0F60001A0
:10433000895C01F01F01C84080BD000086B041F2D9
:104340000800C4F20200006800F00C00042806D146
:10435000FFE742F20040C0F2F400019069E041F250
:104360000800C4F20200006800F00C00082806D122
:10437000FFE743F20060C0F26E10019058E041F296
:104380000800C4F20200006800F00C000C284BD1B9
:10439000FFE741F20C00C4F20200016801F00301E2
:1043A00004910068C1B2012000EB11100290049842
:1043B0000090022815D0FFE70098032812D1FFE7EC
:1043C000029943F20060C0F26E10B0FBF1F041F2CE
:1043D0000C01C4F202010968C1F3062148430590AB
:1043E00011E0FFE7029942F20040C0F2F400B0FB96
:1043F000F1F041F20C01C4F202010968C1F3062197
:1044000048430590FFE741F20C00C4F20200006847
:1044100000F0C061022000EB116003900598039941
:10442000B0FBF1F0019002E000200190FFE7FFE710
:10443000FFE7019806B07047B0B588B006900698BF
:1044400020B9FFE701208DF81F00CCE30698007823
:10445000C007002800F09B80FFE741F20800C4F28B
:104460000200006800F00C00049041F20C00C4F25D
:104470000200006800F00300039004980C2804D1A7
:10448000FFE70398032804D0FFE70498082812D117
:10449000FFE741F20000C4F2020000688003002838
:1044A00008D5FFE70698406820B9FFE701208DF89E
:1044B0001F0098E36AE0FFE706984068B0F5803F88
:1044C00009D1FFE741F20001C4F20201086840F49B
:1044D0008030086020E006984068B0F5A02F0DD12C
:1044E000FFE741F20001C4F20201086840F48020B5
:1044F0000860086840F4803008600CE041F2000178
:10450000C4F20201086820F480300860086820F4D2
:1045100080200860FFE7FFE7FFE706984068D0B11A
:10452000FFE7FDF77FFC0590FFE741F20000C4F2D2
:1045300002000068800300280CD4FFE7FDF772FC3E
:104540000599401A652804D3FFE703208DF81F0062
:1045500049E3EAE719E0FDF765FC0590FFE741F262
:104560000000C4F202000068800300280CD5FFE7B9
:10457000FDF758FC0599401A652804D3FFE703208E
:104580008DF81F002FE3EAE7FFE7FFE7FFE7069854
:1045900000788007002840F19F80FFE741F2080083
:1045A000C4F20200006800F00C00049041F20C001C
:1045B000C4F20200006800F00300039004980C2885
:1045C00004D1FFE70398022804D0FFE704980428E9
:1045D0002CD1FFE741F20000C4F202000068400560
:1045E000002808D5FFE70698C06820B9FFE701203A
:1045F0008DF81F00F7E241F20401C4F202010868DD
:1046000020F0FE40069A126940EA0260086040F21B
:104610008410C2F200000068FDF7B4FE20B1FFE78D
:1046200001208DF81F00DEE2FFE754E00698C06825
:1046300070B3FFE741F20001C4F20201086840F4E0
:1046400080700860FDF7EEFB0590FFE741F2000087
:10465000C4F202000068400500280CD4FFE7FDF713
:10466000E1FB0599401A032804D3FFE703208DF8E6
:104670001F00B8E2EAE741F20401C4F2020108684F
:1046800020F0FE40069A126940EA0260086021E0CC
:1046900041F20001C4F20201086820F48070086051
:1046A000FDF7C0FB0590FFE741F20000C4F20200F5
:1046B0000068400500280CD5FFE7FDF7B3FB05991E
:1046C000401A032804D3FFE703208DF81F008AE275
:1046D000EAE7FFE7FFE7FFE7069800780007002812
:1046E00049D5FFE70698406910B3FFE741F294010E
:1046F000C4F20201086840F001000860FDF792FB77
:104700000590FFE741F29400C4F2020000688007C0
:1047100000280CD4FFE7FDF785FB0599401A032814
:1047200004D3FFE703208DF81F005CE2EAE721E0F5
:1047300041F29401C4F20201086820F0010008600F
:10474000FDF770FB0590FFE741F29400C4F2020010
:104750000068800700280CD5FFE7FDF763FB05998B
:10476000401A032804D3FFE703208DF81F003AE224
:10477000EAE7FFE7FFE7069800784007002840F1E6
:10478000C680FFE700208DF80B0041F25800C4F20C
:1047900002000068C000002813D4FFE7FFE741F2E1
:1047A0005800C4F20200016841F0805101600068C5
:1047B00000F0805001900198FFE701208DF80B0078
:1047C000FFE747F20000C4F200000068C0050028BF
:1047D00022D4FFE747F20001C4F20001086840F468
:1047E00080700860FDF71EFB0590FFE747F20000B0
:1047F000C4F200000068C00500280CD4FFE7FDF7F4
:1048000011FB0599401A032804D3FFE703208DF814
:104810001F00E8E1EAE7FFE7FFE706988068012864
:1048200009D1FFE741F29001C4F20201086840F0AB
:10483000010008601FE00698806805280DD1FFE799
:1048400041F29001C4F20201086840F004000860DF
:10485000086840F0010008600CE041F29001C4F2E9
:104860000201086820F001000860086820F00400D8
:104870000860FFE7FFE7FFE706988068E0B1FFE721
:10488000FDF7D0FA0590FFE741F29000C4F2020074
:104890000068800700280ED4FFE7FDF7C3FA0599EA
:1048A000401A41F28931884204D3FFE703208DF892
:1048B0001F0098E1E8E71BE0FDF7B4FA0590FFE779
:1048C00041F29000C4F202000068800700280ED573
:1048D000FFE7FDF7A7FA0599401A41F289318842AE
:1048E00004D3FFE703208DF81F007CE1E8E7FFE732
:1048F0009DF80B00012809D1FFE741F25801C4F2ED
:104900000201086820F080500860FFE7FFE7069882
:1049100000788006002849D5FFE70698806910B323
:10492000FFE741F29801C4F20201086840F001007B
:104930000860FDF777FA0590FFE741F29800C4F2AE
:1049400002000068800700280CD4FFE7FDF76AFA30
:104950000599401A032804D3FFE703208DF81F00B0
:1049600041E1EAE721E041F29801C4F2020108685E
:1049700020F001000860FDF755FA0590FFE741F2CD
:104980009800C4F202000068800700280CD5FFE7F9
:10499000FDF748FA0599401A032804D3FFE70320DE
:1049A0008DF81F001FE1EAE7FFE7FFE70698C069FF
:1049B000002800F01481FFE741F20800C4F2020071
:1049C000006800F00C000C2800F0B080FFE70698AB
:1049D000C06902287CD1FFE741F20001C4F2020164
:1049E000086820F080700860FDF71CFA0590FFE76A
:1049F00041F20000C4F202000068800100280CD5DA
:104A0000FFE7FDF70FFA0599401A032804D3FFE7E3
:104A100003208DF81F00E6E0EAE741F20C01C4F242
:104A20000201086848F20C02C0F29F121040DDF843
:104A300018C0DCF82020DCF82450DCF828E0DCF892
:104A40002C306FF00F0404EB0514224342EA0E22CF
:104A5000DCF8304040F2000ECFF6E07E0EEA045E55
:104A6000AEF5001E42EA0E02DCF834E04FF07E4C58
:104A70000CEA0E6C0CF17E4C42EA0C0242EAC36274
:104A80001043086041F20002C4F20202106840F0D4
:104A900080701060086840F080700860FDF7C2F90F
:104AA0000590FFE741F20000C4F2020000688001B7
:104AB00000280CD4FFE7FDF7B5F90599401A032843
:104AC00004D3FFE703208DF81F008CE0EAE72CE019
:104AD00041F20001C4F20201086820F08070086011
:104AE000FDF7A0F90590FFE741F20000C4F20200D3
:104AF0000068800100280CD5FFE7FDF793F90599C0
:104B0000401A032804D3FFE703208DF81F006AE052
:104B1000EAE741F20C01C4F2020108684FF6FC72A8
:104B2000CFF6EE6210400860FFE757E00698C069D4
:104B3000012804D1FFE701208DF81F0053E041F266
:104B40000C00C4F2020000680390039800F0030018
:104B50000699096A88423BD1FFE7039800F0F0000C
:104B600006994A6A6FF00F0101EB021188422FD1BA
:104B7000FFE7039800F4FE400699896AB0EB012F25
:104B800026D1FFE7039800F078400699C96AB0EB98
:104B9000C16F1DD1FFE7039800F4C00006990A6BAE
:104BA0000021CFF6E07101EA0251A1F5001188421F
:104BB0000ED1FFE7039800F0C06006994A6B4FF0F2
:104BC0007E4101EA026101F17E41884204D0FFE7A3
:104BD00001208DF81F0006E0FFE7FFE7FFE7002058
:104BE0008DF81F00FFE79DF81F0008B0B0BD000062
:104BF00080B582B0019001208DF803000198002853
:104C000078D0FFE7019890F8250040B9FFE70199B7
:104C1000002081F82400019800F070F8FFE7019966
:104C2000022081F8250001980068C06800F010019A
:104C30000020B0EB111F4FD1FFE7FFE7019801689B
:104C4000CA2048620198016853204862FFE7019832
:104C500003F0ECFC8DF803009DF8030000BBFFE7B8
:104C60000198016888694FF6BF72CFF68F32104005
:104C70008861019A11685068136992691843024368
:104C8000886910438861019801688268C06840EAB9
:104C900002400861019803F009FD8DF80300FFE769
:104CA0009DF8030088B9FFE701980068806920F04B
:104CB0006040019A11685369D2F81CC0126A42EA36
:104CC0000C021A4310438861FFE7FFE7019801686F
:104CD000FF204862FFE703E000208DF80300FFE7B4
:104CE0009DF8030028B9FFE70199012081F825000C
:104CF000FFE7FFE79DF8030002B080BD80B594B0E8
:104D0000139002A84421FBF7FCFB1398006842F6BD
:104D10000001C4F20001884226D1FFE74FF40020D1
:104D200002904FF48070129002A8FEF717FF18B19E
:104D3000FFE7FBF78BFDFFE741F29001C4F20201B0
:104D4000086840F400400860FFE741F25800C4F2F0
:104D50000200016841F480610160006800F4806035
:104D600001900198FFE7FFE714B080BD80B588B0DF
:104D7000069005910492FFE7069890F82400012818
:104D800004D1FFE702208DF81F0081E00699012081
:104D900081F82400FFE7FFE70699022081F825004B
:104DA000049868B9FFE705984078C006002807D541
:104DB000FFE70599487800F0EF000A304870FFE7F8
:104DC0000498E0B9FFE70598C07803F00DFC0004F3
:104DD00000900598407803F007FC0146009840EAEF
:104DE000012001900598807803F0FEFB01460198B0
:104DF00008440599097840EA413003900CE0059891
:104E0000017843788278C078000440EA0320104497
:104E100040EA41300390FFE7FFE706980168CA20A7
:104E200048620698016853204862FFE7069803F03D
:104E3000FDFB8DF80B009DF80B0078B9FFE7039898
:104E40004FF63F71C0F2FF010840069909684860BB
:104E5000069803F02BFC8DF80B00FFE7FFE70698A0
:104E60000168FF204862FFE79DF80B0028B9FFE7C3
:104E70000699012081F82500FFE7FFE70699002049
:104E800081F82400FFE79DF80B008DF81F00FFE775
:104E90009DF81F0008B080BD80B588B006900591D0
:104EA0000492FFE7069890F82400012804D1FFE758
:104EB00002208DF81F009AE00699012081F8240055
:104EC000FFE7FFE70699022081F82500FFE7069833
:104ED0000168CA2048620698016853204862FFE7CB
:104EE000069803F0A3FB8DF80B009DF80B0000283B
:104EF00063D1FFE7049840BBFFE70698006880692C
:104F00004006002801D5FFE703E005990020C8709E
:104F1000FFE70598007803F067FB00040090059810
:104F2000407803F061FB0146009840EA01200190BF
:104F30000598807803F058FB0146019808440599CC
:104F4000C97840EA8150039018E0069800688069AB
:104F50004006002801D5FFE703E005990020C8704E
:104F6000FFE7059908784B788A78C978000440EA09
:104F70000320104440EA81500390FFE7039847F66E
:104F80007F71C0F27F0108400699096808600698A1
:104F90000168886920F4802088610599C8680969DA
:104FA00040EA010206980168886910438861069802
:104FB00003F07CFB8DF80B00FFE7FFE70698016824
:104FC000FF204862FFE79DF80B0028B9FFE706992C
:104FD000012081F82500FFE7FFE70699002081F80E
:104FE0002400FFE79DF80B008DF81F00FFE79DF8F8
:104FF0001F0008B080BD000080B584B00290029808
:1050000001685F20C0F20100C860FCF70BFF01904F
:10501000FFE702980068C068800600280DD4FFE70B
:10502000FCF700FF0199401AB0F57A7F04D9FFE739
:1050300003208DF80F0004E0EBE700208DF80F004F
:10504000FFE79DF80F0004B080BD000081B0009024
:1050500001B0704781B00090009890F85D0001B0F9
:105060007047000080B588B00790079800684068D6
:10507000069007980068806805909DF8140000F07D
:1050800040010020B0EB911F11D1FFE70598C00748
:1050900068B1FFE79DF8180000F040010020B0EB78
:1050A000911F04D0FFE70798C16C8847F0E09DF896
:1050B000140000F002010020B0EB510F0BD0FFE70D
:1050C0009DF818100020B0EBD11F04D0FFE707981F
:1050D000016D8847DCE09DF8140000F020010020FD
:1050E000B0EB511F10D1FFE79DF8140000F0400114
:1050F0000020B0EB911F07D1FFE79DF81500C00716
:10510000002800F0C580FFE79DF8180000F020019E
:105110000020B0EB511F00F0BB80FFE79DF81400AA
:1051200000F040010020B0EB911F28D0FFE7079866
:1051300090F85D00032813D0FFE70799086E40F050
:1051400004000866FFE70020049007980068C06824
:10515000049007980068806804900498FFE70DE0C9
:10516000FFE70020039007980068C0680390079845
:105170000068806803900398FFE789E0FFE79DF8E7
:10518000140000F020010020B0EB511F15D0FFE704
:105190000799086E40F001000866FFE700200290C2
:1051A000079800688068029007980168086820F0F6
:1051B000400008600298FFE7FFE79DF81500C00770
:1051C00078B1FFE70799086E40F008000866FFE72E
:1051D0000020019007980068806801900198FFE71F
:1051E000FFE70798006E002851D0FFE70798016895
:1051F000486820F0E00048600799012081F85D00D0
:10520000069800F00200022805D0FFE79DF818007C
:10521000C007B8B3FFE707980168486820F00300AB
:1052200048600798806DA0B1FFE70798816D48F24C
:105230004970C0F6000088630798806DFCF716FA85
:1052400030B1FFE70799086E40F040000866FFE7BD
:10525000FFE70798406DA0B1FFE70798416D48F25E
:105260004970C0F6000088630798406DFCF7FEF9AE
:1052700030B1FFE70799086E40F040000866FFE78D
:10528000FFE703E00798FFF7E1FEFFE7FFE7FFE72F
:1052900008B080BD80B584B00290029820B9FFE7C5
:1052A00001208DF80F0099E00298406A60B9FFE78D
:1052B00002984068B0F5827F01D1FFE703E00299D0
:1052C0000020C861FFE705E002990020086102990B
:1052D0004861FFE7029900208862029890F85D001B
:1052E00040B9FFE70299002081F85C00029800F0C5
:1052F00079F8FFE70299022081F85D0002980168C1
:10530000086820F0400008600298C068B0F5E06FBF
:1053100003D9FFE70020019003E04FF48050019093
:10532000FFE70298C068B0F5706F0AD0FFE70298F7
:10533000C068B0F5E06F04D0FFE7029900208862F2
:10534000FFE7029A009211685068D2F808C013690A
:1053500000F482700CF4044C604403F0020318441F
:10536000536903F001031844936903F4007318446C
:10537000D36903F038031844136A03F08003184418
:10538000926A02F4005210430860029B1968DA68BE
:10539000D3F818E0D3F824C0042000EA1E400CF033
:1053A000100C60445B6B03F00803184402F4706255
:1053B0001044019A02F48052104448600298016837
:1053C000C86920F40060C861029900200866029A4A
:1053D000012182F85D108DF80F00FFE79DF80F00A6
:1053E00004B080BD80B592B01190002010900F9055
:1053F0000E900D900C901198006843F20001C4F2D9
:105400000101884240F08780FFE7FFE741F260003A
:10541000C4F20200016841F480510160006800F4A8
:1054200080500B900B98FFE7FFE741F24C00C4F26D
:105430000200016841F002010160006800F0020012
:105440000A900A98FFE728200C9002200D90002077
:1054500006900E900F900520109040F20040C4F688
:1054600000000CA9FCF700FB069941F23030C2F2B3
:105470000000079040F23042C4F2020202600A22A9
:1054800042608160C1608022026141618161C161CD
:105490000162FCF7F9F918B1FFE7FBF7D7F9FFE76D
:1054A000FFE7119841F23031C2F200018165119895
:1054B0008862FFE741F29030C2F20000059040F2AE
:1054C0004441C4F2020101600B214160102181605E
:1054D0000021C1608022026141618161C16101627C
:1054E000FCF7D2F918B1FFE7FBF7B0F9FFE7FFE7E8
:1054F000119841F29031C2F2000141651198886221
:10550000FFE72320049000221146FCF7ADFF04982A
:10551000FCF7A0FF91E01198006843F60041C4F247
:105520000001884240F08880FFE7FFE741F2580021
:10553000C4F20200016841F400410160006800F417
:10554000004009900998FFE7FFE741F24C00C4F2E0
:105550000200016841F004010160006800F00400ED
:1055600008900898FFE74FF4E0500C9002200D904F
:10557000002002900E900F900620109040F6000040
:10558000C4F600000CA9FCF76FFA029941F2F03062
:10559000C2F20000039040F25842C4F202020260DC
:1055A0000E2242608160C16080220261416181619E
:1055B000C1610162FCF768F918B1FFE7FBF746F932
:1055C000FFE7FFE7119841F2F031C2F20001816577
:1055D00011988862FFE741F25040C2F2000001904A
:1055E00040F26C41C4F2020101600F2141601021C0
:1055F00081600021C1608022026141618161C161DD
:105600000162FCF741F918B1FFE7FBF71FF9FFE76B
:10561000FFE7119841F25041C2F200014165119833
:105620008862FFE73320009000221146FCF71CFF40
:105630000098FCF70FFFFFE7FFE712B080BD000006
:1056400080B588B006900591ADF812200393FCF761
:10565000E9FB0290BDF81200ADF80600069890F83C
:105660005D00012804D0FFE702208DF81F005FE1F4
:10567000059820B1FFE7BDF8120020B9FFE701202F
:105680008DF81F0054E1FFE7069890F85C000128B0
:1056900004D1FFE702208DF81F0049E1069901209F
:1056A00081F85C00FFE7FFE70699032081F85D00C1
:1056B0000699002008660599069A9163BDF81210B4
:1056C000069A9187BDF81210069AD1870699086448
:1056D0000699A1F844000699A1F8460006990865C4
:1056E0000699C86406988068B0F5004F0DD1FFE7B1
:1056F00006980168086820F0400008600698016874
:10570000086840F480400860FFE706980068006879
:1057100000F04000402807D0FFE7069801680868BD
:1057200040F040000860FFE70698C068B0F5E06F01
:1057300051D9FFE70698406828B1FFE7BDF8060099
:1057400001280ED1FFE706980168806B0088C860C9
:105750000699886B023088630699C88F0138C8871C
:10576000FFE7FFE70698C08FA0B3FFE70698006841
:105770008068800700280ED5FFE706980168806BD7
:105780000088C8600699886B023088630699C88FC4
:105790000138C8871DE0FCF745FB0299401A0399C0
:1057A000884204D3FFE70398013018B9FFE7039854
:1057B00070B9FFE70699012081F85D00FFE70699BF
:1057C000002081F85C00FFE703208DF81F00AFE0A8
:1057D000FFE7C7E779E00698406828B1FFE7BDF822
:1057E0000600012822D1FFE70698C08F02280ED3B9
:1057F000FFE706980168806B0088C8600699886B8F
:10580000023088630699C88F0238C8870DE0069871
:105810000168806B007808730699886B0130886393
:105820000699C88F0138C887FFE7FFE7FFE70698AA
:10583000C08F002848D0FFE706980068806880077E
:10584000002822D5FFE70698C08F02280ED3FFE775
:1058500006980168806B0088C8600699886B0230E2
:1058600088630699C88F0238C8870DE006980168DA
:10587000806B007808730699886B013088630699FD
:10588000C88F0138C887FFE71DE0FCF7CBFA029903
:10589000401A0399884204D3FFE70398013018B9EE
:1058A000FFE7039870B9FFE70699012081F85D00D2
:1058B000FFE70699002081F85C00FFE703208DF8E0
:1058C0001F0035E0FFE7B2E7FFE706980399029A69
:1058D00002F04CFF20B1FFE7069920200866FFE7A1
:1058E0000698806870B9FFE7FFE7002000900698EF
:1058F0000068C06800900698006880680090009872
:10590000FFE7FFE70699012081F85D00FFE70699B0
:10591000002081F85C00FFE70698006E20B1FFE7E9
:1059200001208DF81F0003E000208DF81F00FFE725
:105930009DF81F0008B080BD80B582B0019001982D
:1059400003F0BAF802B080BD81B0009001B070479A
:1059500081B0009001B0704781B0009001B07047F5
:1059600081B0009001B0704781B0009001B07047E5
:1059700081B0009001B0704785B003900291FFE7BD
:10598000039890F83C00012804D1FFE702208DF82D
:1059900013008CE00399012081F83C00FFE7FFE74A
:1059A0000399022081F83D00039800684068019047
:1059B00003980068806800900398006842F60041F0
:1059C000C4F20101884209D0FFE70398006843F25E
:1059D0000041C4F2010188420AD1FFE7019820F496
:1059E0007000019002984168019808430190FFE718
:1059F00001984FF68F71CFF6FF5108400190029841
:105A0000016801980843019001980399096848606A
:105A10000398006842F60041C4F2010188422AD08E
:105A2000FFE703980068B0F1804F24D0FFE70398A8
:105A3000006840F20041C4F2000188421BD0FFE739
:105A40000398006840F60001C4F20001884212D0B9
:105A5000FFE70398006843F20041C4F20101884265
:105A600009D0FFE70398006844F20001C4F2010185
:105A700088420ED1FFE7009820F080000090029845
:105A8000816800980843009000980399096888602D
:105A9000FFE70399012081F83D00FFE7039900200B
:105AA00081F83C00FFE700208DF81300FFE79DF828
:105AB000130005B07047000081B0009001B070473E
:105AC00080B582B00090009820B9FFE701208DF8E2
:105AD000070045E0009890F83D0040B9FFE70099C5
