:020000040800F2
:1000000050710020E5020008FDB70008DD9D0008E2
:10001000F9B70008DD0A00089D1E01080000000075
:10002000000000000000000000000000F1C3000814
:10003000610D000800000000BDBE000881C400087A
:10004000FF020008FF020008FF020008FF0200088C
:10005000FF020008FF020008650D0008850D00087A
:10006000FF020008FF020008910D0008B10B000814
:10007000C10B0008D10B0008E10B0008FF020008CB
:10008000FF0200080000000095050008491D010856
:10009000591D0108FF020008FF0200089D0D00081D
:1000A000FF02000839C50008FF020008FF0200082F
:1000B00055C50008FF020008FF020008FF02000803
:1000C000FF020008E19D0008FF0200089DC0000833
:1000D000FF020008FF020008D5E70008FF02000841
:1000E000710D0008FF020008FF020008FF0200086F
:1000F000FF020008FF020008FF02000800000000E5
:1001000000000000FF02000800000000ADC0000871
:10011000FF02000800000000FF020008FF020008C4
:10012000F10B0008010C0008110C0008FF02000888
:10013000210C00080000000000000000FF02000881
:10014000FF020008FF02000800000000000000009D
:10015000000000000000000000000000000000009F
:10016000000000000000000000000000FF02000886
:10017000FF02000800000000000000000000000076
:1001800000000000FF020008000000000000000066
:10019000000000000000000000000000000000005F
:1001A0000000000000000000FF020008FF0200083D
:1001B000F19D0008FF020008FF0200080000000097
:1001C00000000000310C00080000000000000000EA
:1001D000FF020008FF02000800F002F800F072F8C9
:1001E00014A696E8000CB244B344DA4501D100F0FD
:1001F00069F8BAE80F000FA696E83000A5EB0405F1
:1002000004EB0607AAEB0704A7F101074FEA15154F
:100210004FEA3414A4F10104AC4201D300F052F8C7
:1002200013F0010F18BFFB1A43F0010300F001F8AF
:10023000DBE71847E8460100084701000A444FF091
:10024000000C10F8013B13F0070408BF10F8014B35
:100250001D1108BF10F8015B641E05D010F8016B7A
:10026000641E01F8016BF9D113F0080F1EBF10F8DE
:10027000014BAD1C0C1B09D16D1E58BF01F801CB01
:10028000FAD505E014F8016B01F8016B6D1EF9D584
:100290009142D6D37047000070470000002300242D
:1002A00000250026103A28BF78C1FBD8520728BF86
:1002B00030C148BF0B6070471FB513F068FD1FBD0C
:1002C00010B510BD00F02CF91146FFF7F5FF12F044
:1002D0009BFA00F04AF903B4FFF7F2FF03BC00F009
:1002E00051F900000948804709480047FEE7FEE74A
:1002F000FEE7FEE7FEE7FEE7FEE7FEE7FEE7FEE7D6
:1003000004480549054A064B7047000025C500080A
:10031000D901000850410020507100205061002098
:100320005061002053EA020C00F069802DE9F04B87
:100330004FF00006002B1FBFB3FA83F503FA05F454
:1003400024FA05F65E4012BF1643B2FA82F502FAAD
:1003500005F4C5F120051EBF22FA05FC44EA0C0491
:10036000203556EA044C4FEA144418BF641C4FF081
:1003700000084FF00009904271EB030C39D30029BB
:1003800019BFB1FA81F701FA07F6B0FA80F700FA5F
:1003900007F6C7F120071EBF20FA07FC46EA0C0645
:1003A0002037B6FBF4FCA7EB0507103F07F01F0B47
:1003B000CBF120062CFA06F60CFA0BFB44BFB34631
:1003C0000026202FA4BF5E464FF0000B5BEA060C10
:1003D00008BF4FF0010B19EB0B0948EB0608ABFB0C
:1003E000027C06FB02CC0BFB03CCC01B71EB0C01A7
:1003F000C1E70B46024641464846BDE8F08B13B5BF
:10040000084318BF4FF0FF300146AFF30080BDE84E
:100410001C40704710B5203AC0F00B80B1E818506E
:10042000A0E81850B1E81850A0E81850203ABFF4DE
:10043000F5AF5FEA027C24BFB1E81850A0E818507D
:1004400044BF18C918C0BDE810405FEA827C24BFD1
:1004500051F8043B40F8043B08BF7047D20728BF5F
:1004600031F8023B48BF11F8012B28BF20F8023BAE
:1004700048BF00F8012B704702F0FF0343EA032254
:1004800042EA024200F02CB84FF0000200B51346D9
:1004900094469646203922BFA0E80C50A0E80C50A4
:1004A000B1F12001BFF4F7AF090728BFA0E80C5055
:1004B00048BF0CC05DF804EB890028BF40F8042B4E
:1004C00008BF704748BF20F8022B11F0804F18BFBB
:1004D00000F8012B70477047704770474FF00002DB
:1004E0000429C0F0128010F0030C3FF4CFAFCCF120
:1004F000040CBCF1020F18BF00F8012BA8BF20F8B4
:10050000022BA1EB0C01FFF7C1BF5FEAC17C24BF46
:1005100000F8012B00F8012B48BF00F8012B7047B1
:10052000754600F02BF8AE4605006946534620F0AC
:100530000700854618B020B5FFF7E2FEBDE8204071
:100540004FF000064FF000074FF000084FF0000B8F
:10055000AC46ACE8C009ACE8C009ACE8C009ACE8FE
:10056000C00921F007018D46704710B50446AFF36E
:1005700000802046BDE81040FFF7ADBE0048704740
:10058000C001002001491820ABBEFEE72600020092
:100590007047000080B541F67430C2F2000001F0EF
:1005A000EFFB80BD80B582B001900198806A009019
:1005B0000098C06D10F0500F4BD1FFE70099C86D47
:1005C00040F40070C86500980068006800070028C3
:1005D00021D5FFE7009800680AF0C2FAD0B1FFE722
:1005E00000980068C0688004002812D4FFE70099D2
:1005F000C86D20F48070C8650098C06DC0040028E4
:1006000006D4FFE70099C86D40F00100C865FFE718
:10061000FFE7FFE719E000980068C068800700283E
:1006200012D4FFE70099C86D20F48070C865009867
:10063000C06DC004002806D4FFE70099C86D40F0E3
:100640000100C865FFE7FFE7FFE7009801F05CFAEB
:1006500010E00098C06DC006002804D5FFE70098A0
:1006600001F08AFB05E00098406D416B01988847D6
:10067000FFE7FFE702B080BD80B582B0019001982E
:10068000806A00900099C86D40F04000C8650099EC
:10069000086E40F004000866009801F06DFB02B09F
:1006A00080BD000080B582B001900198806A009002
:1006B000009801F05DFB02B080BD000080B584B001
:1006C0000290029800680AF01BFA009002980068F5
:1006D0000AF01EFA00284BD0FFE70098002847D107
:1006E000FFE702980068806800F00D00012809D13A
:1006F000FFE7029800680AF07FF90298016803207A
:1007000008600DE00299C86D40F01000C8650299BC
:10071000086E40F00100086601208DF80F002BE004
:1007200002F098FE0190FFE7029800688068C00719
:10073000E8B1FFE702F08EFE0199401A032815D3B5
:10074000FFE7029800688068C00770B1FFE7029970
:10075000C86D40F01000C8650299086E40F00100B5
:10076000086601208DF80F0006E0FFE7DCE7FFE7F1
:1007700000208DF80F00FFE79DF80F0004B080BD4A
:1007800080B586B0049000200290049800680AF0BA
:10079000BFF9002840F09280FFE704980068806865
:1007A0003F21C8F2000108420ED0FFE70499C86D4E
:1007B00040F01000C8650499086E40F0010008661A
:1007C00001208DF817007DE0049800680AF02EF9EA
:1007D000049801680120B1F1A04F01900CD0FFE70F
:1007E000049800684FF60071CAF6FF710844B0FA29
:1007F00080F040090190FFE70198C10740F20070C6
:10080000C5F2000000291CBF40F20030C5F2000014
:100810000AF02AF94FEA002000281CD5FFE740F231
:100820004C00C2F200000068800942F66351C0F239
:100830003E51A0FB0110800900EB40010C2000EBB1
:1008400081000290FFE7029820B1FFE7029801388B
:100850000290F8E7FFE702F0FDFD0390FFE7049840
:1008600000680068C00740BBFFE7049800680AF012
:100870004FF928B9FFE7049800680AF0D7F8FFE7B6
:1008800002F0E8FD0399401A032815D3FFE7049806
:1008900000680068C00770B9FFE70499C86D40F0B0
:1008A0001000C8650499086E40F001000866012038
:1008B0008DF8170006E0FFE7D1E7FFE700208DF88D
:1008C0001700FFE79DF8170006B080BD10B58CB08B
:1008D0000A90ADF826100892ADF81E300020ADF851
:1008E0001A00FFE7BDF81A00BDF81E10884268DA4A
:1008F000FFE7BDF82600BDF81A100844ADF818004F
:10090000BDF818105020B1F5806FA8BF54208DF8A5
:1009100017009DF817009DF8191001F00701084312
:100920008DF81600BDF818008DF81500BDF81800F8
:1009300000F00F00C0F110008DF81400BDF81E008B
:10094000BDF81A10401A9DF81410884204DDFFE724
:100950009DF81400039006E0BDF81E00BDF81A10C3
:10096000401A0390FFE703988DF813000A989DF84A
:10097000161049009DF81520089BBDF81AC0634465
:100980009DF813E0EC464FF4FA64CCF80840CCF83C
:1009900004E0CCF80030012303F0DAF88DF81D00F4
:1009A0009DF81D0028B1FFE79DF81D008DF82F0070
:1009B0000BE09DF81310BDF81A000844ADF81A00BA
:1009C00090E700208DF82F00FFE79DF82F000CB076
:1009D00010BD000010B58CB00A90ADF8261008923A
:1009E000ADF81E300020ADF81A00FFE7BDF81A0080
:1009F000BDF81E10884268DAFFE7BDF82600BDF892
:100A00001A100844ADF81800BDF818105020B1F5C0
:100A1000806FA8BF54208DF817009DF817009DF82F
:100A2000191001F0070108438DF81600BDF81800F1
:100A30008DF81500BDF8180000F00F00C0F110008F
:100A40008DF81400BDF81E00BDF81A10401A9DF86C
:100A50001410884204DDFFE79DF81400039006E0BF
:100A6000BDF81E00BDF81A10401A0390FFE7039866
:100A70008DF813000A989DF8161049009DF815206E
:100A8000089BBDF81AC063449DF813E0EC464FF490
:100A9000FA64CCF80840CCF804E0CCF8003001232C
:100AA00003F09CF98DF81D009DF81D0028B1FFE7AB
:100AB0009DF81D008DF82F000BE09DF81310BDF878
:100AC0001A000844ADF81A0090E700208DF82F00B6
:100AD000FFE79DF82F000CB010BD0000FFE7FEE718
:100AE00084B08DF80F000291ADF806209DF80F003C
:100AF0000146009123281DD80099DFE801F0121368
:100B00001415161B1B1B1B1B1B1B1B1B1B1B1B1B47
:100B10001B1B1B1B1B1B1B1B1B1B1B1B1B1B17182C
:100B2000191A08E007E006E005E004E003E002E04F
:100B300001E000E0FFE7002004B0704700207047AC
:100B400080B582B041F6A400C2F20000009041F2EC
:100B50001C01C2F20001002201920EF009F9009876
:100B600040F61C01C2F200010EF0E8F8019802B054
:100B700080BD000080B584B003900291039941F6D6
:100B8000A400C2F2000001900EF0D8F801980EF017
:100B90007FF8002004B080BD83B0029001918DF8F1
:100BA000032000208DF802009DF9020003B0704779
:100BB00080B541F64040C2F2000001F0EFFF80BD79
:100BC00080B541F6A040C2F2000001F0E7FF80BD11
:100BD00080B541F60050C2F2000001F0DFFF80BD99
:100BE00080B541F66050C2F2000001F0D7FF80BD31
:100BF00080B541F68060C2F2000001F0CFFF80BDF9
:100C000080B541F6E060C2F2000001F0C7FF80BD90
:100C100080B541F6E030C2F2000001F0BFFF80BDB8
:100C200080B541F6C050C2F2000001F0B7FF80BDB0
:100C300080B541F62060C2F2000001F0AFFF80BD38
:100C400084B003900398006840F20741C4F20201A7
:100C5000884206D8FFE740F60000C4F20200009088
:100C600005E040F62000C4F202000090FFE7009883
:100C700002900398007808384CF6CD41CCF6CC4170
:100C8000A0FB011000090190029803994A6C22F020
:100C9000030210448864039940F68000C4F2020005
:100CA000C864019800F01F0101208840039908657D
:100CB00004B0704782B001900198007900900099CB
:100CC00040F6FC00C4F2020000EB81000199486587
:100CD000019940F64010C4F202008865009801387E
:100CE00000F01F01012088400199C86502B07047DB
:100CF00084B003900291019200930398C16C006D3F
:100D000048600398406D28B1FFE70398816DC06D7E
:100D10004860FFE70398016C406C00F01F0201205F
:100D2000904048600098039909684860039880687B
:100D3000102809D1FFE70198039909688860029893
:100D400003990968C86008E00298039909688860F7
:100D5000019803990968C860FFE704B07047000074
:100D60007047000080B5012002F062F980BD0000EC
:100D700080B54FF4805002F05BF94FF4005002F060
:100D800057F980BD80B5022002F052F980BD000005
:100D900080B5102002F04CF980BD000080B5202005
:100DA00002F046F980BD000081B0EFF3108072B60A
:100DB0000090FFE7FEE7000080B584B047F2905056
:100DC000C1F6FF700068039047F29450C1F6FF70BF
:100DD0000068029047F29850C1F6FF7000680190D9
:100DE0000199039808440390039888B1FFE703989A
:100DF00040F28C11C2F2000100910231082209F088
:100E0000C7FB009902981231042209F0C1FBFFE7E9
:100E100004B080BD80B586B004900391002001909D
:100E2000FFE7049890F85800012804D1FFE702205A
:100E30008DF817005AE00499012081F85800FFE767
:100E4000FFE70498FFF73AFC8DF80B009DF80B00C4
:100E5000D8BBFFE70498C06D40F0020020F4885032
:100E60000499C86504980068039909F06BFFFFE7CF
:100E70000498006809F034FEF0B1FFE701980130F2
:100E8000019001984DF60261C0F20401884212D32C
:100E9000FFE70498C06D40F0100020F002000499B4
:100EA000C865FFE70499002081F85800FFE701209A
:100EB0008DF817001AE0DBE70498C06D40F00100E0
:100EC00020F002000499C86505E00499C86D40F05F
:100ED0001000C865FFE7FFE70499002081F858007B
:100EE000FFE79DF80B008DF81700FFE79DF817004E
:100EF00006B080BD81B0009001B0704781B0009015
:100F000001B0704781B0009001B0704781B000908F
:100F100001B0704781B0009001B0704780B5AEB0AD
:100F20002C902B9100208DF8AB002B98006808B115
:100F3000FFE7FFE7FFE72C9890F85800012804D15D
:100F4000FFE702208DF8B7005DE12C99012081F8C0
:100F50005800FFE7FFE70020259026902C980068B6
:100F6000B0F1A04F06D1FFE740F20010C5F200003B
:100F70000E9015E02C98006840F20041C5F2000187
:100F8000884207D1FFE740F20050C5F200000E9002
:100F90000C9003E000200E900C90FFE70C98FFE708
:100FA0000E9878B9FFE72C99C86D40F02000C8650D
:100FB000FFE72C99002081F85800FFE701208DF809
:100FC000B70020E10E9809F0C3FD0D902C98006841
:100FD00009F0BEFD002840F00281FFE70D980028CF
:100FE00040F0FD80FFE72C9801680120B1F1A04F8F
:100FF0000B900CD0FFE72C9800684FF60071CAF6F2
:10100000FF710844B0FA80F040090B90FFE70B989D
:10101000C10740F20070C5F2000000291CBF40F279
:101020000030C5F2000029902B980068002872D08B
:10103000FFE72998806820F460402B9949682C9A32
:1010400092F8382041EA42310843299988602C9867
:1010500001680120B1F1A04F0A900CD0FFE72C9855
:1010600000684FF60071CAF6FF710844B0FA80F0CC
:1010700040090A90FFE70A98C10740F20070C5F2E4
:10108000000000291CBF40F20030C5F2000040F211
:101090000031C5F20001884210D1FFE74FF0A040B7
:1010A00009F03EFD089040F20010C5F2000009F082
:1010B00037FD01460898084309901BE040F20040C4
:1010C000C5F2000009F02CFD069040F20050C5F278
:1010D000000009F025FD014606980843079040F2FC
:1010E0000060C5F2000009F01BFD014607980843A7
:1010F0000990FFE7099868B9FFE72998806840F6EA
:101100001F7188432B9A11689268114308432999EB
:101110008860FFE762E02999886820F46040886071
:101120002C9801680120B1F1A04F05900CD0FFE789
:101130002C9800684FF60071CAF6FF710844B0FAA7
:1011400080F040090590FFE70598C10740F2007064
:10115000C5F2000000291CBF40F20030C5F20000BB
:1011600040F20031C5F20001884210D1FFE74FF094
:10117000A04009F0D5FC039040F20010C5F2000039
:1011800009F0CEFC01460398084304901BE040F2AE
:101190000040C5F2000009F0C3FC019040F200508D
:1011A000C5F2000009F0BCFC01460198084302901A
:1011B00040F20060C5F2000009F0B2FC014602985E
:1011C00008430490FFE7049838B9FFE72999886835
:1011D00040F61F7290438860FFE7FFE708E02C9914
:1011E000C86D40F02000C86501208DF8AB00FFE716
:1011F000FFE72C99002081F85800FFE79DF8AB002D
:101200008DF8B700FFE79DF8B7002EB080BD000055
:1012100080B5C4B02490239100208DF88B001F90DE
:101220002398C0680021C4F27F01884201D0FFE703
:1012300000E0FFE7FFE7249890F85800012805D167
:10124000FFE702208DF8970000F059BC2499012097
:1012500081F85800FFE7FFE72498006809F070FC68
:10126000002840F03884FFE72498006823990A6832
:10127000496809F081FC2498006809F061FC1E901F
:101280002498006809F018FC1D901E98002840F072
:10129000B881FFE71D98002840F0B381FFE723984D
:1012A0008068B0F1004F0ED1FFE7249800682399C1
:1012B0000968002209F08CFC249800684FF0004176
:1012C00009F032FD0CE024980068239A11689268B6
:1012D00009F07EFC24980068002109F025FDFFE755
:1012E0002398406924990968C96801F018018908A0
:1012F000884021902398006904281CD0FFE7249897
:10130000006823990A680969219B09F0B3FC2498B5
:101310000068239A1169926909F0DEFC249800683C
:10132000239A1169127F013AB2FA82F252095206E7
:1013300009F0BEFC64E124980068002109F0ACFBD0
:10134000400348B9FFE724980068002109F0A4FB96
:10135000C0F384601C9018E024980068002109F014
:101360009BFB90FAA0F04290429820B9FFE7202022
:101370008DF80F0105E04298B0FA80F08DF80F016A
:10138000FFE79DF80F011C90FFE71C981B90239826
:101390000068400330B9FFE723980068C0F3846019
:1013A0001A9015E02398006890FAA0F040904098B9
:1013B00020B9FFE720208DF8070105E04098B0FA3A
:1013C00080F08DF80701FFE79DF807011A90FFE70D
:1013D0001B981A99884207D1FFE7249800680022D9
:1013E000114609F08DFCFFE724980068012109F0FF
:1013F00053FB400348B9FFE724980068012109F036
:101400004BFBC0F38460199018E024980068012118
:1014100009F042FB90FAA0F03E903E9820B9FFE719
:1014200020208DF8FF0005E03E98B0FA80F08DF89E
:10143000FF00FFE79DF8FF001990FFE7199818904B
:1014400023980068400330B9FFE723980068C0F391
:101450008460179015E02398006890FAA0F03C9003
:101460003C9820B9FFE720208DF8F70005E03C9874
:10147000B0FA80F08DF8F700FFE79DF8F7001790BD
:10148000FFE718981799884207D1FFE7249800686A
:101490000121002209F034FCFFE7249800680221B2
:1014A00009F0FAFA400348B9FFE7249800680221DE
:1014B00009F0F2FAC0F38460169018E024980068EE
:1014C000022109F0E9FA90FAA0F03A903A9820B98E
:1014D000FFE720208DF8EF0005E03A98B0FA80F0A1
:1014E0008DF8EF00FFE79DF8EF001690FFE71698E4
:1014F000159023980068400330B9FFE723980068EF
:10150000C0F38460149015E02398006890FAA0F06E
:101510003890389820B9FFE720208DF8E70005E0E3
:101520003898B0FA80F08DF8E700FFE79DF8E70003
:101530001490FFE715981499884207D1FFE7249883
:1015400000680221002209F0DBFBFFE72498006815
:10155000032109F0A1FA400348B9FFE72498006885
:10156000032109F099FAC0F38460139018E02498DD
:101570000068032109F090FA90FAA0F036903698AE
:1015800020B9FFE720208DF8DF0005E03698B0FA9B
:1015900080F08DF8DF00FFE79DF8DF001390FFE794
:1015A0001398129023980068400330B9FFE72398FE
:1015B0000068C0F38460119015E02398006890FAE9
:1015C000A0F03490349820B9FFE720208DF8D700A0
:1015D00005E03498B0FA80F08DF8D700FFE79DF869
:1015E000D7001190FFE712981199884207D1FFE7C1
:1015F000249800680321002209F082FBFFE7FFE73F
:10160000FFE72498006809F083FA002840F044813D
:10161000FFE724980068239A1168D26809F0F4FA69
:101620002398C0680021C4F27F01884240F03381D2
:10163000FFE724980068109023980068400330B9B1
:10164000FFE723980068C0F384600F9015E02398AB
:10165000006890FAA0F03290329820B9FFE720207D
:101660008DF8CF0005E03298B0FA80F08DF8CF0009
:10167000FFE79DF8CF000F90FFE70F98013000F0D3
:101680001F0009287DD8FFE723980068400330B980
:10169000FFE723980068C0F384600E9015E023985C
:1016A000006890FAA0F03090309820B9FFE7202031
:1016B0008DF8C70005E03098B0FA80F08DF8C700CB
:1016C000FFE79DF8C7000E90FFE70E98013000F08D
:1016D0001F0080060D9023980068400330B9FFE793
:1016E00023980068C0F384600C9015E0239800688C
:1016F00090FAA0F02E902E9820B9FFE720208DF8C8
:10170000BF0005E02E98B0FA80F08DF8BF00FFE72B
:101710009DF8BF000C90FFE70D980C99013101F086
:101720001F020121914008430B9023980068400359
:1017300030B9FFE723980068C0F384600A9015E091
:101740002398006890FAA0F02C902C9820B9FFE71D
:1017500020208DF8B70005E02C98B0FA80F08DF8C5
:10176000B700FFE79DF8B7000A90FFE70B980A99CA
:10177000013101F01F0101EB410140EA01500990E4
:1017800082E023980068400330B9FFE7239800689F
:10179000C0F38460089015E02398006890FAA0F0E8
:1017A0002A902A9820B9FFE720208DF8AF0005E0A5
:1017B0002A98B0FA80F08DF8AF00FFE79DF8AF00EF
:1017C0000890FFE70898013000F01F00800607909E
:1017D00023980068400330B9FFE723980068C0F3FE
:1017E0008460069015E02398006890FAA0F0289095
:1017F000289820B9FFE720208DF8A70005E0289859
:10180000B0FA80F08DF8A700FFE79DF8A7000690DA
:10181000FFE707980699013101F01F02012191406D
:101820000843059023980068400330B9FFE72398E8
:101830000068C0F38460049015E02398006890FA73
:10184000A0F02690269820B9FFE720208DF89F0071
:1018500005E02698B0FA80F08DF89F00FFE79DF82C
:101860009F000490FFE705990498013000F01F00E5
:1018700000EB40020020CFF6206000EB025008434E
:1018800040F000700990FFE710980999239A926838
:1018900009F09EF9FFE7FFE72398408848F2080126
:1018A000084200F01781FFE7249801680120B1F198
:1018B000A04F03900CD0FFE7249800684FF600710A
:1018C000CAF6FF710844B0FA80F040090390FFE7C0
:1018D0000398C10740F20070C5F2000000291CBF48
:1018E00040F20030C5F2000009F0BEF820902398C5
:1018F000006840F20001CCF22131884208D0FFE7B5
:10190000239800681021C9F2C00188425AD1FFE72C
:101910009DF882000006002854D4FFE72498006850
:10192000B0F1A04F09D0FFE72498006840F20061B1
:10193000C5F20001884244D1FFE7249801680120E4
:10194000B1F1A04F02900CD0FFE7249800684FF649
:101950000071CAF6FF710844B0FA80F040090290A5
:10196000FFE70298C10740F20070C5F200000029AD
:101970001CBF40F20030C5F20000209941F4000184
:1019800009F06AF940F24C00C2F2000000684FEA28
:10199000901042F66351C0F23E51A0FB01104FEA95
:1019A000901000EB40014FF00C0000EB81001F9005
:1019B000FFE71F9820B1FFE71F9801381F90F8E755
:1019C000FFE786E0239800680021CCF2527188423C
:1019D0003ED1FFE79DF88300C007C8BBFFE724980E
:1019E000006840F20011C5F20001884209D1FFE70A
:1019F0002498006840F20051C5F20001884226D0C8
:101A0000FFE7249801680120B1F1A04F01900CD0AC
:101A1000FFE7249800684FF60071CAF6FF7108448A
:101A2000B0FA80F040090190FFE70198C10740F249
:101A30000070C5F2000000291CBF40F20030C5F262
:101A40000000209941F0807109F006F9FFE73FE0BE
:101A5000239800680021CCF68431884236D1FFE714
:101A60009DF882004006002830D4FFE724980068E3
:101A700040F20011C5F20001884226D0FFE7249809
:101A800001680120B1F1A04F00900CD0FFE724982D
:101A900000684FF60071CAF6FF710844B0FA80F092
:101AA00040090090FFE70098C10740F20070C5F2BE
:101AB000000000291CBF40F20030C5F20000209950
:101AC00041F4800109F0C8F8FFE700E0FFE7FFE715
:101AD000FFE7FFE708E02499C86D40F02000C865E3
:101AE00001208DF88B00FFE7FFE72499002081F8A3
:101AF0005800FFE79DF88B008DF89700FFE79DF8F1
:101B0000970044B080BD000080B594B0139047F2B8
:101B1000AA50C1F6FF70008800EE100AB8EEC00AA5
:101B2000B0EE081A20EE010A41F61E00C2F20000D3
:101B3000808801EE100AB8EEC11A80EE010A8DED20
:101B4000120A47F2A850C1F6FF70008800EB40006F
:101B500000EE100AB8EEC00A9DED121A80EE010ADE
:101B60008DED110A47F2CA50C1F6FF70008800EBF4
:101B7000400000EE100AB8EEC00A9DED121A80EE89
:101B8000010A8DED100A139841F67431C2F200017A
:101B9000884240F0DD80FFE741F61C01C2F20001FF
:101BA0000020087041F61E00C2F200000390008879
:101BB0006FF31F3011F077FE41EC100B8DED000B31
:101BC000129812F073F89DED000B41EC110B53ECE1
:101BD000112B51EC100B11F07DFE41EC100B51EC70
:101BE000100B9FED5D0B53EC102B11F0D1FC41EC71
:101BF000100B53EC102B1046194611F021FC024635
:101C0000039804920A46049942EC101B40F22021EA
:101C1000C2F20001099181ED000B40886FF31F3083
:101C200000EE100AB8EEC00A9DED111A8DED051AEE
:101C300030EE410A10EE100A12F038F841EC100BA9
:101C400051EC100B9FED460B53EC102B11F042FEA4
:101C50009DED051A41EC100B8DED060B9DED100A64
:101C600030EE410A10EE100A12F020F89DED060B3E
:101C700041EC110B53EC112B51EC100B11F088FCC3
:101C800041EC100B51EC100B9FED370B53EC102B6C
:101C900011F0D6FB024609980A920A460A9942ECCC
:101CA000101B42F2E061C2F200010C9181ED000BC9
:101CB00090ED000B51EC100B11F090FB00EE100AB0
:101CC00041F64000C2F200000B9010F001FC0B99AD
:101CD0000C9841F64802C2F20002916101210F9175
:101CE000117390ED000B51EC100B11F0ADFD03469C
:101CF0000C9845F62941C0F28F21A3FB01216422F3
:101D000001FB123149F69A12C1F699120D92A1FB0C
:101D10000221303140F22402C2F200020E92117010
:101D200090ED000B51EC100B11F08EFD0D9B0E9AF7
:101D300001460F98A1FB03C303EB8303A1EB43010F
:101D40003031517040F27C21C2F200010873FFE78C
:101D500014B080BD00BF00BF0000000000FEAF4017
:101D600000000000000059400000000000003E405C
:101D700081B0009001B0704781B0009001B0704711
:101D800080B594B0139000201290139800680068FA
:101D90001190139800684068109013980168012012
:101DA000B1F1A04F0A900CD0FFE7139800684FF6EE
:101DB0000071CAF6FF710844B0FA80F040090A9039
:101DC000FFE70A98C10740F20070C5F20000002941
:101DD0001CBF40F20030C5F2000008F055FE0B9029
:101DE0009DF844004FEA807000281AD5FFE79DF85F
:101DF00040008007002814D5FFE71398C06DC00687
:101E0000002806D4FFE71399C86D40F40060C86548
:101E1000FFE71398FFF76EF8139801680220086037
:101E2000FFE79DF844004007002806D5FFE710981B
:101E300000F0040004280ED0FFE79DF844000007DE
:101E4000002840F1C080FFE79DF84000000700280F
:101E500040F1B980FFE71398C06DC006002806D492
:101E6000FFE71399C86D40F40070C865FFE7139849
:101E7000006808F075FE002800F09D80FFE71398C9
:101E8000006840F20011C5F20001884204D1FFE76A
:101E90004FF0A040099015E01398006840F20051FF
:101EA000C5F20001884206D1FFE740F20040C5F2CA
:101EB0000000089003E0139800680890FFE7089876
:101EC0000990FFE709981399096888420BD0FFE74A
:101ED0000B9840B1FFE70B98052804D0FFE70B985B
:101EE000092805D1FFE713980068C0680D9028E025
:101EF0001398006840F20011C5F20001884204D135
:101F0000FFE74FF0A040079015E01398006840F2FB
:101F10000051C5F20001884206D1FFE740F20040BF
:101F2000C5F20000069003E0139800680690FFE7F2
:101F300006980790FFE707980C900C98C0680D90E2
:101F4000FFE70D9800F40050B0F5005F32D0FFE7D6
:101F5000139800680068000700282AD5FFE7139847
:101F6000006808F0EDFDC0B9FFE713980168486804
:101F700020F00C0048601399C86D20F48070C8658B
:101F80001398C06DC004002806D4FFE71399C86DEC
:101F900040F00100C865FFE70AE01399C86D40F002
:101FA0001000C8651399086E40F001000866FFE74D
:101FB000FFE7FFE7FFE71398FFF7A6FD1398016817
:101FC0000C200860FFE79DF844008006002806D535
:101FD000FFE7109800F0200020280ED0FFE79DF8C2
:101FE00044004006002840F1D680FFE79DF84000FD
:101FF0004006002840F1CF80FFE71398C06DC0066F
:10200000002806D4FFE71399C86D40F40050C86556
:10201000FFE71398006808F057FD0F9013980068C9
:1020200008F09EFD0E901398006840F20011C5F272
:102030000001884204D1FFE74FF0A040059015E071
:102040001398006840F20051C5F20001884206D1A1
:10205000FFE740F20040C5F20000049003E013984F
:1020600000680490FFE704980590FFE7059813992E
:10207000096888420BD0FFE70B9840B1FFE70B9847
:10208000062804D0FFE70B98072805D1FFE713982F
:102090000068C0680D9028E01398006840F20011B5
:1020A000C5F20001884204D1FFE74FF0A040039041
:1020B00015E01398006840F20051C5F20001884213
:1020C00006D1FFE740F20040C5F20000029003E0B5
:1020D000139800680290FFE702980390FFE70398C7
:1020E0000C900C98C0680D90FFE70F9800284AD01C
:1020F000FFE79DF83700800700280AD5FFE70E9814
:1021000000283FD0FFE79DF835008006002839D42D
:10211000FFE71398006800684006002831D5FFE704
:102120009DF83600800600282AD4FFE7139800683F
:1021300008F0C2FCC0B9FFE713980168486820F0B6
:10214000600048601399C86D20F48050C8651398EA
:10215000C06DC005002806D4FFE71399C86D40F094
:102160000100C865FFE70AE01399C86D40F0100050
:10217000C8651399086E40F001000866FFE7FFE7A5
:10218000FFE7FFE7FFE71398FEF7B8FE1398016833
:1021900060200860FFE79DF844000006002813D582
:1021A000FFE79DF84000000600280DD5FFE71399D2
:1021B000C86D40F48030C865139800F0A9FA1398F0
:1021C000016880200860FFE79DF84500C00798B1CE
:1021D000FFE79DF84100C00770B1FFE71399C86D94
:1021E00040F40030C8651398FEF790FE139801681C
:1021F0004FF480700860FFE79DF8450080070028D5
:1022000014D5FFE79DF84100800700280ED5FFE7B1
:102210001399C86D40F48020C8651398FEF77AFEC4
:10222000139801684FF400700860FFE79DF84400C0
:10223000C00600285AD5FFE79DF84000C0060028D8
:1022400054D5FFE71398C06B18B9FFE7012012902F
:1022500035E00B9840B3FFE7139801680120B1F116
:10226000A04F01900CD0FFE7139800684FF6007163
:10227000CAF6FF710844B0FA80F040090190FFE708
:102280000198C10740F20070C5F2000000291CBF90
:1022900040F20030C5F2000008F0EEFB18B1FFE795
:1022A00001201290FFE709E013980068C068C0079A
:1022B00018B1FFE701201290FFE7FFE7FFE7129850
:1022C00001280ED1FFE71399C86D40F48060C865FE
:1022D0001399086E40F0020008661398FFF74CFD52
:1022E000FFE71398016810200860FFE79DF845009C
:1022F0004007002819D5FFE79DF841004007002856
:1023000013D5FFE71399C86D40F48040C865139951
:10231000086E40F008000866139801684FF480606A
:1023200008601398FEF7EEFDFFE714B080BD0000D3
:1023300080B58EB00C9000208DF82F0007900C987F
:1023400020B9FFE701208DF83700DCE10C984069E7
:1023500040B1FFE70C9890F82400012801D1FFE775
:10236000FFE7FFE70C98C06D50B9FFE70C9800F04D
:10237000D3F90C99002008660C9981F85800FFE702
:102380000C98006808F0B4FB28B1FFE70C980068CF
:1023900008F040FBFFE70C98006808F0C9FBF0B9B3
:1023A000FFE70C98006808F04FFB40F24C00C2F2C7
:1023B00000000068800942F66351C0F23E51A0FB64
:1023C00001108109022000EB41000790FFE7079808
:1023D00020B1FFE7079801380790F8E7FFE70C986E
:1023E000006808F0A5FB70B9FFE70C99C86D40F0D4
:1023F0001000C8650C99086E40F0010008660120C5
:102400008DF82F00FFE70C98006808F099FB099001
:102410000C98C06DC006002800F16781FFE709989D
:10242000002840F06281FFE70C98C06D40F0020088
:1024300020F480700C99C8650C98006808F068FB5F
:1024400000287CD1FFE70C9801680120B1F1A04F72
:1024500006900CD0FFE70C9800684FF60071CAF6A2
:10246000FF710844B0FA80F040090690FFE7069833
:10247000C10740F20070C5F2000000291CBF40F205
:102480000030C5F2000040F20031C5F20001884280
:1024900010D1FFE74FF0A04008F03AFB049040F263
:1024A0000010C5F2000008F033FB01460498084311
:1024B00005901BE040F20040C5F2000008F028FB48
:1024C000029040F20050C5F2000008F021FB0146E6
:1024D00002980843039040F20060C5F2000008F043
:1024E00017FB0146039808430590FFE7059828BBB2
:1024F000FFE70C9801680120B1F1A04F01900CD0CA
:10250000FFE70C9800684FF60071CAF6FF710844A7
:10251000B0FA80F040090190FFE70198C10740F24E
:102520000070C5F2000000291CBF40F20030C5F267
:1025300000000C99496808F081FBFFE7FFE70C9960
:102540004A7FC86B40EA42308A68CB681843104320
:1025500091F8241040EA01400A900C9890F8240069
:1025600001280BD1FFE70C98816A0020CFF6FE709E
:1025700000EB41410A9808430A90FFE70C98C06AB3
:1025800050B1FFE70C99C86A096B00F478700143F9
:102590000A9808430A90FFE70C980068C06844F264
:1025A0000701CFF6F07108400A9908430C990968B1
:1025B000C8600C980068006920F040600C9A1168AF
:1025C000526B104308610C98006808F075FA089087
:1025D0000998002868D1FFE70898002864D1FFE730
:1025E0000C99087F91F83810800340EA41000A9066
:1025F0000C980068C06844F2020188430A990843B5
:102600000C990968C8600C980069A0B1FFE70C98A4
:102610000168086940F4803008610C980068D0F8BF
:10262000C00043F6FF7188430C9A11681269104389
:10263000C1F8C00011E00C980168086920F48030EE
:1026400008610C980068D0F8C00043F6FF71884319
:102650000C990968C1F8C000FFE70C9890F8400099
:10266000012819D1FFE70C980068006940F2FD715C
:1026700020EA01020C9B1968586CD3F848E0D3F8A3
:102680004CC040EA0E0040EA0C001B6D184310439A
:1026900040F00100086106E00C980168086920F02C
:1026A00001000861FFE7FFE70C98406901280CD1A1
:1026B000FFE70C980068006B20F00F000C9A11687F
:1026C000126A013A1043086306E00C980168086B2F
:1026D00020F00F000863FFE70C98C06D40F0010088
:1026E00020F002000C99C86508E00C99C86D40F014
:1026F0001000C86501208DF82F00FFE79DF82F001E
:102700008DF83700FFE79DF837000EB080BD000060
:1027100081B0009001B0704780B5A0B01F9000203C
:102720001E901D901C901B901A9005A85421FDF737
:10273000ABFE1F980068B0F1A04F70D1FFE74FF4D7
:10274000004005904FF00050169005A803F0E0F906
:1027500018B1FFE7FEF728FBFFE7FFE741F24C0067
:10276000C4F20200016841F400510160006800F405
:10277000005004900498FFE7FFE741F24C00C4F2D8
:102780000200016841F002010160006800F00200EF
:1027900003900398FFE701201A9003201B9000206C
:1027A00001901C9040F20040C4F600001AA900F00D
:1027B0005BFC019941F6E030C2F20000029040F269
:1027C0003042C4F202020260052242608160C160B0
:1027D000802202614FF4807242614FF48062826114
:1027E000C1614FF40051016200F084FA18B1FFE7B3
:1027F000FEF7DAFAFFE7FFE71F9841F6E031C2F291
:10280000000141651F988862FFE7122000900022B6
:10281000114601F003FE009801F0F6FDFFE720B03D
:1028200080BD000080B58AB0089007910692089894
:1028300001680120B1F1A04F03900CD0FFE7089888
:1028400000684FF60071CAF6FF710844B0FA80F0D4
:1028500040090390FFE70398C10740F20070C5F2FA
:10286000000000291CBF40F20030C5F2000008F053
:102870000BF904900898006808F062F9002840F00D
:10288000CA80FFE7FFE7089890F85800012804D1B4
:10289000FFE702208DF82700C6E00899012081F8A3
:1028A0005800FFE7FFE70898006840F20061C5F2B2
:1028B000000188420CD0FFE7049848B1FFE7049874
:1028C000052805D0FFE70498092840F09980FFE724
:1028D0000898FDF755FF8DF817009DF817000028A0
:1028E00040F08680FFE70898C06D40F4807040F6A5
:1028F000016188430899C8650898006840F2001192
:10290000C5F20001884204D1FFE74FF0A0400290D9
:1029100015E00898006840F20051C5F200018842B5
:1029200006D1FFE740F20040C5F20000019003E04D
:10293000089800680190FFE701980290FFE702986D
:1029400008990968884203D0FFE7049830B9FFE787
:102950000899C86D20F48010C865FFE70898C06D1D
:10296000C004002806D5FFE70899086E20F006008D
:10297000086603E0089900200866FFE70898416DA3
:1029800040F2A550C0F60000C8620898416D40F2C0
:10299000A560C0F6000008630898416D40F27960B8
:1029A000C0F600004863089801681C200860FFE733
:1029B0000899002081F85800FFE7089801684868E6
:1029C00040F01000486008980168C86840F00100B5
:1029D000C86008980168406D4031079A069B00F076
:1029E00035FA8DF817000898006808F0E3F806E05B
:1029F000FFE70899002081F85800FFE7FFE709E0AA
:102A000001208DF81700FFE70899002081F8580091
:102A1000FFE7FFE703E002208DF81700FFE79DF8CE
:102A200017008DF82700FFE79DF827000AB080BD4A
:102A300082B0019000208DF80300019890F82500E5
:102A4000022807D0FFE701990420C86301208DF810
:102A500003002DE001980168086820F00E0008606E
:102A60000198816C086820F4807008600198016802
:102A7000086820F0010008600198016C406C00F0CB
:102A80001F020120904048600198C16C006D4860B1
:102A90000198406D58B1FFE70198416D086820F436
:102AA000807008600198816DC06D4860FFE7FFE7A6
:102AB0000199012081F82500FFE70199002081F8A4
:102AC0002400FFE79DF8030002B0704780B582B094
:102AD000019000208DF80300019890F8250002284D
:102AE00011D0FFE701990420C8630199012081F802
:102AF0002500FFE70199002081F82400FFE701206D
:102B00008DF803003FE001980168086820F00E008E
:102B1000086001980168086820F0010008600198C9
:102B2000816C086820F4807008600198016C406C2A
:102B300000F01F020120904048600198C16C006DB8
:102B400048600198406D58B1FFE70198416D0868F1
:102B500020F4807008600198816DC06D4860FFE7C7
:102B60000199012081F82500FFE70199002081F8F3
:102B70002400FFE70198806B20B1FFE70198816B8B
:102B80008847FFE7FFE79DF8030002B080BD000023
:102B900081B000900098C06B01B0704780B584B0E0
:102BA00003900398006C0068029003980068006826
:102BB000019002980399496C01F01F01C840400739
:102BC000002825D5FFE79DF80400400700281FD501
:102BD000FFE70398006800688006002807D4FFE735
:102BE00003980168086820F004000860FFE7039874
:102BF000016C406C00F01F02042090404860039874
:102C0000006B20B1FFE70398016B8847FFE76EE098
:102C100002980399496C01F01F01C8408007002801
:102C20002FD5FFE79DF804008007002829D5FFE78E
:102C3000039800680068800600280BD4FFE703981B
:102C40000168086820F00A0008600399012081F8F3
:102C50002500FFE70398016C406C00F01F02022082
:102C600090404860FFE70399002081F82400FFE7C7
:102C70000398C06A20B1FFE70398C16A8847FFE75D
:102C800034E002980399496C01F01F01C840000725
:102C9000002829D5FFE79DF804000007002823D568
:102CA000FFE703980168086820F00E0008600398A9
:102CB000026C406C00F01F01012000FA01F151602C
:102CC0000399C863039981F82500FFE70399002061
:102CD00081F82400FFE70398406B20B1FFE70398D9
:102CE000416B8847FFE700E0FFE7FFE7FFE704B03D
:102CF00080BD000080B584B00290029820B9FFE743
:102D000001208DF80F009CE00298006840F2074116
:102D1000C4F20201884218D8FFE7029908684FF60A
:102D2000F872CBF6FD7210444CF6CD42CCF6CC4294
:102D3000A0FB02026FF0030000EA920048640299CF
:102D40000020C4F20200086418E0029908684FF6F7
:102D5000F832CBF6FD7210444CF6CD42CCF6CC42A4
:102D6000A0FB02026FF0030000EA9200486402999F
:102D700040F20040C4F202000864FFE7029902201A
:102D800081F825000298006800680190019847F6D4
:102D9000F0718843019002998868D1F80CC00B69E2
:102DA0004A6940EA0C00184310438A691043CA6913
:102DB0001043096A01430198084301900198029960
:102DC000096808600298FDF73BFF02988068B0F53B
:102DD000804F04D1FFE7029900204860FFE7029985
:102DE0000879896C08600298C16C006D486002988F
:102DF000406888B1FFE70298406804280CD8FFE7D4
:102E00000298FDF757FF0298416D00200860029874
:102E1000816DC06D486007E0029900204865029905
:102E200088650299C865FFE702990020C863029A85
:102E3000012182F82510029981F824008DF80F00F5
:102E4000FFE79DF80F0004B080BD000080B586B09C
:102E5000049003910292019300208DF80300FFE794
:102E6000049890F82400012804D1FFE702208DF88F
:102E7000170065E00499012081F82400FFE7FFE7CF
:102E8000049890F8250001284BD1FFE7049902200F
:102E900081F8250004990020C86304980168086837
:102EA00020F00100086004980399029A019BFDF745
:102EB0001FFF0498006B38B1FFE7049801680868A9
:102EC00040F00E0008600CE004980168086820F0EB
:102ED0000400086004980168086840F00A0008606F
:102EE000FFE70498806C0068C003002807D5FFE75F
:102EF0000498816C086840F480700860FFE70498CB
:102F0000406D38B1FFE70498416D086840F4807067
:102F10000860FFE704980168086840F00100086055
:102F200009E0FFE70499002081F82400FFE7022070
:102F30008DF80300FFE79DF803008DF81700FFE709
:102F40009DF8170006B080BD80B584B0039000F0F6
:102F500081FA0290039801900198013048B1FFE78F
:102F600040F2B410C2F200000168019808440190D8
:102F7000FFE7FFE700F06EFA0299401A01998842D4
:102F800001D2FFE7F6E704B080BD000080B584B051
:102F9000ADF80E00BDF80E00012810D1FFE742F297
:102FA0009262C2F200021078411C117030B1FFE74A
:102FB0000FF030FD062001F01DFAFFE7FFE7BDF836
:102FC0000E00202831D1FFE700F044FA40F2C4217E
:102FD000C2F200010968401AB0F57A7F24D9FFE7F0
:102FE00042F29360C2F200000078E8B9FFE70FF008
:102FF000FDF801300290012001900FF07BF9019A59
:103000004FF090404FF4004100F00EFA019842F268
:10301000DA61C2F20001087000F01CFA40F2C4212B
:10302000C2F200010860FFE7FFE704B080BD0000C6
:1030300080B582B0ADF8060040F21440C4F2010041
:103040000068BDF8061008420CD0FFE7BDF8060086
:1030500040F21441C4F201010860BDF80600FFF718
:1030600095FFFFE702B080BD8BB00A900991002068
:103070000890FFE7099800680899C840002800F008
:10308000A581FFE709980068089A0121914008404E
:1030900007900798002800F09581FFE7099840689D
:1030A00000F00300012807D0FFE70998406800F00E
:1030B000030002282FD1FFE70A988068069008983D
:1030C0004100032000FA01F1069888430690099810
:1030D000C0680899490000FA01F106980843069073
:1030E00006980A9988600A98406806900899012015
:1030F00000FA01F106988843069009984068C0F3E9
:103100000010089900FA01F1069808430690069805
:103110000A994860FFE70998406800F00300032817
:1031200018D0FFE70A98C06806900898410003206D
:1031300000FA01F10698884306900998806808997A
:10314000490000FA01F106980843069006980A998A
:10315000C860FFE70998406800F00300022826D104
:10316000FFE70A9808996FF0030202EA5101084448
:10317000006A0690089800F0070081000F2000FA0E
:1031800001F106988843069009980069089901F0B2
:103190000701890000FA01F1069808430690069895
:1031A0000A99089B02EA530211440862FFE70A9851
:1031B0000068069008984100032000FA01F1069883
:1031C000884306900998406800F003000899490078
:1031D00000FA01F106980843069006980A990860DB
:1031E000099880798007002800F0EB80FFE7FFE76F
:1031F00041F26000C4F20200016841F00101016087
:10320000006800F0010005900598FFE7089820F09D
:1032100003000821C4F2010140580690089800F00C
:10322000030081000F2000FA01F106988843069000
:103230000A98B0F1904F03D1FFE70020049042E0DC
:103240000A9840F20041C4F60001884203D1FFE72A
:103250000120039034E00A9840F60001C4F6000112
:10326000884203D1FFE70220029026E00A9840F648
:103270000041C4F60001884203D1FFE7032001901A
:1032800018E00A9841F20001C4F60001884203D117
:10329000FFE7042000900AE00A9941F20042C4F6D8
:1032A00000020620914208BF05200090FFE7009829
:1032B0000190FFE701980290FFE702980390FFE773
:1032C00003980490FFE70498089901F0030189002E
:1032D00000FA01F10698084306900698089921F033
:1032E00003010822C4F20102885040F20840C4F2EF
:1032F000010000680690079906988843069009988F
:103300008079C006002805D5FFE70799069808438D
:103310000690FFE7069840F20841C4F201010860F8
:1033200040F20C40C4F2010000680690079906982C
:1033300088430690099880798006002805D5FFE724
:103340000799069808430690FFE7069840F20C415B
:10335000C4F20101086040F20440C4F201000068B8
:103360000690079906988843069009988079800707
:10337000002805D5FFE70799069808430690FFE760
:10338000069840F20441C4F20101086040F2004096
:10339000C4F20100006806900799069888430690D9
:1033A00009988079C00728B1FFE707990698084374
:1033B0000690FFE7069840F20041C4F20101086060
:1033C000FFE7FFE708980130089053E60BB070471D
:1033D00082B00190ADF8021001980069BDF80210AA
:1033E000084204D0FFE701208DF8010003E000202F
:1033F0008DF80100FFE79DF8010002B07047000062
:1034000083B00290ADF80610029840690090009ACF
:10341000BDF8060002EA0001904340EA014002992B
:10342000886103B07047000082B00190ADF80210CF
:103430008DF801209DF8010028B1FFE7BDF80200DA
:103440000199886104E0BDF8020001998862FFE7F4
:1034500002B0704742F2F060C2F2000000687047AC
:1034600083B001900091019890F8410020283BD151
:10347000FFE7FFE7019890F84000012804D1FFE73B
:1034800002208DF80B0033E00199012081F8400003
:10349000FFE7FFE70199242081F8410001980168C6
:1034A000086820F00100086001980168086820F4AD
:1034B00080500860009A019801680868104308600D
:1034C00001980168086840F0010008600199202017
:1034D00081F84100FFE70199002081F84000FFE7F3
:1034E00000208DF80B0003E002208DF80B00FFE7B1
:1034F0009DF80B0003B0704784B0029001910298D0
:1035000090F84100202840D1FFE7FFE7029890F8AB
:103510004000012804D1FFE702208DF80F0038E0B9
:103520000299012081F84000FFE7FFE7029924207B
:1035300081F8410002980168086820F001000860E5
:103540000298006800680090009820F47060009075
:103550000199009840EA01200090009802990968BA
:10356000086002980168086840F00100086002994C
:10357000202081F84100FFE70299002081F84000F7
:10358000FFE700208DF80F0003E002208DF80F0008
:10359000FFE79DF80F0004B07047000080B584B0CD
:1035A000039003980068806902900398006800689F
:1035B00001900398406B30B1FFE70398436B029989
:1035C000019A9847FFE704B080BD000080B582B043
:1035D0000090009820B9FFE701208DF807007BE0FC
:1035E000009890F8410040B9FFE70099002081F869
:1035F0004000009800F02CFDFFE70099242081F89E
:10360000410000980168086820F0010008600098F7
:103610000168406820F0706008610098016888685F
:1036200020F4004088600098C068012807D1FFE7B7
:1036300000980168806840F40040886006E00098C7
:103640000168806840F404408860FFE70098C06823
:10365000022807D1FFE700980168486840F400603D
:10366000486006E000980168486820F400604860FF
:10367000FFE700980168486848F20002C0F20022A3
:103680001043486000980168C86820F40040C86092
:10369000009A1168106953699269184340EA022040
:1036A000C860009A1168D069126A104308600098D7
:1036B0000168086840F00100086000990020486433
:1036C000009A202182F8411000990863009981F83E
:1036D00042008DF80700FFE79DF8070002B080BDAB
:1036E00080B588B0DDF828C00690ADF816100492B9
:1036F000ADF80E30069890F84100202840F0F68092
:10370000FFE7FFE7069890F84000012804D1FFE7A3
:1037100002208DF81F00EDE00699012081F840009D
:10372000FFE7FFE7FFF796FE0290069802996A46C8
:1037300011604FF400410122192306F06BFD20B106
:10374000FFE701208DF81F00D4E00699222081F8C0
:1037500041000699102081F8420006990020486433
:103760000499069A5162BDF80E10069A5185069981
:1037700048630698408DB0F5807F14D3FFE7069923
:10378000FF2008850698BDF8161090F82820EC4612
:1037900042F20043C8F20003CCF800304FF08073CF
:1037A00006F00EFD14E00698408D069908850698EF
:1037B000BDF8161090F82820EC4642F20043C8F2FB
:1037C0000003CCF800304FF0007306F0F9FCFFE77F
:1037D000FFE70698408D00285FD0FFE706980A991A
:1037E000029A06F079FD20B1FFE701208DF81F0055
:1037F00080E006980068406A0699496A0870069950
:10380000486A013048620699088D01380885069992
:10381000488D013848850698408DE8B3FFE7069843
:10382000008DC8BBFFE706980A9B02996A461160A3
:103830008021002206F0EEFC20B1FFE701208DF888
:103840001F0057E00698408DB0F5807F11D3FFE749
:103850000699FF2008850698BDF8161090F82820D4
:10386000EC460023CCF800304FF0807306F0A8FC43
:1038700011E00698408D069908850698BDF8161047
:1038800090F82820EC460023CCF800304FF000736D
:1038900006F096FCFFE7FFE79BE706980A99029A75
:1038A00006F0CEFD20B1FFE701208DF81F0021E0DA
:1038B000069801682020C86106990A6851684EF68A
:1038C0000003CFF6006319405160069981F841006A
:1038D0000699002081F84200FFE70699002081F850
:1038E0004000FFE700208DF81F0003E002208DF864
:1038F0001F00FFE79DF81F0008B080BD80B588B0AD
:10390000DDF828C00690ADF816100492ADF80E3020
:10391000069890F84100202840F01181FFE7FFE76A
:10392000069890F84000012804D1FFE702208DF8A6
:103930001F0008E10699012081F84000FFE7FFE73A
:10394000FFF788FD0290069802996A4611604FF4CD
:1039500000410122192306F05DFC20B1FFE70120A0
:103960008DF81F00EFE00699212081F841000699AB
:10397000102081F842000699002048640499069AB4
:103980005162BDF80E10069A518506994863069853
:10399000408DB0F5807F07D3FFE70699FF200885AB
:1039A0004FF08070019007E00698408D06990885D9
:1039B0004FF000700190FFE70698008D10B3FFE70D
:1039C00006980168406A007888620699486A013062
:1039D00048620699488D013848850699088D013856
:1039E00008850698BDF81610028D0132019BEE463F
:1039F00042F2000CC8F2000CCEF800C0D2B206F0C1
:103A0000DFFB0FE00698BDF8161090F82820019B08
:103A1000EE4642F2000CC8F2000CCEF800C006F0F0
:103A2000CFFBFFE7FFE70698408D00285ED0FFE759
:103A300006980A99029A06F055FD20B1FFE7012089
:103A40008DF81F007FE006980168406A0078886260
:103A50000699486A013048620699488D01384885C0
:103A60000699088D013808850698408DE8B3FFE770
:103A70000698008DC8BBFFE706980A9B02996A4624
:103A800011608021002206F0C5FB20B1FFE7012074
:103A90008DF81F0057E00698408DB0F5807F11D358
:103AA000FFE70699FF2008850698BDF8161090F8E4
:103AB0002820EC460023CCF800304FF0807306F04D
:103AC0007FFB11E00698408D069908850698BDF8A1
:103AD000161090F82820EC460023CCF800304FF068
:103AE000007306F06DFBFFE7FFE79CE706980A9975
:103AF000029A06F0A5FC20B1FFE701208DF81F0017
:103B000021E0069801682020C86106990A6851687A
:103B10004EF60003CFF6006319405160069981F814
:103B200041000699002081F84200FFE70699002035
:103B300081F84000FFE700208DF81F0003E002201D
:103B40008DF81F00FFE79DF81F0008B080BD000042
:103B500010B588B084460C980B98DDF828E0CDF8B5
:103B600018C0ADF81610ADF81420ADF81230ADF84D
:103B70001000069890F84100202840F02681FFE7C9
:103B80000A9820B1FFE7BDF8100040B9FFE7069999
:103B90004FF40070486401208DF81F0019E1FFE721
:103BA000069890F84000012804D1FFE702208DF824
:103BB0001F000EE10699012081F84000FFE7FFE7B2
:103BC000FFF748FC0390069803996A4611604FF48A
:103BD00000410122192306F01DFB20B1FFE701205F
:103BE0008DF81F00F5E00699222081F84100069922
:103BF000402081F842000699002048640A99069AFC
:103C00005162BDF81010069A5185069948630698CE
:103C1000BDF81610BDF81420BDF81230DDF830C024
:103C2000039CEE46CEF80440CEF800C006F008FA39
:103C300050B1FFE7FFE70699002081F84000FFE759
:103C400001208DF81F00C4E00698408DB0F5807FFC
:103C500014D3FFE70699FF2008850698BDF81610D3
:103C600090F82820EC4642F20043C8F20003CCF85A
:103C700000304FF0807306F0A3FA14E00698408DF0
:103C8000069908850698BDF8161090F82820EC468D
:103C900042F20043C8F20003CCF800304FF000734A
:103CA00006F08EFAFFE7FFE706980C9B03996A4639
:103CB00011600421002206F0ADFA20B1FFE70120D7
:103CC0008DF81F0085E006980068406A0699496AE9
:103CD00008700699486A013048620699088D0138D3
:103CE00008850699488D013848850698408DE8B3C7
:103CF000FFE70698008DC8BBFFE706980C9B039969
:103D00006A4611608021002206F084FA20B1FFE7A4
:103D100001208DF81F005CE00698408DB0F5807F93
:103D200011D3FFE70699FF2008850698BDF8161005
:103D300090F82820EC460023CCF800304FF0807338
:103D400006F03EFA11E00698408D0699088506981F
:103D5000BDF8161090F82820EC460023CCF800306F
:103D60004FF0007306F02CFAFFE7FFE7FFE7069835
:103D7000408D002898D1FFE706980C99039A06F029
:103D80005FFB20B1FFE701208DF81F0021E00698BE
:103D900001682020C86106990A6851684EF6000340
:103DA000CFF6006319405160069981F841000699E9
:103DB000002081F84200FFE70699002081F84000CA
:103DC000FFE700208DF81F0003E002208DF81F00A0
:103DD000FFE79DF81F0008B010BD000010B588B0C7
:103DE00084460C980B98DDF828E0CDF818C0ADF8A3
:103DF0001610ADF81420ADF81230ADF8100006988A
:103E000090F84100202840F01B81FFE70A9820B17C
:103E1000FFE7BDF8100040B9FFE706994FF40070C6
:103E2000486401208DF81F000EE1FFE7069890F826
:103E30004000012804D1FFE702208DF81F0003E1B4
:103E40000699012081F84000FFE7FFE7FFF702FB3A
:103E50000390069803996A4611604FF400410122CD
:103E6000192306F0D7F920B1FFE701208DF81F00D4
:103E7000EAE00699212081F841000699402081F866
:103E800042000699002048640A99069A5162BDF8DA
:103E90001010069A5185069948630698BDF81610C9
:103EA000BDF81420BDF81230DDF830C0039CEE469A
:103EB000CEF80440CEF800C006F022F950B1FFE77A
:103EC000FFE70699002081F84000FFE701208DF808
:103ED0001F00B9E00698408DB0F5807F11D3FFE751
:103EE0000699FF2008850698BDF8161090F828203E
:103EF000EC460023CCF800304FF0807306F060F9F8
:103F000011E00698408D069908850698BDF81610B0
:103F100090F82820EC460023CCF800304FF00073D6
:103F200006F04EF9FFE7FFE706980C99039A06F0B2
:103F3000D9FA20B1FFE701208DF81F0084E0069830
:103F40000168406A007888620699486A01304862D0
:103F50000699488D013848850699088D01380885ED
:103F60000698408DE8B3FFE70698008DC8BBFFE7D1
:103F700006980C9B03996A4611608021002206F086
:103F800049F920B1FFE701208DF81F005CE0069899
:103F9000408DB0F5807F11D3FFE70699FF2008859B
:103FA0000698BDF8161090F82820EC460023CCF8AF
:103FB00000304FF0807306F003F911E00698408D51
:103FC000069908850698BDF8161090F82820EC464A
:103FD0000023CCF800304FF0007306F0F1F8FFE753
:103FE000FFE7FFE70698408D00289DD1FFE7069880
:103FF0000C99039A06F024FA20B1FFE701208DF80E
:104000001F0021E0069801682020C86106990A680F
:1040100051684EF60003CFF60063194051600699CF
:1040200081F841000699002081F84200FFE70699D7
:10403000002081F84000FFE700208DF81F0003E01A
:1040400002208DF81F00FFE79DF81F0008B010BD8B
:1040500080B5A6B025900020249023902290219036
:1040600020900BA85421FCF70FFA2598006845F61C
:104070000001C4F20001884240F08F80FFE78020F9
:104080000B90002013900BA801F042FD18B1FFE740
:10409000FCF78AFEFFE7FFE741F24C00C4F20200A2
:1040A000016841F001010160006800F001000A9020
:1040B0000A98FFE74FF440702090122021900020D2
:1040C00022902390042024904FF0904020A9FEF7E6
:1040D000CBFFFFE741F25800C4F20200016841F44F
:1040E00080010160006800F4800009900998FFE7F2
:1040F00041F64040C2F2000006900821C4F20201DD
:1041000001601221416000218160C1608022026152
:1041100041618161C1610162FEF7ECFD18B1FFE709
:10412000FCF742FEFFE7FFE7259841F64041C2F267
:104130000001C16325988862FFE741F6A040C2F202
:10414000000005901C21C4F20201016013214160AE
:10415000102181600021C160802202614161816182
:10416000C1610162FEF7C6FD18B1FFE7FCF71CFE56
:10417000FFE7FFE7259841F6A041C2F20001816305
:1041800025988862FFE7212004900022114600F064
:1041900045F9049800F038F99BE02598006847F647
:1041A0000001C4F20001884240F09280FFE74FF422
:1041B00080700B90002014900BA801F0A9FC18B19E
:1041C000FFE7FCF7F1FDFFE7FFE741F24C00C4F227
:1041D0000200016841F004010160006800F0040081
:1041E00008900898FFE74FF440702090122021902B
:1041F0000020229023900820249040F60000C4F66E
:10420000000020A9FEF730FFFFE741F25800C4F29A
:104210000200016841F080410160006800F08040C8
:1042200007900798FFE741F60050C2F200000390A4
:104230003021C4F20201016014214160002181603B
:10424000C1608022026141618161C1610162FEF74A
:1042500051FD18B1FFE7FCF7A7FDFFE7FFE7259841
:1042600041F60051C2F20001C16325988862FFE760
:1042700041F66050C2F2000002904421C4F20201F3
:10428000016015214160102181600021C160802200
:10429000026141618161C1610162FEF72BFD18B1CC
:1042A000FFE7FCF781FDFFE7FFE7259841F6605146
:1042B000C2F20001816325988862FFE75C200190CB
:1042C0000022114600F0AAF8019800F09DF8FFE7DF
:1042D000FFE726B080BD000040F2B410C2F200003B
:1042E000026842F2F061C2F20001086810440860FE
:1042F0007047000080B582B000208DF807000320D1
:1043000000F0A4F80F2000F00DF820B1FFE7012025
:104310008DF8070002E000F049F8FFE79DF807007C
:1043200002B080BD80B582B0019000208DF80300FE
:1043300040F2B410C2F20000006878B3FFE740F228
:104340004C00C2F20000006840F2B411C2F2000159
:104350000A684FF47A71B1FBF2F1B0FBF1F003F0AF
:10436000DBFAB0B9FFE701980F280DD8FFE70199F4
:104370004FF0FF30002200F051F8019840F2B811E0
:10438000C2F20001086003E001208DF80300FFE79E
:1043900003E001208DF80300FFE703E001208DF822
:1043A0000300FFE79DF8030002B080BD80B582B036
:1043B000FFE741F26000C4F20200016841F0010130
:1043C0000160006800F0010001900198FFE7FFE73D
:1043D00041F25800C4F20200016841F080510160CE
:1043E000006800F0805000900098FFE701F07CFB2F
:1043F00002B080BD80B582B08DF807009DF907003E
:104400000DF06AFD02B080BD80B582B08DF8070066
:104410009DF907000DF07CFD02B080BD80B586B02F
:104420008DF81700049103920DF08AFD02909DF91A
:104430001700019002980499039A07F0E1F90146E8
:1044400001980DF085FD06B080BD000080B582B0FA
:10445000019001980DF09EFD02B080BD82B00190E8
:1044600001980068009001990120C1F8D0020199DB
:10447000002081F8C802009AB2F8541041F00101FE
:10448000A2F85410009AB2F8541041F00201A2F8B8
:10449000541002B07047000080B584B003908DF8CE
:1044A0000B109DF80B000146019120B1FFE7019828
:1044B000012815D027E00398407A58B1FFE707F0AC
:1044C000E3FF4EF61051CEF20001086820F006001E
:1044D0000860FFE70398D0F8D8020BF033FB12E036
:1044E0000398D0F8D8020BF013FC0398407A48B137
:1044F000FFE74EF61051CEF20001086840F00600CA
:104500000860FFE7FFE704B080BD000084B00390BF
:10451000ADF80A10ADF808200193BDF80A000006B6
:1045200000280CD5FFE70398BDF80A1001F0070139
:1045300001EB810100EBC100103000900AE003980C
:10454000BDF80A1001EB810100EBC10000F5A87075
:104550000090FFE7BDF8080038B9FFE70099002098
:10456000087301980099C8800AE000990120087337
:10457000019800990881BDF8060000994881FFE77D
:10458000002004B07047000080B582B001908DF823
:104590000310019AD2F8D8029DF8031001EB8103B1
:1045A00002EBC302526A0BF085F802B080BD000036
:1045B00080B582B001908DF80310019AD2F8D8022C
:1045C0009DF8031001EB810302EBC302D2F86421D2
:1045D0000BF016F902B080BD80B584B002908DF862
:1045E00007109DF80700000600280FD5FFE7029886
:1045F0009DF8071001F0070101EB810100EBC100FC
:10460000103000900099012048700FE002989DF84A
:10461000071001F0070101EB810100EBC10000F57B
:10462000A8700090009900204870FFE79DF80700EF
:1046300000F0070000990870FFE7029890F89002D8
:10464000012804D1FFE702208DF80F0014E0029941
:10465000012081F89002FFE7FFE7029800680099C7
:104660000CF0B2FBFFE70299002081F89002FFE70F
:1046700000208DF80F00FFE79DF80F0004B080BD0B
:1046800080B584B002908DF807109DF8070000F007
:104690000F0002990979884204D9FFE701208DF8BB
:1046A0000F004DE09DF80700000600280FD5FFE73A
:1046B00002989DF8071001F0070101EB810100EB62
:1046C000C100103000900099012048700FE002985E
:1046D0009DF8071001F0070101EB810100EBC1001B
:1046E00000F5A8700090009900204870FFE700993D
:1046F000002088709DF8070000F0070000990870FE
:10470000FFE7029890F89002012804D1FFE7022009
:104710008DF80F0014E00299012081F89002FFE764
:10472000FFE70298006800990CF02EFDFFE7029960
:10473000002081F89002FFE700208DF80F00FFE7CE
:104740009DF80F0004B080BD80B586B0059004913F
:10475000ADF80E20BDF80E004004002876D5FFE726
:1047600005980068B0F850000499097800EBC10082
:10477000059909680844B0F802046FF39F20ADF86A
:104780000C0004988069BDF80C10884207D3FFE73D
:10479000BDF80C2004998869801A886103E00499A7
:1047A00000208861FFE704988069F8B9FFE7FFE718
:1047B000059800680499097830F821004BF68F714C
:1047C0000840ADF80A00BDF80A0080F40050ADF8CA
:1047D0000A00BDF80A0048F28001084305990968FB
:1047E000049A127821F82200FFE7FFE7BDF80E00D7
:1047F000400600281BD5FFE7FFE7FFE705980068A4
:104800000499097830F8210048F68F710840ADF816
:104810000800BDF8080048F2C0010843059909687E
:10482000049A127821F82200FFE7FFE7FFE7BDF8BE
:104830000C0050B1FFE705980068049A516912898D
:10484000BDF80C300DF09AFAFFE775E005980068A6
:10485000B0F850000499097800EBC1000599096887
:104860000844B0F806046FF39F20ADF80C000498DC
:104870008069BDF80C10884207D3FFE7BDF80C2013
:1048800004998869801A886103E00499002088618E
:10489000FFE704988069F8B9FFE7FFE7059800682B
:1048A0000499097830F821004BF68F710840ADF873
:1048B0000600BDF8060080F40050ADF80600BDF813
:1048C000060048F28001084305990968049A1278A5
:1048D00021F82200FFE7FFE7BDF80E0040060028A0
:1048E0001BD4FFE7FFE7FFE7059800680499097804
:1048F00030F8210048F68F710840ADF80400BDF88B
:10490000040048F2C001084305990968049A127826
:1049100021F82200FFE7FFE7FFE7BDF80C0050B1E8
:10492000FFE705980068049A51695289BDF80C3078
:104930000DF024FAFFE7FFE7BDF80C0006B080BDDC
:1049400080B5AAB028902791ADF89A20BDF89A00BA
:104950004006002840F1E181FFE728980068B0F8A0
:1049600050002799097800EBC1002899096808448C
:10497000B0F802046FF39F20ADF892002798806989
:10498000BDF89210884207D9FFE7BDF89220279919
:104990008869801A886103E0279900208861FFE711
:1049A00027988069002840F0D780FFE7FFE7279825
:1049B000407808BBFFE7FFE7289800682390289815
:1049C0000068B0F850102398084423902398279942
:1049D000097800EBC10000F202402290FFE7229923
:1049E00008886FF39F2008802299088840F40040CF
:1049F0000880FFE7FFE71DE027984078012818D1DD
:104A0000FFE7FFE728980068209028980068B0F832
:104A1000501020980844209020982799097800EB9E
:104A2000C10000F202401F901F9900200880FFE79C
:104A3000FFE7FFE7FFE7FFE7289800681E90279849
:104A4000407808BBFFE7FFE7289800681C9028988B
:104A50000068B0F850101C9808441C901C982799C6
:104A6000097800EBC10000F206401B90FFE71B999C
:104A700008886FF39F2008801B99088840F4004045
:104A80000880FFE7FFE718E027984078012813D156
:104A9000FFE728980068B0F850101E9808441E9050
:104AA0001E982799097800EBC10000F206401D907E
:104AB0001D9900200880FFE7FFE7FFE72798C078EF
:104AC00002281FD1FFE7FFE7289800682799097897
:104AD00030F8210048F6BF710840ADF86600BDF817
:104AE000660080F02000ADF86600BDF8660048F270
:104AF0008001084328990968279A127821F8220032
:104B0000FFE7FFE7289827990978FFF73DFDBDF8F3
:104B10009A00400400281BD5FFE7FFE7FFE728982D
:104B200000682799097830F8210048F68F7108400D
:104B3000ADF86400BDF864004CF280010843289988
:104B40000968279A127821F82200FFE7FFE7FFE7BC
:104B500000208DF8A700E6E2BDF89A004004002886
:104B60001BD5FFE7FFE7FFE728980068279909783A
:104B700030F8210048F68F710840ADF86200BDF8AA
:104B800062004CF28001084328990968279A12783C
:104B900021F82200FFE7FFE7FFE7279890F82400BD
:104BA000012840F0B880FFE7BDF8922027994869B6
:104BB00010444861BDF892202799C8691044C86123
:104BC00027980169006A884209D3FFE7279800699E
:104BD0002590259A2799086A801A086216E0279876
:104BE000006A40B9FFE7BDF89200259027990020A0
:104BF00081F8240009E02799002081F824002799F2
:104C0000096A259127990862FFE7FFE7FFE72798E0
:104C10004078002856D1FFE7FFE7289800681790F2
:104C200028980068B0F85010179808441790179803
:104C30002799097800EBC10000F202401690FFE7C7
:104C4000169908886FF39F200880259830B9FFE7F0
:104C50001699088840F40040088030E025983E28E6
:104C600015D8FFE7FFE72598400815909DF89400B8
:104C7000C00720B1FFE7159801301590FFE7159A9E
:104C80001699088840EA82200880FFE716E0FFE7CF
:104C90002598400915909DF89400C00620B9FFE7BB
:104CA000159801381590FFE7159A1699088840EA7B
:104CB000822040F400400880FFE7FFE7FFE7FFE7BE
:104CC000FFE71DE027984078012818D1FFE7FFE7AC
:104CD00028980068149028980068B0F8501014982C
:104CE0000844149014982799097800EBC10000F249
:104CF00002401390259813990880FFE7FFE7FFE72C
:104D0000FFE728980068279A51691289BDF8943006
:104D10000DF086F8FFE7FFE7DDE128980068B0F8BE
:104D200050002799097800EBC100289909680844C8
:104D3000B0F806046FF39F20ADF8920027988069C1
:104D4000BDF89210884207D3FFE7BDF8922027995B
:104D50008869801A886103E0279900208861FFE74D
:104D600027988069002840F0D780FFE7FFE7279861
:104D7000407808BBFFE7FFE7289800681290289862
:104D80000068B0F8501012980844129012982799B1
:104D9000097800EBC10000F202401190FFE7119981
:104DA00008886FF39F2008801199088840F400401C
:104DB0000880FFE7FFE71DE027984078012818D119
:104DC000FFE7FFE7289800680F9028980068B0F880
:104DD00050100F9808440F900F982799097800EB0E
:104DE000C10000F202400E900E9900200880FFE7FB
:104DF000FFE7FFE7FFE7FFE7289800680D90279897
:104E0000407808BBFFE7FFE7289800680B902898D8
:104E10000068B0F850100B9808440B900B98279935
:104E2000097800EBC10000F206400A90FFE70A99FA
:104E300008886FF39F2008800A99088840F4004092
:104E40000880FFE7FFE718E027984078012813D192
:104E5000FFE728980068B0F850100D9808440D90AE
:104E60000D982799097800EBC10000F206400C90DC
:104E70000C9900200880FFE7FFE7FFE72798C0783C
:104E800002281FD1FFE7FFE72898006827990978D3
:104E900030F8210048F6BF710840ADF82200BDF897
:104EA000220080F02000ADF82200BDF8220048F278
:104EB0008001084328990968279A127821F822006E
:104EC000FFE7FFE7289827990978FFF75DFBBDF812
:104ED0009A00400400281BD4FFE7FFE7FFE728986B
:104EE00000682799097830F8210048F68F7108404A
:104EF000ADF82000BDF820004CF28001084328994D
:104F00000968279A127821F82200FFE7FFE7FFE7F8
:104F100000208DF8A70006E1BDF89A0040040028A3
:104F20001BD4FFE7FFE7FFE7289800682799097877
:104F300030F8210048F68F710840ADF81E00BDF82A
:104F40001E004CF28001084328990968279A1278BC
:104F500021F82200FFE7FFE7FFE7279890F82400F9
:104F6000012840F0B680FFE7BDF8922027994869F4
:104F700010444861BDF892202799C8691044C8615F
:104F800027980169006A884209D3FFE727980069DA
:104F90002590259A2799086A801A086216E02798B2
:104FA000006A40B9FFE7BDF89200259027990020DC
:104FB00081F8240009E02798006A259027990020AD
:104FC0000862279981F82400FFE7FFE7FFE72898A8
:104FD0000068069027984078002856D1FFE7FFE741
:104FE00028980068049028980068B0F85010049839
:104FF0000844049004982799097800EBC10000F256
:1050000006400390FFE7039908886FF39F2008800C
:10501000259830B9FFE70399088840F400400880DC
:1050200030E025983E2815D8FFE7FFE7259840088F
:1050300002909DF89400C00720B1FFE7029801306C
:105040000290FFE7029A0399088840EA82200880CC
:10505000FFE716E0FFE72598400902909DF89400CD
:10506000C00620B9FFE7029801380290FFE7029AD4
:105070000399088840EA822040F400400880FFE756
:10508000FFE7FFE7FFE7FFE718E0279840780128F0
:1050900013D1FFE728980068B0F85010069808442C
:1050A000069006982799097800EBC10000F20640A7
:1050B0000590259805990880FFE7FFE7FFE7289806
:1050C0000068279A51695289BDF894300CF0A8FE07
:1050D000FFE7FFE7FFE7FFE72898006827990978CF
:1050E00030F8210048F6BF710840ADF80600BDF861
:1050F000060080F01000ADF80600BDF8060080F054
:105100002000ADF80600BDF8060048F28001084313
:1051100028990968279A127821F82200FFE70020D1
:105120008DF8A700FFE79DF8A7002AB080BD00001A
:1051300082B001908DF8031001989DF8031001F0E2
:10514000070101EB810100EBC100D0F86C0102B056
:105150007047000080B586B004908DF80F10ADF850
:105160000C208DF80B3000208DF80A009DF80F0000
:10517000000600280FD5FFE704989DF80F1001F0F6
:10518000070101EB810100EBC10010300190019992
:10519000012048700FE004989DF80F1001F00701FE
:1051A00001EB810100EBC10000F5A87001900199AD
:1051B00000204870FFE79DF80F0000F007000199FC
:1051C0000870BDF80C006FF3DF20019908619DF8AD
:1051D0000B000199C8709DF80B00022804D1FFE76D
:1051E000019900200871FFE7FFE7049890F890020A
:1051F000012804D1FFE702208DF8170015E004997B
:10520000012081F89002FFE7FFE704980068019908
:105210000BF096F9FFE70499002081F89002FFE770
:105220009DF80A008DF81700FFE79DF8170006B0FB
:1052300080BD000080B586B005908DF813100392F4
:10524000029305989DF8131001F0070101EB81010D
:1052500000EBC10000F5A870019003980199486126
:10526000029801998861019900200090C861019914
:1052700048709DF8130000F0070001990870059828
:10528000006801990CF062F8009806B080BD00003B
:1052900080B584B002908DF807109DF8070000F0EB
:1052A000070002990979884204D9FFE701208DF8A7
:1052B0000F004BE09DF80700000600280FD5FFE720
:1052C00002989DF8071001F0070101EB810100EB46
:1052D000C100103000900099012048700DE0029844
:1052E0009DF8071001EB810100EBC10000F5A870EB
:1052F0000090009900204870FFE700990120887015
:105300009DF8070000F0070000990870FFE7029879
:1053100090F89002012804D1FFE702208DF80F00D9
:1053200014E00299012081F89002FFE7FFE702985C
:10533000006800990BF0C6FFFFE70299002081F892
:105340009002FFE700208DF80F00FFE79DF80F00A7
:1053500004B080BD80B586B005908DF8131003921F
:10536000029305989DF8131001F0070101EB8101EC
:1053700000EBC10010300190039801994861029838
:10538000019988610199012081F824000299019A0C
:105390001162019A00210091D161019948709DF834
:1053A000130000F007000199087005980068019942
:1053B0000BF0CCFF009806B080BD000080B582B035
:1053C0000190019800680CF0CFFC00909DF801005E
:1053D0000006002804D5FFE7019806F047FADFE051
:1053E0009DF801004007002810D5FFE701980168EB
:1053F000B1F8440020F48060A1F84400019800F066
:10540000DDF90198002100F019FAC9E09DF80100CA
:105410004006002809D5FFE701980168B1F844006B
:1054200020F48040A1F84400BAE09DF80100800615
:10543000002809D5FFE701980168B1F8440020F47D
:105440000050A1F84400ABE09DF80100C006002820
:105450002AD5FFE701980168B1F8400020F0040068
:10546000A1F8400001980168B1F8400020F0080060
:10547000A1F84000019890F8C802012808D1FFE780
:105480000198002180F8C8120198FFF705F8FFE79E
:10549000019800F0AFF901980168B1F8440020F4D8
:1054A0008050A1F844007BE09DF80100000700282F
:1054B0001CD5FFE701980168B1F8400040F00800F2
:1054C000A1F8400001980168B1F8440020F40060A0
:1054D000A1F8440001980168B1F8400040F00400D0
:1054E000A1F84000019800F00DFA59E09DF8000085
:1054F0000006002834D5FFE701980168B1F84400A0
:1055000020F08000A1F84400019890F8C80210BB78
:10551000FFE701980168B1F8400040F00400A1F8ED
:10552000400001980168B1F8400040F00800A1F87F
:1055300040000198012180F8C81201980068B0F875
:10554000540000F0F0008008019AC2F8CC020198E3
:10555000FEF7A2FF03E0019800F0D4F9FFE71FE097
:105560009DF80100800700280CD5FFE7019801682D
:10557000B1F8440020F40070A1F84400019800F054
:1055800053F90DE09DF80100C00748B1FFE701980D
:105590000168B1F8440020F48070A1F84400FFE7EE
:1055A00002B080BD80B584B00290029820B9FFE7B8
:1055B00001208DF80F00BBE0029890F8910240B9ED
:1055C000FFE70299002081F89002029800F0B4F8F9
:1055D000FFE70299032081F89102029800680BF01E
:1055E000C3FD00208DF80700FFE79DF80700029932
:1055F0000979884239DAFFE702989DF8071001EB34
:10560000810100EBC101012048749DF80700029957
:1056100000EB800201EBC201087402989DF80710AC
:1056200001EB810100EBC1010020C87402999DF8D3
:10563000072002EB820201EBC201086202999DF889
:10564000072002EB820201EBC201486202999DF839
:10565000072002EB820201EBC2018862FFE79DF89E
:10566000070001308DF80700BFE700208DF8070024
:10567000FFE79DF807000299097988423EDAFFE7C3
:1056800002989DF8071001EB810100EBC101002099
:1056900081F851019DF80710029A01EB810302EB9A
:1056A000C30282F8501102999DF8072002EB820292
:1056B00001EBC20181F8530102999DF8072002EB2A
:1056C000820201EBC201C1F8600102999DF8072036
:1056D00002EB820201EBC201C1F8640102999DF85C
:1056E000072002EB820201EBC201C1F86801FFE76B
:1056F0009DF8070001308DF80700BAE7029A10689C
:10570000516892680BF01CFD029900200873029901
:10571000012081F891020298807A012804D1FFE7E4
:105720000298FEF79BFEFFE700208DF80F00FFE7D1
:105730009DF80F0004B080BD80B59AB0199004A800
:105740005421FAF7A1FE1998006845F60041C4F209
:105750000001884230D1FFE74FF400500490002050
:10576000139004A800F0D4F918B1FFE7FBF71CFB75
:10577000FFE7FFE741F25800C4F20200016841F47C
:1057800000010160006800F4000003900398FFE747
:1057900013200090002201921146FEF73FFE009870
:1057A000FEF732FE019A142002901146FEF736FEF3
:1057B0000298FEF729FEFFE71AB080BD80B582B0DF
:1057C000019001208DF8030001984079022803D050
:1057D000FFE7FBF7E9FAFFE70198D0F8D8029DF858
:1057E00003100AF0E9F90198D0F8D8020AF05AF942
:1057F00002B080BD80B582B001900198407A58B166
:10580000FFE74EF61051CEF20001086820F00600C6
:10581000086006F039FEFFE70198D0F8D8020AF0D8
:1058200091F902B080BD000080B582B0019001986E
:10583000D0F8D8020AF098F902B080BD80B584B0E3
:1058400002908DF80710FFE7029890F89002012867
:1058500004D1FFE702208DF80F0019E00299012022
:1058600081F89002FFE7FFE79DF8070002990873AF
:10587000029800689DF807100CF0C2FAFFE7029941
:10588000002081F89002FFE700208DF80F00FFE76D
:105890009DF80F0004B080BD80B582B001900199E1
:1058A000D1F8D80201F526710AF0B0F902B080BD36
:1058B00080B582B00090FFE7009890F89002012830
:1058C00004D1FFE702208DF8070017E000990120BE
:1058D00081F89002FFE7FFE7009800680CF024FAD7
:1058E000009800680BF020FCFFE70099002081F889
:1058F0009002FFE700208DF80700FFE79DF8070002
:1059000002B080BD80B582B001900198D0F8D80275
:105910000AF0FEF90198407A48B1FFE74EF61051BF
:10592000CEF20001086840F006000860FFE702B010
:1059300080BD000085B00390039800285ED1FFE78A
:1059400047F20000C4F20000006800F4C060B0F547
:10595000806F49D1FFE747F28001C4F20001086877
:1059600020F48070086047F20002C4F2000211685F
:10597000012060F34A21116040F24C01C2F20001A3
:105980000968322251434DF68362C4F21B32A1FBF7
:10599000022100EB91400290FFE747F21400C4F2AD
:1059A00000000168002049050029019006D5FFE7A5
:1059B0000298002818BF01200190FFE70198C00756
:1059C00020B1FFE7029801380290E6E747F21400A1
:1059D000C4F2000000684005002804D5FFE703205A
:1059E0008DF813007CE008E047F28001C4F200016A
:1059F000086820F480700860FFE76DE00398B0F558
:105A0000007F5ED1FFE747F20000C4F200000068AB
:105A100000F4C060B0F5806F49D1FFE747F2800124
:105A2000C4F20001086840F48070086047F2000288
:105A3000C4F200021168012060F34A21116040F2B3
:105A40004C01C2F200010968322251434DF68362D3
:105A5000C4F21B32A1FB022100EB91400290FFE750
:105A600047F21400C4F20000016800204905002933
:105A7000009006D5FFE70298002818BF012000908B
:105A8000FFE70098C00720B1FFE7029801380290B5
:105A9000E6E747F21400C4F2000000684005002861
:105AA00004D5FFE703208DF8130019E008E047F262
:105AB0008001C4F20001086840F480700860FFE7CC
:105AC00009E047F20001C4F200010868022262F313
:105AD0004A200860FFE7FFE700208DF81300FFE78A
